{
  "_format": "hh-sol-artifact-1",
  "contractName": "Token3",
  "sourceName": "src/contracts/Token3.sol",
  "abi": [
    {
      "inputs": [],
      "stateMutability": "nonpayable",
      "type": "constructor"
    },
    {
      "anonymous": false,
      "inputs": [
        {
          "indexed": true,
          "internalType": "address",
          "name": "owner",
          "type": "address"
        },
        {
          "indexed": true,
          "internalType": "address",
          "name": "spender",
          "type": "address"
        },
        {
          "indexed": false,
          "internalType": "uint256",
          "name": "value",
          "type": "uint256"
        }
      ],
      "name": "Approval",
      "type": "event"
    },
    {
      "anonymous": false,
      "inputs": [
        {
          "indexed": true,
          "internalType": "address",
          "name": "previousOwner",
          "type": "address"
        },
        {
          "indexed": true,
          "internalType": "address",
          "name": "newOwner",
          "type": "address"
        }
      ],
      "name": "OwnershipTransferred",
      "type": "event"
    },
    {
      "anonymous": false,
      "inputs": [
        {
          "indexed": true,
          "internalType": "address",
          "name": "from",
          "type": "address"
        },
        {
          "indexed": true,
          "internalType": "address",
          "name": "to",
          "type": "address"
        },
        {
          "indexed": false,
          "internalType": "uint256",
          "name": "value",
          "type": "uint256"
        }
      ],
      "name": "Transfer",
      "type": "event"
    },
    {
      "inputs": [
        {
          "internalType": "address",
          "name": "owner",
          "type": "address"
        },
        {
          "internalType": "address",
          "name": "spender",
          "type": "address"
        }
      ],
      "name": "allowance",
      "outputs": [
        {
          "internalType": "uint256",
          "name": "",
          "type": "uint256"
        }
      ],
      "stateMutability": "view",
      "type": "function"
    },
    {
      "inputs": [
        {
          "internalType": "address",
          "name": "spender",
          "type": "address"
        },
        {
          "internalType": "uint256",
          "name": "amount",
          "type": "uint256"
        }
      ],
      "name": "approve",
      "outputs": [
        {
          "internalType": "bool",
          "name": "",
          "type": "bool"
        }
      ],
      "stateMutability": "nonpayable",
      "type": "function"
    },
    {
      "inputs": [
        {
          "internalType": "address",
          "name": "account",
          "type": "address"
        }
      ],
      "name": "balanceOf",
      "outputs": [
        {
          "internalType": "uint256",
          "name": "",
          "type": "uint256"
        }
      ],
      "stateMutability": "view",
      "type": "function"
    },
    {
      "inputs": [],
      "name": "decimals",
      "outputs": [
        {
          "internalType": "uint8",
          "name": "",
          "type": "uint8"
        }
      ],
      "stateMutability": "view",
      "type": "function"
    },
    {
      "inputs": [
        {
          "internalType": "address",
          "name": "spender",
          "type": "address"
        },
        {
          "internalType": "uint256",
          "name": "subtractedValue",
          "type": "uint256"
        }
      ],
      "name": "decreaseAllowance",
      "outputs": [
        {
          "internalType": "bool",
          "name": "",
          "type": "bool"
        }
      ],
      "stateMutability": "nonpayable",
      "type": "function"
    },
    {
      "inputs": [
        {
          "internalType": "address",
          "name": "account",
          "type": "address"
        }
      ],
      "name": "excludeAccount",
      "outputs": [],
      "stateMutability": "nonpayable",
      "type": "function"
    },
    {
      "inputs": [
        {
          "internalType": "address",
          "name": "account",
          "type": "address"
        }
      ],
      "name": "includeAccount",
      "outputs": [],
      "stateMutability": "nonpayable",
      "type": "function"
    },
    {
      "inputs": [
        {
          "internalType": "address",
          "name": "spender",
          "type": "address"
        },
        {
          "internalType": "uint256",
          "name": "addedValue",
          "type": "uint256"
        }
      ],
      "name": "increaseAllowance",
      "outputs": [
        {
          "internalType": "bool",
          "name": "",
          "type": "bool"
        }
      ],
      "stateMutability": "nonpayable",
      "type": "function"
    },
    {
      "inputs": [
        {
          "internalType": "address",
          "name": "account",
          "type": "address"
        }
      ],
      "name": "isExcluded",
      "outputs": [
        {
          "internalType": "bool",
          "name": "",
          "type": "bool"
        }
      ],
      "stateMutability": "view",
      "type": "function"
    },
    {
      "inputs": [],
      "name": "name",
      "outputs": [
        {
          "internalType": "string",
          "name": "",
          "type": "string"
        }
      ],
      "stateMutability": "view",
      "type": "function"
    },
    {
      "inputs": [],
      "name": "owner",
      "outputs": [
        {
          "internalType": "address",
          "name": "",
          "type": "address"
        }
      ],
      "stateMutability": "view",
      "type": "function"
    },
    {
      "inputs": [
        {
          "internalType": "uint256",
          "name": "tAmount",
          "type": "uint256"
        }
      ],
      "name": "reflect",
      "outputs": [],
      "stateMutability": "nonpayable",
      "type": "function"
    },
    {
      "inputs": [
        {
          "internalType": "uint256",
          "name": "tAmount",
          "type": "uint256"
        },
        {
          "internalType": "bool",
          "name": "deductTransferFee",
          "type": "bool"
        }
      ],
      "name": "reflectionFromToken",
      "outputs": [
        {
          "internalType": "uint256",
          "name": "",
          "type": "uint256"
        }
      ],
      "stateMutability": "view",
      "type": "function"
    },
    {
      "inputs": [],
      "name": "renounceOwnership",
      "outputs": [],
      "stateMutability": "nonpayable",
      "type": "function"
    },
    {
      "inputs": [],
      "name": "symbol",
      "outputs": [
        {
          "internalType": "string",
          "name": "",
          "type": "string"
        }
      ],
      "stateMutability": "view",
      "type": "function"
    },
    {
      "inputs": [
        {
          "internalType": "uint256",
          "name": "rAmount",
          "type": "uint256"
        }
      ],
      "name": "tokenFromReflection",
      "outputs": [
        {
          "internalType": "uint256",
          "name": "",
          "type": "uint256"
        }
      ],
      "stateMutability": "view",
      "type": "function"
    },
    {
      "inputs": [],
      "name": "totalFees",
      "outputs": [
        {
          "internalType": "uint256",
          "name": "",
          "type": "uint256"
        }
      ],
      "stateMutability": "view",
      "type": "function"
    },
    {
      "inputs": [],
      "name": "totalSupply",
      "outputs": [
        {
          "internalType": "uint256",
          "name": "",
          "type": "uint256"
        }
      ],
      "stateMutability": "pure",
      "type": "function"
    },
    {
      "inputs": [
        {
          "internalType": "address",
          "name": "recipient",
          "type": "address"
        },
        {
          "internalType": "uint256",
          "name": "amount",
          "type": "uint256"
        }
      ],
      "name": "transfer",
      "outputs": [
        {
          "internalType": "bool",
          "name": "",
          "type": "bool"
        }
      ],
      "stateMutability": "nonpayable",
      "type": "function"
    },
    {
      "inputs": [
        {
          "internalType": "address",
          "name": "sender",
          "type": "address"
        },
        {
          "internalType": "address",
          "name": "recipient",
          "type": "address"
        },
        {
          "internalType": "uint256",
          "name": "amount",
          "type": "uint256"
        }
      ],
      "name": "transferFrom",
      "outputs": [
        {
          "internalType": "bool",
          "name": "",
          "type": "bool"
        }
      ],
      "stateMutability": "nonpayable",
      "type": "function"
    },
    {
      "inputs": [
        {
          "internalType": "address",
          "name": "newOwner",
          "type": "address"
        }
      ],
      "name": "transferOwnership",
      "outputs": [],
      "stateMutability": "nonpayable",
      "type": "function"
    }
  ],
  "bytecode": "0x60806040526200001d6a52b7d2dcc80cd2e4000000600019620002b8565b6200002b9060001962000257565b60065560408051808201909152600980825268426c7565626572727960b81b60209092019182526200006091600891620001a8565b5060408051808201909152600980825268426c7565626572727960b81b6020909201918252620000919181620001a8565b50600a805460ff19166009179055348015620000ac57600080fd5b50620000c1620000bb62000154565b62000158565b60065460016000620000d262000154565b6001600160a01b03168152602081019190915260400160002055620000f662000154565b6001600160a01b031660006001600160a01b03167fddf252ad1be2c89b69c2b068fc378daa952ba7f163c4a11628f55a4df523b3ef6a52b7d2dcc80cd2e40000006040516200014691906200024e565b60405180910390a3620002d9565b3390565b600080546001600160a01b038381166001600160a01b0319831681178455604051919092169283917f8be0079c531659141344cd1fd0a4f28419497f9722a3daafe3b4186f6b6457e09190a35050565b828054620001b6906200027b565b90600052602060002090601f016020900481019282620001da576000855562000225565b82601f10620001f557805160ff191683800117855562000225565b8280016001018555821562000225579182015b828111156200022557825182559160200191906001019062000208565b506200023392915062000237565b5090565b5b8082111562000233576000815560010162000238565b90815260200190565b6000828210156200027657634e487b7160e01b81526011600452602481fd5b500390565b6002810460018216806200029057607f821691505b60208210811415620002b257634e487b7160e01b600052602260045260246000fd5b50919050565b600082620002d457634e487b7160e01b81526012600452602481fd5b500690565b611a5c80620002e96000396000f3fe608060405234801561001057600080fd5b50600436106101775760003560e01c806370a08231116100d8578063a9059cbb1161008c578063f2cc0c1811610066578063f2cc0c18146102d1578063f2fde38b146102e4578063f84354f1146102f757610177565b8063a9059cbb14610298578063cba0e996146102ab578063dd62ed3e146102be57610177565b80638da5cb5b116100bd5780638da5cb5b1461026857806395d89b411461027d578063a457c2d71461028557610177565b806370a082311461024d578063715018a61461026057610177565b806323b872dd1161012f578063313ce56711610114578063313ce5671461021257806339509351146102275780634549b0391461023a57610177565b806323b872dd146101ec5780632d838119146101ff57610177565b8063095ea7b311610160578063095ea7b3146101af57806313114a9d146101cf57806318160ddd146101e457610177565b8063053ab1821461017c57806306fdde0314610191575b600080fd5b61018f61018a3660046114a0565b61030a565b005b6101996103cc565b6040516101a6919061150a565b60405180910390f35b6101c26101bd366004611477565b61045e565b6040516101a691906114ff565b6101d761047c565b6040516101a691906118e8565b6101d7610482565b6101c26101fa36600461143c565b610491565b6101d761020d3660046114a0565b610518565b61021a61055b565b6040516101a691906118f1565b6101c2610235366004611477565b610564565b6101d76102483660046114b8565b6105b2565b6101d761025b3660046113f0565b610616565b61018f610678565b6102706106c3565b6040516101a691906114eb565b6101996106d2565b6101c2610293366004611477565b6106e1565b6101c26102a6366004611477565b610749565b6101c26102b93660046113f0565b61075d565b6101d76102cc36600461140a565b61077b565b61018f6102df3660046113f0565b6107a6565b61018f6102f23660046113f0565b6108eb565b61018f6103053660046113f0565b61095c565b6000610314610b4b565b6001600160a01b03811660009081526004602052604090205490915060ff16156103595760405162461bcd60e51b81526004016103509061188b565b60405180910390fd5b600061036483610b4f565b505050506001600160a01b03831660009081526001602052604090205490915061038e9082610b9b565b6001600160a01b0383166000908152600160205260409020556006546103b49082610b9b565b6006556007546103c49084610bae565b600755505050565b6060600880546103db9061196d565b80601f01602080910402602001604051908101604052809291908181526020018280546104079061196d565b80156104545780601f1061042957610100808354040283529160200191610454565b820191906000526020600020905b81548152906001019060200180831161043757829003601f168201915b5050505050905090565b600061047261046b610b4b565b8484610bba565b5060015b92915050565b60075490565b6a52b7d2dcc80cd2e400000090565b600061049e848484610c6e565b61050e846104aa610b4b565b610509856040518060600160405280602881526020016119da602891396001600160a01b038a166000908152600360205260408120906104e8610b4b565b6001600160a01b031681526020810191909152604001600020549190610e33565b610bba565b5060019392505050565b600060065482111561053c5760405162461bcd60e51b8152600401610350906115ba565b6000610546610e5f565b90506105528382610e82565b9150505b919050565b600a5460ff1690565b6000610472610571610b4b565b846105098560036000610582610b4b565b6001600160a01b03908116825260208083019390935260409182016000908120918c168152925290205490610bae565b60006a52b7d2dcc80cd2e40000008311156105df5760405162461bcd60e51b815260040161035090611708565b816105fd5760006105ef84610b4f565b509294506104769350505050565b600061060884610b4f565b509194506104769350505050565b6001600160a01b03811660009081526004602052604081205460ff161561065657506001600160a01b038116600090815260026020526040902054610556565b6001600160a01b03821660009081526001602052604090205461047690610518565b610680610b4b565b6001600160a01b03166106916106c3565b6001600160a01b0316146106b75760405162461bcd60e51b81526004016103509061173f565b6106c16000610e8e565b565b6000546001600160a01b031690565b6060600980546103db9061196d565b60006104726106ee610b4b565b8461050985604051806060016040528060258152602001611a026025913960036000610718610b4b565b6001600160a01b03908116825260208083019390935260409182016000908120918d16815292529020549190610e33565b6000610472610756610b4b565b8484610c6e565b6001600160a01b031660009081526004602052604090205460ff1690565b6001600160a01b03918216600090815260036020908152604080832093909416825291909152205490565b6107ae610b4b565b6001600160a01b03166107bf6106c3565b6001600160a01b0316146107e55760405162461bcd60e51b81526004016103509061173f565b6001600160a01b03811660009081526004602052604090205460ff161561081e5760405162461bcd60e51b8152600401610350906116d1565b6001600160a01b03811660009081526001602052604090205415610878576001600160a01b03811660009081526001602052604090205461085e90610518565b6001600160a01b0382166000908152600260205260409020555b6001600160a01b03166000818152600460205260408120805460ff191660019081179091556005805491820181559091527f036b6384b5eca791c62761152d0c79bb0604c104a5fb6f4eb0703f3154bb3db001805473ffffffffffffffffffffffffffffffffffffffff19169091179055565b6108f3610b4b565b6001600160a01b03166109046106c3565b6001600160a01b03161461092a5760405162461bcd60e51b81526004016103509061173f565b6001600160a01b0381166109505760405162461bcd60e51b815260040161035090611617565b61095981610e8e565b50565b610964610b4b565b6001600160a01b03166109756106c3565b6001600160a01b03161461099b5760405162461bcd60e51b81526004016103509061173f565b6001600160a01b03811660009081526004602052604090205460ff166109d35760405162461bcd60e51b8152600401610350906116d1565b60005b600554811015610b4757816001600160a01b031660058281548110610a0b57634e487b7160e01b600052603260045260246000fd5b6000918252602090912001546001600160a01b03161415610b355760058054610a3690600190611956565b81548110610a5457634e487b7160e01b600052603260045260246000fd5b600091825260209091200154600580546001600160a01b039092169183908110610a8e57634e487b7160e01b600052603260045260246000fd5b6000918252602080832091909101805473ffffffffffffffffffffffffffffffffffffffff19166001600160a01b039485161790559184168152600282526040808220829055600490925220805460ff191690556005805480610b0157634e487b7160e01b600052603160045260246000fd5b6000828152602090208101600019908101805473ffffffffffffffffffffffffffffffffffffffff19169055019055610b47565b80610b3f816119a8565b9150506109d6565b5050565b3390565b6000806000806000806000610b6388610eeb565b915091506000610b71610e5f565b90506000806000610b838c8686610f1e565b919e909d50909b509599509397509395505050505050565b6000610ba78284611956565b9392505050565b6000610ba782846118ff565b6001600160a01b038316610be05760405162461bcd60e51b81526004016103509061182e565b6001600160a01b038216610c065760405162461bcd60e51b815260040161035090611674565b6001600160a01b0380841660008181526003602090815260408083209487168084529490915290819020849055517f8c5be1e5ebec7d5bd14f71427d1e84f3dd0314c0f7b2291e5b200ac8c7c3b92590610c619085906118e8565b60405180910390a3505050565b6001600160a01b038316610c945760405162461bcd60e51b8152600401610350906117d1565b6001600160a01b038216610cba5760405162461bcd60e51b81526004016103509061155d565b60008111610cda5760405162461bcd60e51b815260040161035090611774565b6001600160a01b03831660009081526004602052604090205460ff168015610d1b57506001600160a01b03821660009081526004602052604090205460ff16155b15610d3057610d2b838383610f5a565b610e2e565b6001600160a01b03831660009081526004602052604090205460ff16158015610d7157506001600160a01b03821660009081526004602052604090205460ff165b15610d8157610d2b838383611071565b6001600160a01b03831660009081526004602052604090205460ff16158015610dc357506001600160a01b03821660009081526004602052604090205460ff16155b15610dd357610d2b838383611117565b6001600160a01b03831660009081526004602052604090205460ff168015610e1357506001600160a01b03821660009081526004602052604090205460ff165b15610e2357610d2b838383611158565b610e2e838383611117565b505050565b60008184841115610e575760405162461bcd60e51b8152600401610350919061150a565b505050900390565b6000806000610e6c6111c8565b9092509050610e7b8282610e82565b9250505090565b6000610ba78284611917565b600080546001600160a01b0383811673ffffffffffffffffffffffffffffffffffffffff19831681178455604051919092169283917f8be0079c531659141344cd1fd0a4f28419497f9722a3daafe3b4186f6b6457e09190a35050565b60008080610f05600a610eff866064610e82565b906113a9565b90506000610f138583610b9b565b935090915050915091565b6000808080610f2d87866113a9565b90506000610f3b87876113a9565b90506000610f498383610b9b565b929992985090965090945050505050565b6000806000806000610f6b86610b4f565b6001600160a01b038d1660009081526002602052604090205494995092975090955093509150610f9b9087610b9b565b6001600160a01b038916600090815260026020908152604080832093909355600190522054610fca9086610b9b565b6001600160a01b03808a166000908152600160205260408082209390935590891681522054610ff99085610bae565b6001600160a01b03881660009081526001602052604090205561101c83826113b5565b866001600160a01b0316886001600160a01b03167fddf252ad1be2c89b69c2b068fc378daa952ba7f163c4a11628f55a4df523b3ef8460405161105f91906118e8565b60405180910390a35050505050505050565b600080600080600061108286610b4f565b6001600160a01b038d16600090815260016020526040902054949950929750909550935091506110b29086610b9b565b6001600160a01b03808a16600090815260016020908152604080832094909455918a168152600290915220546110e89083610bae565b6001600160a01b038816600090815260026020908152604080832093909355600190522054610ff99085610bae565b600080600080600061112886610b4f565b6001600160a01b038d1660009081526001602052604090205494995092975090955093509150610fca9086610b9b565b600080600080600061116986610b4f565b6001600160a01b038d16600090815260026020526040902054949950929750909550935091506111999087610b9b565b6001600160a01b0389166000908152600260209081526040808320939093556001905220546110b29086610b9b565b60065460009081906a52b7d2dcc80cd2e4000000825b6005548110156113655782600160006005848154811061120e57634e487b7160e01b600052603260045260246000fd5b60009182526020808320909101546001600160a01b031683528201929092526040019020541180611287575081600260006005848154811061126057634e487b7160e01b600052603260045260246000fd5b60009182526020808320909101546001600160a01b03168352820192909252604001902054115b156112a7576006546a52b7d2dcc80cd2e4000000945094505050506113a5565b6112fb60016000600584815481106112cf57634e487b7160e01b600052603260045260246000fd5b60009182526020808320909101546001600160a01b031683528201929092526040019020548490610b9b565b9250611351600260006005848154811061132557634e487b7160e01b600052603260045260246000fd5b60009182526020808320909101546001600160a01b031683528201929092526040019020548390610b9b565b91508061135d816119a8565b9150506111de565b5060065461137e906a52b7d2dcc80cd2e4000000610e82565b82101561139f576006546a52b7d2dcc80cd2e40000009350935050506113a5565b90925090505b9091565b6000610ba78284611937565b6006546113c29083610b9b565b6006556007546113d29082610bae565b6007555050565b80356001600160a01b038116811461055657600080fd5b600060208284031215611401578081fd5b610ba7826113d9565b6000806040838503121561141c578081fd5b611425836113d9565b9150611433602084016113d9565b90509250929050565b600080600060608486031215611450578081fd5b611459846113d9565b9250611467602085016113d9565b9150604084013590509250925092565b60008060408385031215611489578182fd5b611492836113d9565b946020939093013593505050565b6000602082840312156114b1578081fd5b5035919050565b600080604083850312156114ca578182fd5b82359150602083013580151581146114e0578182fd5b809150509250929050565b6001600160a01b0391909116815260200190565b901515815260200190565b6000602080835283518082850152825b818110156115365785810183015185820160400152820161151a565b818111156115475783604083870101525b50601f01601f1916929092016040019392505050565b60208082526023908201527f45524332303a207472616e7366657220746f20746865207a65726f206164647260408201527f6573730000000000000000000000000000000000000000000000000000000000606082015260800190565b6020808252602a908201527f416d6f756e74206d757374206265206c657373207468616e20746f74616c207260408201527f65666c656374696f6e7300000000000000000000000000000000000000000000606082015260800190565b60208082526026908201527f4f776e61626c653a206e6577206f776e657220697320746865207a65726f206160408201527f6464726573730000000000000000000000000000000000000000000000000000606082015260800190565b60208082526022908201527f45524332303a20617070726f766520746f20746865207a65726f20616464726560408201527f7373000000000000000000000000000000000000000000000000000000000000606082015260800190565b6020808252601b908201527f4163636f756e7420697320616c7265616479206578636c756465640000000000604082015260600190565b6020808252601f908201527f416d6f756e74206d757374206265206c657373207468616e20737570706c7900604082015260600190565b6020808252818101527f4f776e61626c653a2063616c6c6572206973206e6f7420746865206f776e6572604082015260600190565b60208082526029908201527f5472616e7366657220616d6f756e74206d75737420626520677265617465722060408201527f7468616e207a65726f0000000000000000000000000000000000000000000000606082015260800190565b60208082526025908201527f45524332303a207472616e736665722066726f6d20746865207a65726f20616460408201527f6472657373000000000000000000000000000000000000000000000000000000606082015260800190565b60208082526024908201527f45524332303a20617070726f76652066726f6d20746865207a65726f2061646460408201527f7265737300000000000000000000000000000000000000000000000000000000606082015260800190565b6020808252602c908201527f4578636c75646564206164647265737365732063616e6e6f742063616c6c207460408201527f6869732066756e6374696f6e0000000000000000000000000000000000000000606082015260800190565b90815260200190565b60ff91909116815260200190565b60008219821115611912576119126119c3565b500190565b60008261193257634e487b7160e01b81526012600452602481fd5b500490565b6000816000190483118215151615611951576119516119c3565b500290565b600082821015611968576119686119c3565b500390565b60028104600182168061198157607f821691505b602082108114156119a257634e487b7160e01b600052602260045260246000fd5b50919050565b60006000198214156119bc576119bc6119c3565b5060010190565b634e487b7160e01b600052601160045260246000fdfe45524332303a207472616e7366657220616d6f756e74206578636565647320616c6c6f77616e636545524332303a2064656372656173656420616c6c6f77616e63652062656c6f77207a65726fa2646970667358221220d9a54d9769dd495e5c9c7fb8242b7360626db6cedaa329d254d5ee1f2531beea64736f6c63430008000033",
  "linkReferences": {},
  "deployedLinkReferences": {}
}