{
  "_format": "hh-sol-artifact-1",
  "contractName": "Ownable",
  "sourceName": "src/contracts/Token4.sol",
  "abi": [
    {
      "inputs": [],
      "stateMutability": "nonpayable",
      "type": "constructor"
    },
    {
      "anonymous": false,
      "inputs": [
        {
          "indexed": true,
          "internalType": "address",
          "name": "previousOwner",
          "type": "address"
        },
        {
          "indexed": true,
          "internalType": "address",
          "name": "newOwner",
          "type": "address"
        }
      ],
      "name": "OwnershipTransferred",
      "type": "event"
    },
    {
      "inputs": [],
      "name": "geUnlockTime",
      "outputs": [
        {
          "internalType": "uint256",
          "name": "",
          "type": "uint256"
        }
      ],
      "stateMutability": "view",
      "type": "function"
    },
    {
      "inputs": [
        {
          "internalType": "uint256",
          "name": "time",
          "type": "uint256"
        }
      ],
      "name": "lock",
      "outputs": [],
      "stateMutability": "nonpayable",
      "type": "function"
    },
    {
      "inputs": [],
      "name": "owner",
      "outputs": [
        {
          "internalType": "address",
          "name": "",
          "type": "address"
        }
      ],
      "stateMutability": "view",
      "type": "function"
    },
    {
      "inputs": [],
      "name": "renounceOwnership",
      "outputs": [],
      "stateMutability": "nonpayable",
      "type": "function"
    },
    {
      "inputs": [
        {
          "internalType": "address",
          "name": "newOwner",
          "type": "address"
        }
      ],
      "name": "transferOwnership",
      "outputs": [],
      "stateMutability": "nonpayable",
      "type": "function"
    },
    {
      "inputs": [],
      "name": "unlock",
      "outputs": [],
      "stateMutability": "nonpayable",
      "type": "function"
    }
  ],
  "bytecode": "0x608060405234801561001057600080fd5b50600061001b61006a565b600080546001600160a01b0319166001600160a01b0383169081178255604051929350917f8be0079c531659141344cd1fd0a4f28419497f9722a3daafe3b4186f6b6457e0908290a35061006e565b3390565b6105b78061007d6000396000f3fe608060405234801561001057600080fd5b50600436106100725760003560e01c8063b6c5232411610050578063b6c52324146100a7578063dd467064146100bc578063f2fde38b146100cf57610072565b8063715018a6146100775780638da5cb5b14610081578063a69df4b51461009f575b600080fd5b61007f6100e2565b005b610089610177565b6040516100969190610401565b60405180910390f35b61007f610186565b6100af61023f565b604051610096919061053b565b61007f6100ca3660046103e9565b610245565b61007f6100dd3660046103bb565b6102f4565b6100ea6103b7565b6000546001600160a01b039081169116146101205760405162461bcd60e51b815260040161011790610472565b60405180910390fd5b600080546040516001600160a01b03909116907f8be0079c531659141344cd1fd0a4f28419497f9722a3daafe3b4186f6b6457e0908390a36000805473ffffffffffffffffffffffffffffffffffffffff19169055565b6000546001600160a01b031690565b6001546001600160a01b031633146101b05760405162461bcd60e51b8152600401610117906104de565b60025442116101d15760405162461bcd60e51b8152600401610117906104a7565b600154600080546040516001600160a01b0393841693909116917f8be0079c531659141344cd1fd0a4f28419497f9722a3daafe3b4186f6b6457e091a36001546000805473ffffffffffffffffffffffffffffffffffffffff19166001600160a01b03909216919091179055565b60025490565b61024d6103b7565b6000546001600160a01b0390811691161461027a5760405162461bcd60e51b815260040161011790610472565b600080546001805473ffffffffffffffffffffffffffffffffffffffff199081166001600160a01b038416179091551690556102b68142610544565b600255600080546040516001600160a01b03909116907f8be0079c531659141344cd1fd0a4f28419497f9722a3daafe3b4186f6b6457e0908390a350565b6102fc6103b7565b6000546001600160a01b039081169116146103295760405162461bcd60e51b815260040161011790610472565b6001600160a01b03811661034f5760405162461bcd60e51b815260040161011790610415565b600080546040516001600160a01b03808516939216917f8be0079c531659141344cd1fd0a4f28419497f9722a3daafe3b4186f6b6457e091a36000805473ffffffffffffffffffffffffffffffffffffffff19166001600160a01b0392909216919091179055565b3390565b6000602082840312156103cc578081fd5b81356001600160a01b03811681146103e2578182fd5b9392505050565b6000602082840312156103fa578081fd5b5035919050565b6001600160a01b0391909116815260200190565b60208082526026908201527f4f776e61626c653a206e6577206f776e657220697320746865207a65726f206160408201527f6464726573730000000000000000000000000000000000000000000000000000606082015260800190565b6020808252818101527f4f776e61626c653a2063616c6c6572206973206e6f7420746865206f776e6572604082015260600190565b6020808252601f908201527f436f6e7472616374206973206c6f636b656420756e74696c2037206461797300604082015260600190565b60208082526023908201527f596f7520646f6e27742068617665207065726d697373696f6e20746f20756e6c60408201527f6f636b0000000000000000000000000000000000000000000000000000000000606082015260800190565b90815260200190565b6000821982111561057c577f4e487b710000000000000000000000000000000000000000000000000000000081526011600452602481fd5b50019056fea2646970667358221220e88fd9aa976051ef8ac0daba2dd0d644cfd164c472a610c7f589d73d2b965b0d64736f6c63430008000033",
  "linkReferences": {},
  "deployedLinkReferences": {}
}