{
  "_format": "hh-sol-artifact-1",
  "contractName": "Token4",
  "sourceName": "src/contracts/Token4.sol",
  "abi": [
    {
      "inputs": [],
      "stateMutability": "nonpayable",
      "type": "constructor"
    },
    {
      "anonymous": false,
      "inputs": [
        {
          "indexed": false,
          "internalType": "uint256",
          "name": "amountA",
          "type": "uint256"
        },
        {
          "indexed": false,
          "internalType": "uint256",
          "name": "amountB",
          "type": "uint256"
        },
        {
          "indexed": false,
          "internalType": "uint256",
          "name": "liquidity",
          "type": "uint256"
        }
      ],
      "name": "AddLiquidityETH",
      "type": "event"
    },
    {
      "anonymous": false,
      "inputs": [
        {
          "indexed": true,
          "internalType": "address",
          "name": "owner",
          "type": "address"
        },
        {
          "indexed": true,
          "internalType": "address",
          "name": "spender",
          "type": "address"
        },
        {
          "indexed": false,
          "internalType": "uint256",
          "name": "value",
          "type": "uint256"
        }
      ],
      "name": "Approval",
      "type": "event"
    },
    {
      "anonymous": false,
      "inputs": [
        {
          "indexed": false,
          "internalType": "uint256",
          "name": "minTokensBeforeSwap",
          "type": "uint256"
        }
      ],
      "name": "MinTokensBeforeSwapUpdated",
      "type": "event"
    },
    {
      "anonymous": false,
      "inputs": [
        {
          "indexed": true,
          "internalType": "address",
          "name": "previousOwner",
          "type": "address"
        },
        {
          "indexed": true,
          "internalType": "address",
          "name": "newOwner",
          "type": "address"
        }
      ],
      "name": "OwnershipTransferred",
      "type": "event"
    },
    {
      "anonymous": false,
      "inputs": [
        {
          "indexed": false,
          "internalType": "uint256",
          "name": "tokensSwapped",
          "type": "uint256"
        },
        {
          "indexed": false,
          "internalType": "uint256",
          "name": "ethReceived",
          "type": "uint256"
        },
        {
          "indexed": false,
          "internalType": "uint256",
          "name": "tokensIntoLiquidity",
          "type": "uint256"
        }
      ],
      "name": "SwapAndLiquify",
      "type": "event"
    },
    {
      "anonymous": false,
      "inputs": [
        {
          "indexed": false,
          "internalType": "bool",
          "name": "enabled",
          "type": "bool"
        }
      ],
      "name": "SwapAndLiquifyEnabledUpdated",
      "type": "event"
    },
    {
      "anonymous": false,
      "inputs": [
        {
          "indexed": true,
          "internalType": "address",
          "name": "from",
          "type": "address"
        },
        {
          "indexed": true,
          "internalType": "address",
          "name": "to",
          "type": "address"
        },
        {
          "indexed": false,
          "internalType": "uint256",
          "name": "value",
          "type": "uint256"
        }
      ],
      "name": "Transfer",
      "type": "event"
    },
    {
      "inputs": [],
      "name": "_devFee",
      "outputs": [
        {
          "internalType": "uint256",
          "name": "",
          "type": "uint256"
        }
      ],
      "stateMutability": "view",
      "type": "function"
    },
    {
      "inputs": [],
      "name": "_liquidityFee",
      "outputs": [
        {
          "internalType": "uint256",
          "name": "",
          "type": "uint256"
        }
      ],
      "stateMutability": "view",
      "type": "function"
    },
    {
      "inputs": [],
      "name": "_maxTxAmount",
      "outputs": [
        {
          "internalType": "uint256",
          "name": "",
          "type": "uint256"
        }
      ],
      "stateMutability": "view",
      "type": "function"
    },
    {
      "inputs": [],
      "name": "_taxFee",
      "outputs": [
        {
          "internalType": "uint256",
          "name": "",
          "type": "uint256"
        }
      ],
      "stateMutability": "view",
      "type": "function"
    },
    {
      "inputs": [
        {
          "internalType": "address",
          "name": "owner",
          "type": "address"
        },
        {
          "internalType": "address",
          "name": "spender",
          "type": "address"
        }
      ],
      "name": "allowance",
      "outputs": [
        {
          "internalType": "uint256",
          "name": "",
          "type": "uint256"
        }
      ],
      "stateMutability": "view",
      "type": "function"
    },
    {
      "inputs": [
        {
          "internalType": "address",
          "name": "spender",
          "type": "address"
        },
        {
          "internalType": "uint256",
          "name": "amount",
          "type": "uint256"
        }
      ],
      "name": "approve",
      "outputs": [
        {
          "internalType": "bool",
          "name": "",
          "type": "bool"
        }
      ],
      "stateMutability": "nonpayable",
      "type": "function"
    },
    {
      "inputs": [
        {
          "internalType": "address",
          "name": "account",
          "type": "address"
        }
      ],
      "name": "balanceOf",
      "outputs": [
        {
          "internalType": "uint256",
          "name": "",
          "type": "uint256"
        }
      ],
      "stateMutability": "view",
      "type": "function"
    },
    {
      "inputs": [
        {
          "internalType": "uint256",
          "name": "amount",
          "type": "uint256"
        }
      ],
      "name": "buyCoinWithLeftoverBNB",
      "outputs": [],
      "stateMutability": "nonpayable",
      "type": "function"
    },
    {
      "inputs": [],
      "name": "decimals",
      "outputs": [
        {
          "internalType": "uint8",
          "name": "",
          "type": "uint8"
        }
      ],
      "stateMutability": "pure",
      "type": "function"
    },
    {
      "inputs": [
        {
          "internalType": "address",
          "name": "spender",
          "type": "address"
        },
        {
          "internalType": "uint256",
          "name": "subtractedValue",
          "type": "uint256"
        }
      ],
      "name": "decreaseAllowance",
      "outputs": [
        {
          "internalType": "bool",
          "name": "",
          "type": "bool"
        }
      ],
      "stateMutability": "nonpayable",
      "type": "function"
    },
    {
      "inputs": [
        {
          "internalType": "address",
          "name": "account",
          "type": "address"
        }
      ],
      "name": "excludeFromFee",
      "outputs": [],
      "stateMutability": "nonpayable",
      "type": "function"
    },
    {
      "inputs": [
        {
          "internalType": "address",
          "name": "account",
          "type": "address"
        }
      ],
      "name": "excludeFromReward",
      "outputs": [],
      "stateMutability": "nonpayable",
      "type": "function"
    },
    {
      "inputs": [],
      "name": "geUnlockTime",
      "outputs": [
        {
          "internalType": "uint256",
          "name": "",
          "type": "uint256"
        }
      ],
      "stateMutability": "view",
      "type": "function"
    },
    {
      "inputs": [],
      "name": "getMaxTxAmount",
      "outputs": [
        {
          "internalType": "uint256",
          "name": "",
          "type": "uint256"
        }
      ],
      "stateMutability": "view",
      "type": "function"
    },
    {
      "inputs": [
        {
          "internalType": "address",
          "name": "account",
          "type": "address"
        }
      ],
      "name": "includeInFee",
      "outputs": [],
      "stateMutability": "nonpayable",
      "type": "function"
    },
    {
      "inputs": [
        {
          "internalType": "address",
          "name": "account",
          "type": "address"
        }
      ],
      "name": "includeInReward",
      "outputs": [],
      "stateMutability": "nonpayable",
      "type": "function"
    },
    {
      "inputs": [
        {
          "internalType": "address",
          "name": "spender",
          "type": "address"
        },
        {
          "internalType": "uint256",
          "name": "addedValue",
          "type": "uint256"
        }
      ],
      "name": "increaseAllowance",
      "outputs": [
        {
          "internalType": "bool",
          "name": "",
          "type": "bool"
        }
      ],
      "stateMutability": "nonpayable",
      "type": "function"
    },
    {
      "inputs": [
        {
          "internalType": "address",
          "name": "account",
          "type": "address"
        }
      ],
      "name": "isExcludedFromFee",
      "outputs": [
        {
          "internalType": "bool",
          "name": "",
          "type": "bool"
        }
      ],
      "stateMutability": "view",
      "type": "function"
    },
    {
      "inputs": [
        {
          "internalType": "address",
          "name": "account",
          "type": "address"
        }
      ],
      "name": "isExcludedFromReward",
      "outputs": [
        {
          "internalType": "bool",
          "name": "",
          "type": "bool"
        }
      ],
      "stateMutability": "view",
      "type": "function"
    },
    {
      "inputs": [
        {
          "internalType": "uint256",
          "name": "time",
          "type": "uint256"
        }
      ],
      "name": "lock",
      "outputs": [],
      "stateMutability": "nonpayable",
      "type": "function"
    },
    {
      "inputs": [],
      "name": "name",
      "outputs": [
        {
          "internalType": "string",
          "name": "",
          "type": "string"
        }
      ],
      "stateMutability": "pure",
      "type": "function"
    },
    {
      "inputs": [],
      "name": "owner",
      "outputs": [
        {
          "internalType": "address",
          "name": "",
          "type": "address"
        }
      ],
      "stateMutability": "view",
      "type": "function"
    },
    {
      "inputs": [
        {
          "internalType": "uint256",
          "name": "tAmount",
          "type": "uint256"
        },
        {
          "internalType": "bool",
          "name": "deductTransferFee",
          "type": "bool"
        }
      ],
      "name": "reflectionFromToken",
      "outputs": [
        {
          "internalType": "uint256",
          "name": "",
          "type": "uint256"
        }
      ],
      "stateMutability": "view",
      "type": "function"
    },
    {
      "inputs": [],
      "name": "renounceOwnership",
      "outputs": [],
      "stateMutability": "nonpayable",
      "type": "function"
    },
    {
      "inputs": [
        {
          "internalType": "uint256",
          "name": "devFee",
          "type": "uint256"
        }
      ],
      "name": "setDevFeePercent",
      "outputs": [],
      "stateMutability": "nonpayable",
      "type": "function"
    },
    {
      "inputs": [
        {
          "internalType": "address payable",
          "name": "newWallet",
          "type": "address"
        }
      ],
      "name": "setDevWallet",
      "outputs": [],
      "stateMutability": "nonpayable",
      "type": "function"
    },
    {
      "inputs": [
        {
          "internalType": "uint256",
          "name": "liquidityFee",
          "type": "uint256"
        }
      ],
      "name": "setLiquidityFeePercent",
      "outputs": [],
      "stateMutability": "nonpayable",
      "type": "function"
    },
    {
      "inputs": [
        {
          "internalType": "uint256",
          "name": "maxTxPercent",
          "type": "uint256"
        }
      ],
      "name": "setMaxTxPercent",
      "outputs": [],
      "stateMutability": "nonpayable",
      "type": "function"
    },
    {
      "inputs": [
        {
          "internalType": "address",
          "name": "newRouter",
          "type": "address"
        }
      ],
      "name": "setRouterAddress",
      "outputs": [],
      "stateMutability": "nonpayable",
      "type": "function"
    },
    {
      "inputs": [
        {
          "internalType": "bool",
          "name": "_enabled",
          "type": "bool"
        }
      ],
      "name": "setSwapAndLiquifyEnabled",
      "outputs": [],
      "stateMutability": "nonpayable",
      "type": "function"
    },
    {
      "inputs": [
        {
          "internalType": "uint256",
          "name": "taxFee",
          "type": "uint256"
        }
      ],
      "name": "setTaxFeePercent",
      "outputs": [],
      "stateMutability": "nonpayable",
      "type": "function"
    },
    {
      "inputs": [],
      "name": "swapAndLiquifyEnabled",
      "outputs": [
        {
          "internalType": "bool",
          "name": "",
          "type": "bool"
        }
      ],
      "stateMutability": "view",
      "type": "function"
    },
    {
      "inputs": [],
      "name": "symbol",
      "outputs": [
        {
          "internalType": "string",
          "name": "",
          "type": "string"
        }
      ],
      "stateMutability": "pure",
      "type": "function"
    },
    {
      "inputs": [
        {
          "internalType": "uint256",
          "name": "rAmount",
          "type": "uint256"
        }
      ],
      "name": "tokenFromReflection",
      "outputs": [
        {
          "internalType": "uint256",
          "name": "",
          "type": "uint256"
        }
      ],
      "stateMutability": "view",
      "type": "function"
    },
    {
      "inputs": [],
      "name": "totalFees",
      "outputs": [
        {
          "internalType": "uint256",
          "name": "",
          "type": "uint256"
        }
      ],
      "stateMutability": "view",
      "type": "function"
    },
    {
      "inputs": [],
      "name": "totalSupply",
      "outputs": [
        {
          "internalType": "uint256",
          "name": "",
          "type": "uint256"
        }
      ],
      "stateMutability": "pure",
      "type": "function"
    },
    {
      "inputs": [
        {
          "internalType": "address",
          "name": "recipient",
          "type": "address"
        },
        {
          "internalType": "uint256",
          "name": "amount",
          "type": "uint256"
        }
      ],
      "name": "transfer",
      "outputs": [
        {
          "internalType": "bool",
          "name": "",
          "type": "bool"
        }
      ],
      "stateMutability": "nonpayable",
      "type": "function"
    },
    {
      "inputs": [
        {
          "internalType": "address",
          "name": "sender",
          "type": "address"
        },
        {
          "internalType": "address",
          "name": "recipient",
          "type": "address"
        },
        {
          "internalType": "uint256",
          "name": "amount",
          "type": "uint256"
        }
      ],
      "name": "transferFrom",
      "outputs": [
        {
          "internalType": "bool",
          "name": "",
          "type": "bool"
        }
      ],
      "stateMutability": "nonpayable",
      "type": "function"
    },
    {
      "inputs": [
        {
          "internalType": "address",
          "name": "newOwner",
          "type": "address"
        }
      ],
      "name": "transferOwnership",
      "outputs": [],
      "stateMutability": "nonpayable",
      "type": "function"
    },
    {
      "inputs": [],
      "name": "uniswapV2Pair",
      "outputs": [
        {
          "internalType": "address",
          "name": "",
          "type": "address"
        }
      ],
      "stateMutability": "view",
      "type": "function"
    },
    {
      "inputs": [],
      "name": "uniswapV2Router",
      "outputs": [
        {
          "internalType": "contract IUniswapV2Router02",
          "name": "",
          "type": "address"
        }
      ],
      "stateMutability": "view",
      "type": "function"
    },
    {
      "inputs": [],
      "name": "unlock",
      "outputs": [],
      "stateMutability": "nonpayable",
      "type": "function"
    },
    {
      "inputs": [],
      "name": "withdraw",
      "outputs": [],
      "stateMutability": "nonpayable",
      "type": "function"
    },
    {
      "stateMutability": "payable",
      "type": "receive"
    }
  ],
  "bytecode": "0x6080604052600980546001600160a01b031916730d9ab939dd25e2336731adec847579080ebd09d21790556200004269d3c21bcecceda100000060001962000430565b62000050906000196200040c565b600a556005600c819055600d556001600e819055600f55600460108190556011556013805460ff60a81b1916600160a81b17905569010f0cf064dd59200000601455681b1ae4d6e2ef500000601555348015620000ac57600080fd5b506000620000b9620003a6565b600080546001600160a01b0319166001600160a01b0383169081178255604051929350917f8be0079c531659141344cd1fd0a4f28419497f9722a3daafe3b4186f6b6457e0908290a350600a546003600062000114620003a6565b6001600160a01b03166001600160a01b03168152602001908152602001600020819055506000730165878a594ca255338adfa4d48449f69242eb8f9050806001600160a01b031663c45a01556040518163ffffffff1660e01b815260040160206040518083038186803b1580156200018b57600080fd5b505afa158015620001a0573d6000803e3d6000fd5b505050506040513d601f19601f82011682018060405250810190620001c69190620003b9565b6001600160a01b031663c9c6539630836001600160a01b031663ad5c46486040518163ffffffff1660e01b815260040160206040518083038186803b1580156200020f57600080fd5b505afa15801562000224573d6000803e3d6000fd5b505050506040513d601f19601f820116820180604052508101906200024a9190620003b9565b6040518363ffffffff1660e01b815260040162000269929190620003e9565b602060405180830381600087803b1580156200028457600080fd5b505af115801562000299573d6000803e3d6000fd5b505050506040513d601f19601f82011682018060405250810190620002bf9190620003b9565b601380546001600160a01b03199081166001600160a01b039384161790915560128054909116918316919091179055600160066000620002fe620003aa565b6001600160a01b0316815260208082019290925260409081016000908120805494151560ff19958616179055308152600690925290208054909116600117905562000348620003a6565b6001600160a01b031660006001600160a01b03167fddf252ad1be2c89b69c2b068fc378daa952ba7f163c4a11628f55a4df523b3ef69d3c21bcecceda100000060405162000397919062000403565b60405180910390a35062000451565b3390565b6000546001600160a01b031690565b600060208284031215620003cb578081fd5b81516001600160a01b0381168114620003e2578182fd5b9392505050565b6001600160a01b0392831681529116602082015260400190565b90815260200190565b6000828210156200042b57634e487b7160e01b81526011600452602481fd5b500390565b6000826200044c57634e487b7160e01b81526012600452602481fd5b500690565b6130ed80620004616000396000f3fe6080604052600436106102e05760003560e01c806352390c0211610184578063a457c2d7116100d6578063c49b9a801161008a578063dd62ed3e11610064578063dd62ed3e1461075d578063ea2f0b371461077d578063f2fde38b1461079d576102e7565b8063c49b9a80146106fd578063d543dbeb1461071d578063dd4670641461073d576102e7565b8063a9059cbb116100bb578063a9059cbb146106b3578063aa45026b146106d3578063b6c52324146106e8576102e7565b8063a457c2d71461067e578063a69df4b51461069e576102e7565b8063715018a6116101385780638da5cb5b116101125780638da5cb5b146106495780638ee88c531461065e57806395d89b411461030e576102e7565b8063715018a6146105ff5780637d1db4a51461061457806388f8202014610629576102e7565b80636bc87c3a116101695780636bc87c3a146105b55780636d8b0527146105ca57806370a08231146105df576102e7565b806352390c02146105755780635342acb414610595576102e7565b806332365f7e1161023d5780633ccfd60b116101f15780634549b039116101cb5780634549b0391461052b57806349bd5a5e1461054b5780634a74bb0214610560576102e7565b80633ccfd60b146104d657806341cb87fc146104eb578063437823ec1461050b576102e7565b8063379e291911610222578063379e29191461048157806339509351146104a15780633b124fe7146104c1576102e7565b806332365f7e146104415780633685d41914610461576102e7565b806318160ddd1161029457806323b872dd1161027957806323b872dd146103df5780632d838119146103ff578063313ce5671461041f576102e7565b806318160ddd146103aa5780631f53ac02146103bf576102e7565b8063095ea7b3116102c5578063095ea7b31461033957806313114a9d146103665780631694505e14610388576102e7565b8063061c82d0146102ec57806306fdde031461030e576102e7565b366102e757005b600080fd5b3480156102f857600080fd5b5061030c6103073660046128b4565b6107bd565b005b34801561031a57600080fd5b50610323610800565b60405161033091906129db565b60405180910390f35b34801561034557600080fd5b5061035961035436600461286f565b610837565b60405161033091906129d0565b34801561037257600080fd5b5061037b610855565b6040516103309190612f18565b34801561039457600080fd5b5061039d61085b565b6040516103309190612967565b3480156103b657600080fd5b5061037b61086a565b3480156103cb57600080fd5b5061030c6103da3660046127bf565b610878565b3480156103eb57600080fd5b506103596103fa36600461282f565b6108cf565b34801561040b57600080fd5b5061037b61041a3660046128b4565b610956565b34801561042b57600080fd5b50610434610999565b6040516103309190612fa8565b34801561044d57600080fd5b5061030c61045c3660046128b4565b61099e565b34801561046d57600080fd5b5061030c61047c3660046127bf565b610b7e565b34801561048d57600080fd5b5061030c61049c3660046128b4565b610d49565b3480156104ad57600080fd5b506103596104bc36600461286f565b610d83565b3480156104cd57600080fd5b5061037b610dd1565b3480156104e257600080fd5b5061030c610dd7565b3480156104f757600080fd5b5061030c6105063660046127bf565b610e4f565b34801561051757600080fd5b5061030c6105263660046127bf565b61101b565b34801561053757600080fd5b5061037b6105463660046128cc565b611074565b34801561055757600080fd5b5061039d6110db565b34801561056c57600080fd5b506103596110ea565b34801561058157600080fd5b5061030c6105903660046127bf565b6110fa565b3480156105a157600080fd5b506103596105b03660046127bf565b611228565b3480156105c157600080fd5b5061037b611246565b3480156105d657600080fd5b5061037b61124c565b3480156105eb57600080fd5b5061037b6105fa3660046127bf565b61128a565b34801561060b57600080fd5b5061030c6112ec565b34801561062057600080fd5b5061037b61136b565b34801561063557600080fd5b506103596106443660046127bf565b611371565b34801561065557600080fd5b5061039d61138f565b34801561066a57600080fd5b5061030c6106793660046128b4565b61139e565b34801561068a57600080fd5b5061035961069936600461286f565b6113d8565b3480156106aa57600080fd5b5061030c611440565b3480156106bf57600080fd5b506103596106ce36600461286f565b6114ec565b3480156106df57600080fd5b5061037b611500565b3480156106f457600080fd5b5061037b611506565b34801561070957600080fd5b5061030c61071836600461289a565b61150c565b34801561072957600080fd5b5061030c6107383660046128b4565b6115ae565b34801561074957600080fd5b5061030c6107583660046128b4565b611608565b34801561076957600080fd5b5061037b6107783660046127f7565b6116aa565b34801561078957600080fd5b5061030c6107983660046127bf565b6116d5565b3480156107a957600080fd5b5061030c6107b83660046127bf565b61172b565b6107c56117e1565b6000546001600160a01b039081169116146107fb5760405162461bcd60e51b81526004016107f290612d01565b60405180910390fd5b600c55565b60408051808201909152600681527f546f6b656e350000000000000000000000000000000000000000000000000000602082015290565b600061084b6108446117e1565b84846117e5565b5060015b92915050565b600b5490565b6012546001600160a01b031681565b69d3c21bcecceda100000090565b6108806117e1565b6000546001600160a01b039081169116146108ad5760405162461bcd60e51b81526004016107f290612d01565b600980546001600160a01b0319166001600160a01b0392909216919091179055565b60006108dc848484611899565b61094c846108e86117e1565b6109478560405180606001604052806028815260200161306b602891396001600160a01b038a166000908152600560205260408120906109266117e1565b6001600160a01b031681526020810191909152604001600020549190611a40565b6117e5565b5060019392505050565b6000600a5482111561097a5760405162461bcd60e51b81526004016107f290612ae8565b6000610984611a7a565b90506109908382611a9d565b9150505b919050565b600990565b6109a66117e1565b6000546001600160a01b039081169116146109d35760405162461bcd60e51b81526004016107f290612d01565b6040805160028082526060820183526000926020830190803683375050601254604080516315ab88c960e31b815290519394506001600160a01b039091169263ad5c464892506004808301926020929190829003018186803b158015610a3857600080fd5b505afa158015610a4c573d6000803e3d6000fd5b505050506040513d601f19601f82011682018060405250810190610a7091906127db565b81600081518110610a9157634e487b7160e01b600052603260045260246000fd5b60200260200101906001600160a01b031690816001600160a01b0316815250503081600181518110610ad357634e487b7160e01b600052603260045260246000fd5b6001600160a01b039283166020918202929092010152601254610af991309116846117e5565b6012546040517fb6f9de950000000000000000000000000000000000000000000000000000000081526001600160a01b039091169063b6f9de9590610b48908590859030904290600401612f21565b600060405180830381600087803b158015610b6257600080fd5b505af1158015610b76573d6000803e3d6000fd5b505050505050565b610b866117e1565b6000546001600160a01b03908116911614610bb35760405162461bcd60e51b81526004016107f290612d01565b6001600160a01b03811660009081526007602052604090205460ff16610beb5760405162461bcd60e51b81526004016107f290612ee1565b60005b600854811015610d4557816001600160a01b031660088281548110610c2357634e487b7160e01b600052603260045260246000fd5b6000918252602090912001546001600160a01b03161415610d335760088054610c4e9060019061300d565b81548110610c6c57634e487b7160e01b600052603260045260246000fd5b600091825260209091200154600880546001600160a01b039092169183908110610ca657634e487b7160e01b600052603260045260246000fd5b600091825260208083209190910180546001600160a01b0319166001600160a01b039485161790559184168152600482526040808220829055600790925220805460ff191690556008805480610d0c57634e487b7160e01b600052603160045260246000fd5b600082815260209020810160001990810180546001600160a01b0319169055019055610d45565b80610d3d81613024565b915050610bee565b5050565b610d516117e1565b6000546001600160a01b03908116911614610d7e5760405162461bcd60e51b81526004016107f290612d01565b600e55565b600061084b610d906117e1565b846109478560056000610da16117e1565b6001600160a01b03908116825260208083019390935260409182016000908120918c168152925290205490611ae6565b600c5481565b610ddf6117e1565b6000546001600160a01b03908116911614610e0c5760405162461bcd60e51b81526004016107f290612d01565b610e1461138f565b6001600160a01b03166108fc479081150290604051600060405180830381858888f19350505050158015610e4c573d6000803e3d6000fd5b50565b610e576117e1565b6000546001600160a01b03908116911614610e845760405162461bcd60e51b81526004016107f290612d01565b6000819050806001600160a01b031663c45a01556040518163ffffffff1660e01b815260040160206040518083038186803b158015610ec257600080fd5b505afa158015610ed6573d6000803e3d6000fd5b505050506040513d601f19601f82011682018060405250810190610efa91906127db565b6001600160a01b031663c9c6539630836001600160a01b031663ad5c46486040518163ffffffff1660e01b815260040160206040518083038186803b158015610f4257600080fd5b505afa158015610f56573d6000803e3d6000fd5b505050506040513d601f19601f82011682018060405250810190610f7a91906127db565b6040518363ffffffff1660e01b8152600401610f9792919061297b565b602060405180830381600087803b158015610fb157600080fd5b505af1158015610fc5573d6000803e3d6000fd5b505050506040513d601f19601f82011682018060405250810190610fe991906127db565b601380546001600160a01b039283166001600160a01b0319918216179091556012805493909216921691909117905550565b6110236117e1565b6000546001600160a01b039081169116146110505760405162461bcd60e51b81526004016107f290612d01565b6001600160a01b03166000908152600660205260409020805460ff19166001179055565b600069d3c21bcecceda10000008311156110a05760405162461bcd60e51b81526004016107f290612c10565b816110c05760006110b084611b15565b5094965061084f95505050505050565b60006110cb84611b15565b5093965061084f95505050505050565b6013546001600160a01b031681565b601354600160a81b900460ff1681565b6111026117e1565b6000546001600160a01b0390811691161461112f5760405162461bcd60e51b81526004016107f290612d01565b6001600160a01b03811660009081526007602052604090205460ff16156111685760405162461bcd60e51b81526004016107f290612bd9565b6001600160a01b038116600090815260036020526040902054156111c2576001600160a01b0381166000908152600360205260409020546111a890610956565b6001600160a01b0382166000908152600460205260409020555b6001600160a01b03166000818152600760205260408120805460ff191660019081179091556008805491820181559091527ff3f7a9fe364faab93b216da50a3214154f22a0a2b415b23a84c8169e8b636ee30180546001600160a01b0319169091179055565b6001600160a01b031660009081526006602052604090205460ff1690565b60105481565b60006112566117e1565b6000546001600160a01b039081169116146112835760405162461bcd60e51b81526004016107f290612d01565b5060145490565b6001600160a01b03811660009081526007602052604081205460ff16156112ca57506001600160a01b038116600090815260046020526040902054610994565b6001600160a01b03821660009081526003602052604090205461084f90610956565b6112f46117e1565b6000546001600160a01b039081169116146113215760405162461bcd60e51b81526004016107f290612d01565b600080546040516001600160a01b03909116907f8be0079c531659141344cd1fd0a4f28419497f9722a3daafe3b4186f6b6457e0908390a3600080546001600160a01b0319169055565b60145481565b6001600160a01b031660009081526007602052604090205460ff1690565b6000546001600160a01b031690565b6113a66117e1565b6000546001600160a01b039081169116146113d35760405162461bcd60e51b81526004016107f290612d01565b601055565b600061084b6113e56117e1565b8461094785604051806060016040528060258152602001613093602591396005600061140f6117e1565b6001600160a01b03908116825260208083019390935260409182016000908120918d16815292529020549190611a40565b6001546001600160a01b0316331461146a5760405162461bcd60e51b81526004016107f290612e84565b600254421161148b5760405162461bcd60e51b81526004016107f290612df0565b600154600080546040516001600160a01b0393841693909116917f8be0079c531659141344cd1fd0a4f28419497f9722a3daafe3b4186f6b6457e091a3600154600080546001600160a01b0319166001600160a01b03909216919091179055565b600061084b6114f96117e1565b8484611899565b600e5481565b60025490565b6115146117e1565b6000546001600160a01b039081169116146115415760405162461bcd60e51b81526004016107f290612d01565b601380547fffffffffffffffffffff00ffffffffffffffffffffffffffffffffffffffffff16600160a81b831515021790556040517f53726dfcaf90650aa7eb35524f4d3220f07413c8d6cb404cc8c18bf5591bc159906115a39083906129d0565b60405180910390a150565b6115b66117e1565b6000546001600160a01b039081169116146115e35760405162461bcd60e51b81526004016107f290612d01565b61160260646115fc69d3c21bcecceda100000084611b70565b90611a9d565b60145550565b6116106117e1565b6000546001600160a01b0390811691161461163d5760405162461bcd60e51b81526004016107f290612d01565b60008054600180546001600160a01b03199081166001600160a01b0384161790915516905561166c8142612fb6565b600255600080546040516001600160a01b03909116907f8be0079c531659141344cd1fd0a4f28419497f9722a3daafe3b4186f6b6457e0908390a350565b6001600160a01b03918216600090815260056020908152604080832093909416825291909152205490565b6116dd6117e1565b6000546001600160a01b0390811691161461170a5760405162461bcd60e51b81526004016107f290612d01565b6001600160a01b03166000908152600660205260409020805460ff19169055565b6117336117e1565b6000546001600160a01b039081169116146117605760405162461bcd60e51b81526004016107f290612d01565b6001600160a01b0381166117865760405162461bcd60e51b81526004016107f290612b45565b600080546040516001600160a01b03808516939216917f8be0079c531659141344cd1fd0a4f28419497f9722a3daafe3b4186f6b6457e091a3600080546001600160a01b0319166001600160a01b0392909216919091179055565b3390565b6001600160a01b03831661180b5760405162461bcd60e51b81526004016107f290612a8b565b6001600160a01b0382166118315760405162461bcd60e51b81526004016107f290612e27565b6001600160a01b0380841660008181526005602090815260408083209487168084529490915290819020849055517f8c5be1e5ebec7d5bd14f71427d1e84f3dd0314c0f7b2291e5b200ac8c7c3b9259061188c908590612f18565b60405180910390a3505050565b6001600160a01b0383166118bf5760405162461bcd60e51b81526004016107f290612a2e565b6001600160a01b0382166118e55760405162461bcd60e51b81526004016107f290612d93565b600081116119055760405162461bcd60e51b81526004016107f290612d36565b61190d61138f565b6001600160a01b0316836001600160a01b031614158015611947575061193161138f565b6001600160a01b0316826001600160a01b031614155b1561196e5760145481111561196e5760405162461bcd60e51b81526004016107f290612c47565b60006119793061128a565b9050601454811061198957506014545b601554811080159081906119a75750601354600160a01b900460ff16155b80156119c157506013546001600160a01b03868116911614155b80156119d65750601354600160a81b900460ff165b156119e95760155491506119e982611bb5565b6001600160a01b03851660009081526006602052604090205460019060ff1680611a2b57506001600160a01b03851660009081526006602052604090205460ff165b15611a34575060005b610b7686868684611c56565b60008184841115611a645760405162461bcd60e51b81526004016107f291906129db565b506000611a71848661300d565b95945050505050565b6000806000611a87611d78565b9092509050611a968282611a9d565b9250505090565b6000611adf83836040518060400160405280601a81526020017f536166654d6174683a206469766973696f6e206279207a65726f000000000000815250611f55565b9392505050565b600080611af38385612fb6565b905083811015611adf5760405162461bcd60e51b81526004016107f290612ba2565b6000806000806000806000806000806000611b2f8c611f83565b93509350935093506000806000611b508f878787611b4b611a7a565b611fd9565b919f509d509b509599509397509195509350505050919395979092949650565b600082611b7f5750600061084f565b6000611b8b8385612fee565b905082611b988583612fce565b14611adf5760405162461bcd60e51b81526004016107f290612ca4565b6013805460ff60a01b1916600160a01b1790556000611bd5826002611a9d565b90506000611be3838361203b565b905047611bef8361207d565b6000611bfb478361203b565b9050611c0783826121e5565b7f17bbfb9a6069321b6ded73bd96327c9e6b7212a5cd51ff219cd61370acafb561848285604051611c3a93929190612f92565b60405180910390a150506013805460ff60a01b19169055505050565b80611c6357611c636122ac565b6001600160a01b03841660009081526007602052604090205460ff168015611ca457506001600160a01b03831660009081526007602052604090205460ff16155b15611cb957611cb48484846122f5565b611d65565b6001600160a01b03841660009081526007602052604090205460ff16158015611cfa57506001600160a01b03831660009081526007602052604090205460ff165b15611d0a57611cb4848484612439565b6001600160a01b03841660009081526007602052604090205460ff168015611d4a57506001600160a01b03831660009081526007602052604090205460ff165b15611d5a57611cb48484846124f8565b611d65848484612581565b80611d7257611d726125db565b50505050565b600a54600090819069d3c21bcecceda1000000825b600854811015611f1357826003600060088481548110611dbd57634e487b7160e01b600052603260045260246000fd5b60009182526020808320909101546001600160a01b031683528201929092526040019020541180611e365750816004600060088481548110611e0f57634e487b7160e01b600052603260045260246000fd5b60009182526020808320909101546001600160a01b03168352820192909252604001902054115b15611e5557600a5469d3c21bcecceda100000094509450505050611f51565b611ea96003600060088481548110611e7d57634e487b7160e01b600052603260045260246000fd5b60009182526020808320909101546001600160a01b03168352820192909252604001902054849061203b565b9250611eff6004600060088481548110611ed357634e487b7160e01b600052603260045260246000fd5b60009182526020808320909101546001600160a01b03168352820192909252604001902054839061203b565b915080611f0b81613024565b915050611d8d565b50600a54611f2b9069d3c21bcecceda1000000611a9d565b821015611f4b57600a5469d3c21bcecceda1000000935093505050611f51565b90925090505b9091565b60008183611f765760405162461bcd60e51b81526004016107f291906129db565b506000611a718486612fce565b6000806000806000611f94866125ef565b90506000611fa18761260b565b90506000611fae88612627565b90506000611fc883611fc284818d8961203b565b9061203b565b975092955093509150509193509193565b6000808080611fe88986611b70565b90506000611ff68987611b70565b905060006120048988611b70565b905060006120128989611b70565b9050600061202682611fc28581898961203b565b949d949c50929a509298505050505050505050565b6000611adf83836040518060400160405280601e81526020017f536166654d6174683a207375627472616374696f6e206f766572666c6f770000815250611a40565b60408051600280825260608201835260009260208301908036833701905050905030816000815181106120c057634e487b7160e01b600052603260045260246000fd5b6001600160a01b03928316602091820292909201810191909152601254604080516315ab88c960e31b81529051919093169263ad5c4648926004808301939192829003018186803b15801561211457600080fd5b505afa158015612128573d6000803e3d6000fd5b505050506040513d601f19601f8201168201806040525081019061214c91906127db565b8160018151811061216d57634e487b7160e01b600052603260045260246000fd5b6001600160a01b03928316602091820292909201015260125461219391309116846117e5565b6012546040517f791ac9470000000000000000000000000000000000000000000000000000000081526001600160a01b039091169063791ac94790610b48908590600090869030904290600401612f56565b6012546121fd9030906001600160a01b0316846117e5565b6012546040517ff305d7190000000000000000000000000000000000000000000000000000000081526001600160a01b039091169063f305d7199083906122539030908790600090819084904290600401612995565b6060604051808303818588803b15801561226c57600080fd5b505af1158015612280573d6000803e3d6000fd5b50505050506040513d601f19601f820116820180604052508101906122a591906128f7565b5050505050565b600c541580156122bc5750601054155b80156122c85750600e54155b156122d2576122f3565b600c8054600d5560108054601155600e8054600f5560009283905590829055555b565b600080600080600080600061230988611b15565b965096509650965096509650965061234f88600460008d6001600160a01b03166001600160a01b031681526020019081526020016000205461203b90919063ffffffff16565b6001600160a01b038b1660009081526004602090815260408083209390935560039052205461237e908861203b565b6001600160a01b03808c1660009081526003602052604080822093909355908b16815220546123ad9087611ae6565b6001600160a01b038a166000908152600360205260409020556123cf82612643565b6123d8816126cc565b6123e2858461278b565b886001600160a01b03168a6001600160a01b03167fddf252ad1be2c89b69c2b068fc378daa952ba7f163c4a11628f55a4df523b3ef866040516124259190612f18565b60405180910390a350505050505050505050565b600080600080600080600061244d88611b15565b965096509650965096509650965061249387600360008d6001600160a01b03166001600160a01b031681526020019081526020016000205461203b90919063ffffffff16565b6001600160a01b03808c16600090815260036020908152604080832094909455918c168152600490915220546124c99085611ae6565b6001600160a01b038a166000908152600460209081526040808320939093556003905220546123ad9087611ae6565b600080600080600080600061250c88611b15565b965096509650965096509650965061255288600460008d6001600160a01b03166001600160a01b031681526020019081526020016000205461203b90919063ffffffff16565b6001600160a01b038b16600090815260046020908152604080832093909355600390522054612493908861203b565b600080600080600080600061259588611b15565b965096509650965096509650965061237e87600360008d6001600160a01b03166001600160a01b031681526020019081526020016000205461203b90919063ffffffff16565b600d54600c55601154601055600f54600e55565b600061084f60646115fc600c5485611b7090919063ffffffff16565b600061084f60646115fc600e5485611b7090919063ffffffff16565b600061084f60646115fc60105485611b7090919063ffffffff16565b600061264d611a7a565b9050600061265b8383611b70565b306000908152600360205260409020549091506126789082611ae6565b3060009081526003602090815260408083209390935560079052205460ff16156126c757306000908152600460205260409020546126b69084611ae6565b306000908152600460205260409020555b505050565b60006126d6611a7a565b905060006126e48383611b70565b6009546001600160a01b031660009081526003602052604090205490915061270c9082611ae6565b600980546001600160a01b03908116600090815260036020908152604080832095909555925490911681526007909152205460ff16156126c7576009546001600160a01b031660009081526004602052604090205461276b9084611ae6565b6009546001600160a01b0316600090815260046020526040902055505050565b600a54612798908361203b565b600a55600b546127a89082611ae6565b600b555050565b8035801515811461099457600080fd5b6000602082840312156127d0578081fd5b8135611adf81613055565b6000602082840312156127ec578081fd5b8151611adf81613055565b60008060408385031215612809578081fd5b823561281481613055565b9150602083013561282481613055565b809150509250929050565b600080600060608486031215612843578081fd5b833561284e81613055565b9250602084013561285e81613055565b929592945050506040919091013590565b60008060408385031215612881578182fd5b823561288c81613055565b946020939093013593505050565b6000602082840312156128ab578081fd5b611adf826127af565b6000602082840312156128c5578081fd5b5035919050565b600080604083850312156128de578182fd5b823591506128ee602084016127af565b90509250929050565b60008060006060848603121561290b578283fd5b8351925060208401519150604084015190509250925092565b6000815180845260208085019450808401835b8381101561295c5781516001600160a01b031687529582019590820190600101612937565b509495945050505050565b6001600160a01b0391909116815260200190565b6001600160a01b0392831681529116602082015260400190565b6001600160a01b039687168152602081019590955260408501939093526060840191909152909216608082015260a081019190915260c00190565b901515815260200190565b6000602080835283518082850152825b81811015612a07578581018301518582016040015282016129eb565b81811115612a185783604083870101525b50601f01601f1916929092016040019392505050565b60208082526025908201527f42455032303a207472616e736665722066726f6d20746865207a65726f20616460408201527f6472657373000000000000000000000000000000000000000000000000000000606082015260800190565b60208082526024908201527f42455032303a20617070726f76652066726f6d20746865207a65726f2061646460408201527f7265737300000000000000000000000000000000000000000000000000000000606082015260800190565b6020808252602a908201527f416d6f756e74206d757374206265206c657373207468616e20746f74616c207260408201527f65666c656374696f6e7300000000000000000000000000000000000000000000606082015260800190565b60208082526026908201527f4f776e61626c653a206e6577206f776e657220697320746865207a65726f206160408201527f6464726573730000000000000000000000000000000000000000000000000000606082015260800190565b6020808252601b908201527f536166654d6174683a206164646974696f6e206f766572666c6f770000000000604082015260600190565b6020808252601b908201527f4163636f756e7420697320616c7265616479206578636c756465640000000000604082015260600190565b6020808252601f908201527f416d6f756e74206d757374206265206c657373207468616e20737570706c7900604082015260600190565b60208082526028908201527f5472616e7366657220616d6f756e74206578636565647320746865206d61785460408201527f78416d6f756e742e000000000000000000000000000000000000000000000000606082015260800190565b60208082526021908201527f536166654d6174683a206d756c7469706c69636174696f6e206f766572666c6f60408201527f7700000000000000000000000000000000000000000000000000000000000000606082015260800190565b6020808252818101527f4f776e61626c653a2063616c6c6572206973206e6f7420746865206f776e6572604082015260600190565b60208082526029908201527f5472616e7366657220616d6f756e74206d75737420626520677265617465722060408201527f7468616e207a65726f0000000000000000000000000000000000000000000000606082015260800190565b60208082526023908201527f42455032303a207472616e7366657220746f20746865207a65726f206164647260408201527f6573730000000000000000000000000000000000000000000000000000000000606082015260800190565b6020808252601f908201527f436f6e7472616374206973206c6f636b656420756e74696c2037206461797300604082015260600190565b60208082526022908201527f42455032303a20617070726f766520746f20746865207a65726f20616464726560408201527f7373000000000000000000000000000000000000000000000000000000000000606082015260800190565b60208082526023908201527f596f7520646f6e27742068617665207065726d697373696f6e20746f20756e6c60408201527f6f636b0000000000000000000000000000000000000000000000000000000000606082015260800190565b60208082526014908201527f4163636f756e74206e6f74206578636c75646564000000000000000000000000604082015260600190565b90815260200190565b600085825260806020830152612f3a6080830186612924565b6001600160a01b03949094166040830152506060015292915050565b600086825285602083015260a06040830152612f7560a0830186612924565b6001600160a01b0394909416606083015250608001529392505050565b9283526020830191909152604082015260600190565b60ff91909116815260200190565b60008219821115612fc957612fc961303f565b500190565b600082612fe957634e487b7160e01b81526012600452602481fd5b500490565b60008160001904831182151516156130085761300861303f565b500290565b60008282101561301f5761301f61303f565b500390565b60006000198214156130385761303861303f565b5060010190565b634e487b7160e01b600052601160045260246000fd5b6001600160a01b0381168114610e4c57600080fdfe42455032303a207472616e7366657220616d6f756e74206578636565647320616c6c6f77616e636542455032303a2064656372656173656420616c6c6f77616e63652062656c6f77207a65726fa264697066735822122070db442aa65f03c58352c8cc8ca1a4ea514d1c3d244822ab8682812d8b9e6b0664736f6c63430008000033",
  "linkReferences": {},
  "deployedLinkReferences": {}
}