{
  "_format": "hh-sol-artifact-1",
  "contractName": "BlueberryFactory",
  "sourceName": "src/contracts/BlueberryFactory.sol",
  "abi": [
    {
      "inputs": [],
      "stateMutability": "nonpayable",
      "type": "constructor"
    },
    {
      "inputs": [
        {
          "internalType": "address",
          "name": "_tokenA",
          "type": "address"
        },
        {
          "internalType": "address",
          "name": "_tokenB",
          "type": "address"
        }
      ],
      "name": "createPair",
      "outputs": [
        {
          "internalType": "address",
          "name": "pair",
          "type": "address"
        }
      ],
      "stateMutability": "nonpayable",
      "type": "function"
    },
    {
      "inputs": [],
      "name": "feeTo",
      "outputs": [
        {
          "internalType": "address",
          "name": "",
          "type": "address"
        }
      ],
      "stateMutability": "view",
      "type": "function"
    },
    {
      "inputs": [],
      "name": "feeToSetter",
      "outputs": [
        {
          "internalType": "address",
          "name": "",
          "type": "address"
        }
      ],
      "stateMutability": "view",
      "type": "function"
    },
    {
      "inputs": [
        {
          "internalType": "address",
          "name": "",
          "type": "address"
        },
        {
          "internalType": "address",
          "name": "",
          "type": "address"
        }
      ],
      "name": "getPair",
      "outputs": [
        {
          "internalType": "address",
          "name": "",
          "type": "address"
        }
      ],
      "stateMutability": "view",
      "type": "function"
    },
    {
      "inputs": [
        {
          "internalType": "address",
          "name": "_feeTo",
          "type": "address"
        }
      ],
      "name": "setFeeTo",
      "outputs": [],
      "stateMutability": "nonpayable",
      "type": "function"
    },
    {
      "inputs": [
        {
          "internalType": "address",
          "name": "_feeToSetter",
          "type": "address"
        }
      ],
      "name": "setFeeToSetter",
      "outputs": [],
      "stateMutability": "nonpayable",
      "type": "function"
    }
  ],
  "bytecode": "0x608060405234801561001057600080fd5b5060008054336001600160a01b03199182168117835560018054909216179055612d3990819061004090396000f3fe608060405234801561001057600080fd5b50600436106100725760003560e01c8063c9c6539611610050578063c9c65396146100b2578063e6a43905146100c5578063f46901ed146100d857610072565b8063017e7e5814610077578063094b741514610095578063a2e74af61461009d575b600080fd5b61007f6100eb565b60405161008c91906104a1565b60405180910390f35b61007f6100fa565b6100b06100ab366004610427565b610109565b005b61007f6100c0366004610448565b61016b565b61007f6100d3366004610448565b61037f565b6100b06100e6366004610427565b6103a5565b6000546001600160a01b031681565b6001546001600160a01b031681565b6001546001600160a01b0316331461013c5760405162461bcd60e51b81526004016101339061053d565b60405180910390fd5b6001805473ffffffffffffffffffffffffffffffffffffffff19166001600160a01b0392909216919091179055565b6000816001600160a01b0316836001600160a01b0316141561019f5760405162461bcd60e51b8152600401610133906105ab565b600080836001600160a01b0316856001600160a01b0316106101c25783856101c5565b84845b90925090506001600160a01b0382166101f05760405162461bcd60e51b815260040161013390610574565b6001600160a01b038281166000908152600260209081526040808320858516845290915290205416156102355760405162461bcd60e51b8152600401610133906104cf565b600060405180602001610247906103fe565b6020820181038252601f19601f8201166040525090506000838360405160200161027292919061047a565b604051602081830303815290604052805190602001209050808251602084016000f56040517f485cc9550000000000000000000000000000000000000000000000000000000081529095506001600160a01b0386169063485cc955906102de90879087906004016104b5565b600060405180830381600087803b1580156102f857600080fd5b505af115801561030c573d6000803e3d6000fd5b5050506001600160a01b039485166000818152600260208181526040808420988a1684529781528783208054998b1673ffffffffffffffffffffffffffffffffffffffff199a8b168117909155918152878320938352929092529490942080549095169093179093555091949350505050565b60026020908152600092835260408084209091529082529020546001600160a01b031681565b6001546001600160a01b031633146103cf5760405162461bcd60e51b815260040161013390610506565b6000805473ffffffffffffffffffffffffffffffffffffffff19166001600160a01b0392909216919091179055565b612721806105e383390190565b80356001600160a01b038116811461042257600080fd5b919050565b600060208284031215610438578081fd5b6104418261040b565b9392505050565b6000806040838503121561045a578081fd5b6104638361040b565b91506104716020840161040b565b90509250929050565b6bffffffffffffffffffffffff19606093841b811682529190921b16601482015260280190565b6001600160a01b0391909116815260200190565b6001600160a01b0392831681529116602082015260400190565b60208082526014908201527f5041495220616c72656164792065786973747321000000000000000000000000604082015260600190565b60208082526013908201527f736574466565546f3a20464f5242494444454e00000000000000000000000000604082015260600190565b60208082526019908201527f736574466565546f5365747465723a20464f5242494444454e00000000000000604082015260600190565b60208082526018908201527f637265617465506169723a205a45524f5f414444524553530000000000000000604082015260600190565b6020808252601f908201527f637265617465506169723a204944454e544943414c5f4144445245535345530060408201526060019056fe60a06040526001600b5534801561001557600080fd5b50604080518082018252601081526f21363ab2b132b9393ca9bbb0b8102b1960811b6020918201528151808301835260018152603160f81b90820152905146916100c9917f8b73c3c69bb8fe3d512ecc4cf759cc79239f7b179b0ffacaa9a75d522b39400f917f9b4982aa76e1ae31f36de6fe320d808471b99df1759813c8f7b62c5d929569d0917fc89efdaa54c0f20c7adf612882df0950f5a951637e0307cdcb4c672f298b8bc69186913091016100f1565b60408051601f198184030181529190528051602090910120600355503360601b60805261011d565b9485526020850193909352604084019190915260608301526001600160a01b0316608082015260a00190565b60805160601c6125d86101496000396000818161092901528181611184015261193501526125d86000f3fe608060405234801561001057600080fd5b50600436106101b95760003560e01c80636a627842116100f9578063ba9a7a5611610097578063d21220a711610071578063d21220a71461034d578063d505accf14610355578063dd62ed3e14610368578063fff6cae91461037b576101b9565b8063ba9a7a561461032a578063bc25cf7714610332578063c45a015514610345576101b9565b80637ecebe00116100d35780637ecebe00146102db57806389afcb44146102ee57806395d89b411461030f578063a9059cbb14610317576101b9565b80636a627842146102ad57806370a08231146102c05780637464fc3d146102d3576101b9565b806323b872dd116101665780633644e515116101405780633644e51514610282578063485cc9551461028a5780635909c0d51461029d5780635a3d5493146102a5576101b9565b806323b872dd1461025257806330adf81f14610265578063313ce5671461026d576101b9565b8063095ea7b311610197578063095ea7b3146102085780630dfe16811461022857806318160ddd1461023d576101b9565b8063022c0d9f146101be57806306fdde03146101d35780630902f1ac146101f1575b600080fd5b6101d16101cc366004611de2565b610383565b005b6101db6107cb565b6040516101e89190611fa5565b60405180910390f35b6101f9610804565b6040516101e8939291906123c3565b61021b610216366004611d7f565b61082e565b6040516101e89190611f3f565b610230610845565b6040516101e89190611ec5565b610245610854565b6040516101e89190611f4a565b61021b610260366004611cca565b61085a565b6102456108ef565b610275610913565b6040516101e89190612415565b610245610918565b6101d1610298366004611c92565b61091e565b6102456109ac565b6102456109b2565b6102456102bb366004611c5a565b6109b8565b6102456102ce366004611c5a565b610c6c565b610245610c7e565b6102456102e9366004611c5a565b610c84565b6103016102fc366004611c5a565b610c96565b6040516101e89291906123ec565b6101db611010565b61021b610325366004611d7f565b611049565b610245611056565b6101d1610340366004611c5a565b61105c565b610230611182565b6102306111a6565b6101d1610363366004611d0a565b6111b5565b610245610376366004611c92565b611330565b6101d161134d565b600b546001146103ae5760405162461bcd60e51b81526004016103a59061216e565b60405180910390fd5b6000600b55841515806103c15750600084115b6103dd5760405162461bcd60e51b81526004016103a59061200f565b6000806103e8610804565b5091509150816001600160701b03168710801561040d5750806001600160701b031686105b6104295760405162461bcd60e51b81526004016103a590612213565b60055460065460009182916001600160a01b039182169190811690891682148015906104675750806001600160a01b0316896001600160a01b031614155b6104835760405162461bcd60e51b81526004016103a59061206c565b8a1561049457610494828a8d611499565b89156104a5576104a5818a8c611499565b861561052b576040517fda3329300000000000000000000000000000000000000000000000000000000081526001600160a01b038a169063da332930906104f89033908f908f908e908e90600401611ef2565b600060405180830381600087803b15801561051257600080fd5b505af1158015610526573d6000803e3d6000fd5b505050505b6040516370a0823160e01b81526001600160a01b038316906370a0823190610557903090600401611ec5565b60206040518083038186803b15801561056f57600080fd5b505afa158015610583573d6000803e3d6000fd5b505050506040513d601f19601f820116820180604052508101906105a79190611dca565b6040516370a0823160e01b81529094506001600160a01b038216906370a08231906105d6903090600401611ec5565b60206040518083038186803b1580156105ee57600080fd5b505afa158015610602573d6000803e3d6000fd5b505050506040513d601f19601f820116820180604052508101906106269190611dca565b92505050600089856001600160701b031661064191906124c3565b831161064e57600061066b565b6106618a6001600160701b0387166124c3565b61066b90846124c3565b905060006106828a6001600160701b0387166124c3565b831161068f5760006106ac565b6106a28a6001600160701b0387166124c3565b6106ac90846124c3565b905060008211806106bd5750600081115b6106d95760405162461bcd60e51b81526004016103a59061233b565b60006106fb6106e984600261160a565b6106f5876103e861160a565b9061164a565b9050600061070d6106e984600261160a565b9050610732620f424061072c6001600160701b038b8116908b1661160a565b9061160a565b61073c838361160a565b101561075a5760405162461bcd60e51b81526004016103a590612372565b505061076884848888611678565b886001600160a01b0316336001600160a01b03167fd78ad95fa46c994b6551d0da85fc275fe613ce37657fb8d5e3d130840159d82284848f8f6040516107b194939291906123fa565b60405180910390a350506001600b55505050505050505050565b6040518060400160405280601081526020017f426c75656265727279537761702056320000000000000000000000000000000081525081565b6007546001600160701b0380821692600160701b830490911691600160e01b900463ffffffff1690565b600061083b338484611822565b5060015b92915050565b6005546001600160a01b031681565b60005481565b6001600160a01b0383166000908152600260209081526040808320338452909152812054600019146108da576001600160a01b03841660009081526002602090815260408083203384529091529020546108b59083906124c3565b6001600160a01b03851660009081526002602090815260408083203384529091529020555b6108e584848461188a565b5060019392505050565b7f6e71edae12b1b97f4d1f60370fef10105fa2faae0126114a169c64845d6126c981565b601281565b60035481565b336001600160a01b037f000000000000000000000000000000000000000000000000000000000000000016146109665760405162461bcd60e51b81526004016103a5906122a7565b600580546001600160a01b039384167fffffffffffffffffffffffff00000000000000000000000000000000000000009182161790915560068054929093169116179055565b60085481565b60095481565b6000600b546001146109dc5760405162461bcd60e51b81526004016103a59061216e565b6000600b819055806109ec610804565b506005546040516370a0823160e01b81529294509092506000916001600160a01b03909116906370a0823190610a26903090600401611ec5565b60206040518083038186803b158015610a3e57600080fd5b505afa158015610a52573d6000803e3d6000fd5b505050506040513d601f19601f82011682018060405250810190610a769190611dca565b6006546040516370a0823160e01b81529192506000916001600160a01b03909116906370a0823190610aac903090600401611ec5565b60206040518083038186803b158015610ac457600080fd5b505afa158015610ad8573d6000803e3d6000fd5b505050506040513d601f19601f82011682018060405250810190610afc9190611dca565b90506000610b13836001600160701b03871661164a565b90506000610b2a836001600160701b03871661164a565b90506000610b388787611930565b60005490915080610b6f57610b5b6103e86106f5610b56878761160a565b611a89565b9850610b6a60006103e8611af9565b610bb6565b610bb36001600160701b038916610b86868461160a565b610b909190612461565b6001600160701b038916610ba4868561160a565b610bae9190612461565b611b88565b98505b60008911610bd65760405162461bcd60e51b81526004016103a5906120a3565b610be08a8a611af9565b610bec86868a8a611678565b8115610c1657600754610c12906001600160701b0380821691600160701b90041661160a565b600a555b336001600160a01b03167f4c209b5fc8ad50758f13e2e1088ba56a560dff690a1c6fef26394f4c03821c4f8585604051610c519291906123ec565b60405180910390a250506001600b5550949695505050505050565b60016020526000908152604090205481565b600a5481565b60046020526000908152604090205481565b600080600b54600114610cbb5760405162461bcd60e51b81526004016103a59061216e565b6000600b81905580610ccb610804565b506005546006546040516370a0823160e01b81529395509193506001600160a01b039081169291169060009083906370a0823190610d0d903090600401611ec5565b60206040518083038186803b158015610d2557600080fd5b505afa158015610d39573d6000803e3d6000fd5b505050506040513d601f19601f82011682018060405250810190610d5d9190611dca565b90506000826001600160a01b03166370a08231306040518263ffffffff1660e01b8152600401610d8d9190611ec5565b60206040518083038186803b158015610da557600080fd5b505afa158015610db9573d6000803e3d6000fd5b505050506040513d601f19601f82011682018060405250810190610ddd9190611dca565b30600090815260016020526040812054919250610dfa8888611930565b60005490915080610e0b848761160a565b610e159190612461565b9a5080610e22848661160a565b610e2c9190612461565b995060008b118015610e3e575060008a115b610e5a5760405162461bcd60e51b81526004016103a5906122de565b610e643084611ba0565b610e6f878d8d611499565b610e7a868d8c611499565b6040516370a0823160e01b81526001600160a01b038816906370a0823190610ea6903090600401611ec5565b60206040518083038186803b158015610ebe57600080fd5b505afa158015610ed2573d6000803e3d6000fd5b505050506040513d601f19601f82011682018060405250810190610ef69190611dca565b6040516370a0823160e01b81529095506001600160a01b038716906370a0823190610f25903090600401611ec5565b60206040518083038186803b158015610f3d57600080fd5b505afa158015610f51573d6000803e3d6000fd5b505050506040513d601f19601f82011682018060405250810190610f759190611dca565b9350610f8385858b8b611678565b8115610fad57600754610fa9906001600160701b0380821691600160701b90041661160a565b600a555b8b6001600160a01b0316336001600160a01b03167fdccd412f0b1252819cb1fd330b93224ca42612892bb3f4f789976e6d819364968d8d604051610ff29291906123ec565b60405180910390a35050505050505050506001600b81905550915091565b6040518060400160405280601081526020017f426c75656265727279537761702d56320000000000000000000000000000000081525081565b600061083b33848461188a565b6103e881565b600b5460011461107e5760405162461bcd60e51b81526004016103a59061216e565b6000600b556005546006546007546040516370a0823160e01b81526001600160a01b03938416939092169161113091849186916001600160701b03169083906370a08231906110d1903090600401611ec5565b60206040518083038186803b1580156110e957600080fd5b505afa1580156110fd573d6000803e3d6000fd5b505050506040513d601f19601f820116820180604052508101906111219190611dca565b61112b91906124c3565b611499565b6007546040516370a0823160e01b81526111789183918691600160701b90046001600160701b0316906001600160a01b038416906370a08231906110d1903090600401611ec5565b50506001600b5550565b7f000000000000000000000000000000000000000000000000000000000000000081565b6006546001600160a01b031681565b428410156111d55760405162461bcd60e51b81526004016103a590612270565b6003546001600160a01b038816600090815260046020526040812080549192917f6e71edae12b1b97f4d1f60370fef10105fa2faae0126114a169c64845d6126c9918b918b918b9190876112288361252f565b919050558a60405160200161124296959493929190611f53565b60405160208183030381529060405280519060200120604051602001611269929190611e8f565b6040516020818303038152906040528051906020012090506000600182868686604051600081526020016040526040516112a69493929190611f87565b6020604051602081039080840390855afa1580156112c8573d6000803e3d6000fd5b5050604051601f1901519150506001600160a01b038116158015906112fe5750886001600160a01b0316816001600160a01b0316145b61131a5760405162461bcd60e51b81526004016103a5906121a5565b611325898989611822565b505050505050505050565b600260209081526000928352604080842090915290825290205481565b600b5460011461136f5760405162461bcd60e51b81526004016103a59061216e565b6000600b556005546040516370a0823160e01b8152611492916001600160a01b0316906370a08231906113a6903090600401611ec5565b60206040518083038186803b1580156113be57600080fd5b505afa1580156113d2573d6000803e3d6000fd5b505050506040513d601f19601f820116820180604052508101906113f69190611dca565b6006546040516370a0823160e01b81526001600160a01b03909116906370a0823190611426903090600401611ec5565b60206040518083038186803b15801561143e57600080fd5b505afa158015611452573d6000803e3d6000fd5b505050506040513d601f19601f820116820180604052508101906114769190611dca565b6007546001600160701b0380821691600160701b900416611678565b6001600b55565b604080518082018252601981527f7472616e7366657228616464726573732c75696e7432353629000000000000006020909101525160009081906001600160a01b038616907fa9059cbb2ab09eb219583f4a59a5d0623ade346d962bcd4e46b11da047c9049b906115109087908790602401611ed9565b60408051601f198184030181529181526020820180517bffffffffffffffffffffffffffffffffffffffffffffffffffffffff167fffffffff0000000000000000000000000000000000000000000000000000000090941693909317909252905161157b9190611e73565b6000604051808303816000865af19150503d80600081146115b8576040519150601f19603f3d011682016040523d82523d6000602084013e6115bd565b606091505b50915091508180156115e75750805115806115e75750808060200190518101906115e79190611daa565b6116035760405162461bcd60e51b81526004016103a590612100565b5050505050565b600081158061162e5750828261162081836124a4565b925061162c9083612461565b145b61083f5760405162461bcd60e51b81526004016103a590612137565b60008261165783826124c3565b915081111561083f5760405162461bcd60e51b81526004016103a590611fd8565b60006116896401000000004261254a565b6007549091506000906116a990600160e01b900463ffffffff16836124da565b905060008163ffffffff161180156116c957506001600160701b03841615155b80156116dd57506001600160701b03831615155b156117575763ffffffff81166116f3858561243b565b6116fd9190612475565b6001600160701b0316600860008282546117179190612423565b909155505063ffffffff811661172d848661243b565b6117379190612475565b6001600160701b0316600960008282546117519190612423565b90915550505b600780546dffffffffffffffffffffffffffff19166001600160701b03888116919091177fffffffff0000000000000000000000000000ffffffffffffffffffffffffffff16600160701b8883168102919091177bffffffffffffffffffffffffffffffffffffffffffffffffffffffff16600160e01b63ffffffff87160217928390556040517f1c411e9a96e071241c2f21f7726b17ae89e3cab4c78be50e062b03a9fffbbad193611812938181169390910416906123a9565b60405180910390a1505050505050565b6001600160a01b0380841660008181526002602090815260408083209487168084529490915290819020849055517f8c5be1e5ebec7d5bd14f71427d1e84f3dd0314c0f7b2291e5b200ac8c7c3b9259061187d908590611f4a565b60405180910390a3505050565b6001600160a01b0383166000908152600160205260409020546118ae9082906124c3565b6001600160a01b0380851660009081526001602052604080822093909355908416815220546118de908290612423565b6001600160a01b0380841660008181526001602052604090819020939093559151908516907fddf252ad1be2c89b69c2b068fc378daa952ba7f163c4a11628f55a4df523b3ef9061187d908590611f4a565b6000807f00000000000000000000000000000000000000000000000000000000000000006001600160a01b031663017e7e586040518163ffffffff1660e01b8152600401602060405180830381600087803b15801561198e57600080fd5b505af11580156119a2573d6000803e3d6000fd5b505050506040513d601f19601f820116820180604052508101906119c69190611c76565b600a546001600160a01b038216158015945091925090611a75578015611a70576000611a01610b566001600160701b038088169089166124a4565b90506000611a0e83611a89565b905080821115611a6d576000611a30611a27848461164a565b6000549061160a565b90506000611a4983611a4386600561160a565b90611c2c565b90506000611a578284612461565b90508015611a6957611a698782611af9565b5050505b50505b611a81565b8015611a81576000600a555b505092915050565b60006003821115611aea5750806000611aa3600283612461565b611aae906001612423565b90505b81811015611ae457905080600281611ac98186612461565b611ad39190612423565b611add9190612461565b9050611ab1565b50611af4565b8115611af4575060015b919050565b80600054611b079190612423565b60009081556001600160a01b038316815260016020526040902054611b2d908290612423565b6001600160a01b0383166000818152600160205260408082209390935591519091907fddf252ad1be2c89b69c2b068fc378daa952ba7f163c4a11628f55a4df523b3ef90611b7c908590611f4a565b60405180910390a35050565b6000818310611b975781611b99565b825b9392505050565b6001600160a01b038216600090815260016020526040902054611bc49082906124c3565b6001600160a01b03831660009081526001602052604081209190915554611bec9082906124c3565b60009081556040516001600160a01b038416907fddf252ad1be2c89b69c2b068fc378daa952ba7f163c4a11628f55a4df523b3ef90611b7c908590611f4a565b600082611c398382612423565b915081101561083f5760405162461bcd60e51b81526004016103a5906121dc565b600060208284031215611c6b578081fd5b8135611b998161258a565b600060208284031215611c87578081fd5b8151611b998161258a565b60008060408385031215611ca4578081fd5b8235611caf8161258a565b91506020830135611cbf8161258a565b809150509250929050565b600080600060608486031215611cde578081fd5b8335611ce98161258a565b92506020840135611cf98161258a565b929592945050506040919091013590565b600080600080600080600060e0888a031215611d24578283fd5b8735611d2f8161258a565b96506020880135611d3f8161258a565b95506040880135945060608801359350608088013560ff81168114611d62578384fd5b9699959850939692959460a0840135945060c09093013592915050565b60008060408385031215611d91578182fd5b8235611d9c8161258a565b946020939093013593505050565b600060208284031215611dbb578081fd5b81518015158114611b99578182fd5b600060208284031215611ddb578081fd5b5051919050565b600080600080600060808688031215611df9578081fd5b85359450602086013593506040860135611e128161258a565b9250606086013567ffffffffffffffff80821115611e2e578283fd5b818801915088601f830112611e41578283fd5b813581811115611e4f578384fd5b896020828501011115611e60578384fd5b9699959850939650602001949392505050565b60008251611e858184602087016124ff565b9190910192915050565b7f190100000000000000000000000000000000000000000000000000000000000081526002810192909252602282015260420190565b6001600160a01b0391909116815260200190565b6001600160a01b03929092168252602082015260400190565b60006001600160a01b038716825285602083015284604083015260806060830152826080830152828460a084013781830160a090810191909152601f909201601f19160101949350505050565b901515815260200190565b90815260200190565b9586526001600160a01b0394851660208701529290931660408501526060840152608083019190915260a082015260c00190565b93845260ff9290921660208401526040830152606082015260800190565b6000602082528251806020840152611fc48160408501602087016124ff565b601f01601f19169190910160400192915050565b60208082526015908201527f64732d6d6174682d7375622d756e646572666c6f770000000000000000000000604082015260600190565b60208082526025908201527f556e697377617056323a20494e53554646494349454e545f4f55545055545f4160408201527f4d4f554e54000000000000000000000000000000000000000000000000000000606082015260800190565b60208082526010908201527f737761703a20494e56414c49445f544f00000000000000000000000000000000604082015260600190565b60208082526023908201527f6d696e743a20494e53554646494349454e545f4c49515549444954595f4d494e60408201527f5445440000000000000000000000000000000000000000000000000000000000606082015260800190565b6020808252601e908201527f5f736166655472616e736665723a205452414e534645525f4641494c45440000604082015260600190565b60208082526014908201527f64732d6d6174682d6d756c2d6f766572666c6f77000000000000000000000000604082015260600190565b6020808252600c908201527f6c6f636b3a204c4f434b45440000000000000000000000000000000000000000604082015260600190565b6020808252601c908201527f556e697377617056323a20494e56414c49445f5349474e415455524500000000604082015260600190565b60208082526014908201527f64732d6d6174682d6164642d6f766572666c6f77000000000000000000000000604082015260600190565b60208082526021908201527f556e697377617056323a20494e53554646494349454e545f4c4951554944495460408201527f5900000000000000000000000000000000000000000000000000000000000000606082015260800190565b60208082526012908201527f556e697377617056323a20455850495245440000000000000000000000000000604082015260600190565b60208082526015908201527f696e697469616c697a653a20464f5242494444454e0000000000000000000000604082015260600190565b60208082526023908201527f6275726e3a20494e53554646494349454e545f4c49515549444954595f42555260408201527f4e45440000000000000000000000000000000000000000000000000000000000606082015260800190565b6020808252601f908201527f737761703a20494e53554646494349454e545f494e5055545f414d4f554e5400604082015260600190565b60208082526007908201527f737761703a204b00000000000000000000000000000000000000000000000000604082015260600190565b6001600160701b0392831681529116602082015260400190565b6001600160701b03938416815291909216602082015263ffffffff909116604082015260600190565b918252602082015260400190565b93845260208401929092526040830152606082015260800190565b60ff91909116815260200190565b600082198211156124365761243661255e565b500190565b60006001600160701b038084168061245557612455612574565b92169190910492915050565b60008261247057612470612574565b500490565b60006001600160701b038083168185168183048111821515161561249b5761249b61255e565b02949350505050565b60008160001904831182151516156124be576124be61255e565b500290565b6000828210156124d5576124d561255e565b500390565b600063ffffffff838116908316818110156124f7576124f761255e565b039392505050565b60005b8381101561251a578181015183820152602001612502565b83811115612529576000848401525b50505050565b60006000198214156125435761254361255e565b5060010190565b60008261255957612559612574565b500690565b634e487b7160e01b600052601160045260246000fd5b634e487b7160e01b600052601260045260246000fd5b6001600160a01b038116811461259f57600080fd5b5056fea264697066735822122031ce8deb5cbb0d9aea1f22bcea0b401dff49f03d0c3dbcfec55ed3adce48696164736f6c63430008000033a26469706673582212201909c351aeece8ff3f6e1ee35de1fdfc06e6c55c1fc500b86e26f8e07b234d3a64736f6c63430008000033",
  "linkReferences": {},
  "deployedLinkReferences": {}
}