{
  "_format": "hh-sol-artifact-1",
  "contractName": "Blueberry",
  "sourceName": "src/contracts/BLueberry.sol",
  "abi": [
    {
      "inputs": [],
      "stateMutability": "nonpayable",
      "type": "constructor"
    },
    {
      "anonymous": false,
      "inputs": [
        {
          "indexed": true,
          "internalType": "address",
          "name": "owner",
          "type": "address"
        },
        {
          "indexed": true,
          "internalType": "address",
          "name": "spender",
          "type": "address"
        },
        {
          "indexed": false,
          "internalType": "uint256",
          "name": "value",
          "type": "uint256"
        }
      ],
      "name": "Approval",
      "type": "event"
    },
    {
      "anonymous": false,
      "inputs": [
        {
          "indexed": true,
          "internalType": "address",
          "name": "previousOwner",
          "type": "address"
        },
        {
          "indexed": true,
          "internalType": "address",
          "name": "newOwner",
          "type": "address"
        }
      ],
      "name": "OwnershipTransferred",
      "type": "event"
    },
    {
      "anonymous": false,
      "inputs": [
        {
          "indexed": true,
          "internalType": "address",
          "name": "from",
          "type": "address"
        },
        {
          "indexed": true,
          "internalType": "address",
          "name": "to",
          "type": "address"
        },
        {
          "indexed": false,
          "internalType": "uint256",
          "name": "value",
          "type": "uint256"
        }
      ],
      "name": "Transfer",
      "type": "event"
    },
    {
      "inputs": [
        {
          "internalType": "address",
          "name": "owner",
          "type": "address"
        },
        {
          "internalType": "address",
          "name": "spender",
          "type": "address"
        }
      ],
      "name": "allowance",
      "outputs": [
        {
          "internalType": "uint256",
          "name": "",
          "type": "uint256"
        }
      ],
      "stateMutability": "view",
      "type": "function"
    },
    {
      "inputs": [
        {
          "internalType": "address",
          "name": "spender",
          "type": "address"
        },
        {
          "internalType": "uint256",
          "name": "amount",
          "type": "uint256"
        }
      ],
      "name": "approve",
      "outputs": [
        {
          "internalType": "bool",
          "name": "",
          "type": "bool"
        }
      ],
      "stateMutability": "nonpayable",
      "type": "function"
    },
    {
      "inputs": [
        {
          "internalType": "address",
          "name": "account",
          "type": "address"
        }
      ],
      "name": "balanceOf",
      "outputs": [
        {
          "internalType": "uint256",
          "name": "",
          "type": "uint256"
        }
      ],
      "stateMutability": "view",
      "type": "function"
    },
    {
      "inputs": [],
      "name": "decimals",
      "outputs": [
        {
          "internalType": "uint8",
          "name": "",
          "type": "uint8"
        }
      ],
      "stateMutability": "view",
      "type": "function"
    },
    {
      "inputs": [
        {
          "internalType": "address",
          "name": "spender",
          "type": "address"
        },
        {
          "internalType": "uint256",
          "name": "subtractedValue",
          "type": "uint256"
        }
      ],
      "name": "decreaseAllowance",
      "outputs": [
        {
          "internalType": "bool",
          "name": "",
          "type": "bool"
        }
      ],
      "stateMutability": "nonpayable",
      "type": "function"
    },
    {
      "inputs": [
        {
          "internalType": "address",
          "name": "account",
          "type": "address"
        }
      ],
      "name": "excludeAccount",
      "outputs": [],
      "stateMutability": "nonpayable",
      "type": "function"
    },
    {
      "inputs": [
        {
          "internalType": "address",
          "name": "account",
          "type": "address"
        }
      ],
      "name": "includeAccount",
      "outputs": [],
      "stateMutability": "nonpayable",
      "type": "function"
    },
    {
      "inputs": [
        {
          "internalType": "address",
          "name": "spender",
          "type": "address"
        },
        {
          "internalType": "uint256",
          "name": "addedValue",
          "type": "uint256"
        }
      ],
      "name": "increaseAllowance",
      "outputs": [
        {
          "internalType": "bool",
          "name": "",
          "type": "bool"
        }
      ],
      "stateMutability": "nonpayable",
      "type": "function"
    },
    {
      "inputs": [
        {
          "internalType": "address",
          "name": "account",
          "type": "address"
        }
      ],
      "name": "isExcluded",
      "outputs": [
        {
          "internalType": "bool",
          "name": "",
          "type": "bool"
        }
      ],
      "stateMutability": "view",
      "type": "function"
    },
    {
      "inputs": [],
      "name": "name",
      "outputs": [
        {
          "internalType": "string",
          "name": "",
          "type": "string"
        }
      ],
      "stateMutability": "view",
      "type": "function"
    },
    {
      "inputs": [],
      "name": "owner",
      "outputs": [
        {
          "internalType": "address",
          "name": "",
          "type": "address"
        }
      ],
      "stateMutability": "view",
      "type": "function"
    },
    {
      "inputs": [
        {
          "internalType": "uint256",
          "name": "tAmount",
          "type": "uint256"
        }
      ],
      "name": "reflect",
      "outputs": [],
      "stateMutability": "nonpayable",
      "type": "function"
    },
    {
      "inputs": [
        {
          "internalType": "uint256",
          "name": "tAmount",
          "type": "uint256"
        },
        {
          "internalType": "bool",
          "name": "deductTransferFee",
          "type": "bool"
        }
      ],
      "name": "reflectionFromToken",
      "outputs": [
        {
          "internalType": "uint256",
          "name": "",
          "type": "uint256"
        }
      ],
      "stateMutability": "view",
      "type": "function"
    },
    {
      "inputs": [],
      "name": "renounceOwnership",
      "outputs": [],
      "stateMutability": "nonpayable",
      "type": "function"
    },
    {
      "inputs": [],
      "name": "symbol",
      "outputs": [
        {
          "internalType": "string",
          "name": "",
          "type": "string"
        }
      ],
      "stateMutability": "view",
      "type": "function"
    },
    {
      "inputs": [
        {
          "internalType": "uint256",
          "name": "rAmount",
          "type": "uint256"
        }
      ],
      "name": "tokenFromReflection",
      "outputs": [
        {
          "internalType": "uint256",
          "name": "",
          "type": "uint256"
        }
      ],
      "stateMutability": "view",
      "type": "function"
    },
    {
      "inputs": [],
      "name": "totalFees",
      "outputs": [
        {
          "internalType": "uint256",
          "name": "",
          "type": "uint256"
        }
      ],
      "stateMutability": "view",
      "type": "function"
    },
    {
      "inputs": [],
      "name": "totalSupply",
      "outputs": [
        {
          "internalType": "uint256",
          "name": "",
          "type": "uint256"
        }
      ],
      "stateMutability": "pure",
      "type": "function"
    },
    {
      "inputs": [
        {
          "internalType": "address",
          "name": "recipient",
          "type": "address"
        },
        {
          "internalType": "uint256",
          "name": "amount",
          "type": "uint256"
        }
      ],
      "name": "transfer",
      "outputs": [
        {
          "internalType": "bool",
          "name": "",
          "type": "bool"
        }
      ],
      "stateMutability": "nonpayable",
      "type": "function"
    },
    {
      "inputs": [
        {
          "internalType": "address",
          "name": "sender",
          "type": "address"
        },
        {
          "internalType": "address",
          "name": "recipient",
          "type": "address"
        },
        {
          "internalType": "uint256",
          "name": "amount",
          "type": "uint256"
        }
      ],
      "name": "transferFrom",
      "outputs": [
        {
          "internalType": "bool",
          "name": "",
          "type": "bool"
        }
      ],
      "stateMutability": "nonpayable",
      "type": "function"
    },
    {
      "inputs": [
        {
          "internalType": "address",
          "name": "newOwner",
          "type": "address"
        }
      ],
      "name": "transferOwnership",
      "outputs": [],
      "stateMutability": "nonpayable",
      "type": "function"
    }
  ],
  "bytecode": "0x6080604052620000206d01090ea8dd15c797843740000000600019620002c6565b6200002e9060001962000265565b60065560408051808201909152601180825270426c75656265727279204e6574776f726b60781b60209092019182526200006b91600891620001b6565b5060408051808201909152600980825268426c7565626572727960b81b60209092019182526200009c9181620001b6565b50600a805460ff19166012179055348015620000b757600080fd5b50620000cc620000c662000162565b62000166565b60065460016000620000dd62000162565b6001600160a01b031681526020810191909152604001600020556200010162000162565b6001600160a01b031660006001600160a01b03167fddf252ad1be2c89b69c2b068fc378daa952ba7f163c4a11628f55a4df523b3ef6d01090ea8dd15c7978437400000006040516200015491906200025c565b60405180910390a3620002e7565b3390565b600080546001600160a01b038381166001600160a01b0319831681178455604051919092169283917f8be0079c531659141344cd1fd0a4f28419497f9722a3daafe3b4186f6b6457e09190a35050565b828054620001c49062000289565b90600052602060002090601f016020900481019282620001e8576000855562000233565b82601f106200020357805160ff191683800117855562000233565b8280016001018555821562000233579182015b828111156200023357825182559160200191906001019062000216565b506200024192915062000245565b5090565b5b8082111562000241576000815560010162000246565b90815260200190565b6000828210156200028457634e487b7160e01b81526011600452602481fd5b500390565b6002810460018216806200029e57607f821691505b60208210811415620002c057634e487b7160e01b600052602260045260246000fd5b50919050565b600082620002e257634e487b7160e01b81526012600452602481fd5b500690565b611a6e80620002f76000396000f3fe608060405234801561001057600080fd5b50600436106101775760003560e01c806370a08231116100d8578063a9059cbb1161008c578063f2cc0c1811610066578063f2cc0c18146102d1578063f2fde38b146102e4578063f84354f1146102f757610177565b8063a9059cbb14610298578063cba0e996146102ab578063dd62ed3e146102be57610177565b80638da5cb5b116100bd5780638da5cb5b1461026857806395d89b411461027d578063a457c2d71461028557610177565b806370a082311461024d578063715018a61461026057610177565b806323b872dd1161012f578063313ce56711610114578063313ce5671461021257806339509351146102275780634549b0391461023a57610177565b806323b872dd146101ec5780632d838119146101ff57610177565b8063095ea7b311610160578063095ea7b3146101af57806313114a9d146101cf57806318160ddd146101e457610177565b8063053ab1821461017c57806306fdde0314610191575b600080fd5b61018f61018a3660046114b2565b61030a565b005b6101996103cc565b6040516101a6919061151c565b60405180910390f35b6101c26101bd366004611489565b61045e565b6040516101a69190611511565b6101d761047c565b6040516101a691906118fa565b6101d7610482565b6101c26101fa36600461144e565b610494565b6101d761020d3660046114b2565b61051b565b61021a61055e565b6040516101a69190611903565b6101c2610235366004611489565b610567565b6101d76102483660046114ca565b6105b5565b6101d761025b366004611402565b61061c565b61018f61067e565b6102706106c9565b6040516101a691906114fd565b6101996106d8565b6101c2610293366004611489565b6106e7565b6101c26102a6366004611489565b61074f565b6101c26102b9366004611402565b610763565b6101d76102cc36600461141c565b610781565b61018f6102df366004611402565b6107ac565b61018f6102f2366004611402565b6108f1565b61018f610305366004611402565b610962565b6000610314610b51565b6001600160a01b03811660009081526004602052604090205490915060ff16156103595760405162461bcd60e51b81526004016103509061189d565b60405180910390fd5b600061036483610b55565b505050506001600160a01b03831660009081526001602052604090205490915061038e9082610ba1565b6001600160a01b0383166000908152600160205260409020556006546103b49082610ba1565b6006556007546103c49084610bb4565b600755505050565b6060600880546103db9061197f565b80601f01602080910402602001604051908101604052809291908181526020018280546104079061197f565b80156104545780601f1061042957610100808354040283529160200191610454565b820191906000526020600020905b81548152906001019060200180831161043757829003601f168201915b5050505050905090565b600061047261046b610b51565b8484610bc0565b5060015b92915050565b60075490565b6d01090ea8dd15c79784374000000090565b60006104a1848484610c74565b610511846104ad610b51565b61050c856040518060600160405280602881526020016119ec602891396001600160a01b038a166000908152600360205260408120906104eb610b51565b6001600160a01b031681526020810191909152604001600020549190610e39565b610bc0565b5060019392505050565b600060065482111561053f5760405162461bcd60e51b8152600401610350906115cc565b6000610549610e65565b90506105558382610e88565b9150505b919050565b600a5460ff1690565b6000610472610574610b51565b8461050c8560036000610585610b51565b6001600160a01b03908116825260208083019390935260409182016000908120918c168152925290205490610bb4565b60006d01090ea8dd15c7978437400000008311156105e55760405162461bcd60e51b81526004016103509061171a565b816106035760006105f584610b55565b509294506104769350505050565b600061060e84610b55565b509194506104769350505050565b6001600160a01b03811660009081526004602052604081205460ff161561065c57506001600160a01b038116600090815260026020526040902054610559565b6001600160a01b0382166000908152600160205260409020546104769061051b565b610686610b51565b6001600160a01b03166106976106c9565b6001600160a01b0316146106bd5760405162461bcd60e51b815260040161035090611751565b6106c76000610e94565b565b6000546001600160a01b031690565b6060600980546103db9061197f565b60006104726106f4610b51565b8461050c85604051806060016040528060258152602001611a14602591396003600061071e610b51565b6001600160a01b03908116825260208083019390935260409182016000908120918d16815292529020549190610e39565b600061047261075c610b51565b8484610c74565b6001600160a01b031660009081526004602052604090205460ff1690565b6001600160a01b03918216600090815260036020908152604080832093909416825291909152205490565b6107b4610b51565b6001600160a01b03166107c56106c9565b6001600160a01b0316146107eb5760405162461bcd60e51b815260040161035090611751565b6001600160a01b03811660009081526004602052604090205460ff16156108245760405162461bcd60e51b8152600401610350906116e3565b6001600160a01b0381166000908152600160205260409020541561087e576001600160a01b0381166000908152600160205260409020546108649061051b565b6001600160a01b0382166000908152600260205260409020555b6001600160a01b03166000818152600460205260408120805460ff191660019081179091556005805491820181559091527f036b6384b5eca791c62761152d0c79bb0604c104a5fb6f4eb0703f3154bb3db001805473ffffffffffffffffffffffffffffffffffffffff19169091179055565b6108f9610b51565b6001600160a01b031661090a6106c9565b6001600160a01b0316146109305760405162461bcd60e51b815260040161035090611751565b6001600160a01b0381166109565760405162461bcd60e51b815260040161035090611629565b61095f81610e94565b50565b61096a610b51565b6001600160a01b031661097b6106c9565b6001600160a01b0316146109a15760405162461bcd60e51b815260040161035090611751565b6001600160a01b03811660009081526004602052604090205460ff166109d95760405162461bcd60e51b8152600401610350906116e3565b60005b600554811015610b4d57816001600160a01b031660058281548110610a1157634e487b7160e01b600052603260045260246000fd5b6000918252602090912001546001600160a01b03161415610b3b5760058054610a3c90600190611968565b81548110610a5a57634e487b7160e01b600052603260045260246000fd5b600091825260209091200154600580546001600160a01b039092169183908110610a9457634e487b7160e01b600052603260045260246000fd5b6000918252602080832091909101805473ffffffffffffffffffffffffffffffffffffffff19166001600160a01b039485161790559184168152600282526040808220829055600490925220805460ff191690556005805480610b0757634e487b7160e01b600052603160045260246000fd5b6000828152602090208101600019908101805473ffffffffffffffffffffffffffffffffffffffff19169055019055610b4d565b80610b45816119ba565b9150506109dc565b5050565b3390565b6000806000806000806000610b6988610ef1565b915091506000610b77610e65565b90506000806000610b898c8686610f24565b919e909d50909b509599509397509395505050505050565b6000610bad8284611968565b9392505050565b6000610bad8284611911565b6001600160a01b038316610be65760405162461bcd60e51b815260040161035090611840565b6001600160a01b038216610c0c5760405162461bcd60e51b815260040161035090611686565b6001600160a01b0380841660008181526003602090815260408083209487168084529490915290819020849055517f8c5be1e5ebec7d5bd14f71427d1e84f3dd0314c0f7b2291e5b200ac8c7c3b92590610c679085906118fa565b60405180910390a3505050565b6001600160a01b038316610c9a5760405162461bcd60e51b8152600401610350906117e3565b6001600160a01b038216610cc05760405162461bcd60e51b81526004016103509061156f565b60008111610ce05760405162461bcd60e51b815260040161035090611786565b6001600160a01b03831660009081526004602052604090205460ff168015610d2157506001600160a01b03821660009081526004602052604090205460ff16155b15610d3657610d31838383610f60565b610e34565b6001600160a01b03831660009081526004602052604090205460ff16158015610d7757506001600160a01b03821660009081526004602052604090205460ff165b15610d8757610d31838383611077565b6001600160a01b03831660009081526004602052604090205460ff16158015610dc957506001600160a01b03821660009081526004602052604090205460ff16155b15610dd957610d3183838361111d565b6001600160a01b03831660009081526004602052604090205460ff168015610e1957506001600160a01b03821660009081526004602052604090205460ff165b15610e2957610d3183838361115e565b610e3483838361111d565b505050565b60008184841115610e5d5760405162461bcd60e51b8152600401610350919061151c565b505050900390565b6000806000610e726111ce565b9092509050610e818282610e88565b9250505090565b6000610bad8284611929565b600080546001600160a01b0383811673ffffffffffffffffffffffffffffffffffffffff19831681178455604051919092169283917f8be0079c531659141344cd1fd0a4f28419497f9722a3daafe3b4186f6b6457e09190a35050565b60008080610f0b600a610f05866064610e88565b906113bb565b90506000610f198583610ba1565b935090915050915091565b6000808080610f3387866113bb565b90506000610f4187876113bb565b90506000610f4f8383610ba1565b929992985090965090945050505050565b6000806000806000610f7186610b55565b6001600160a01b038d1660009081526002602052604090205494995092975090955093509150610fa19087610ba1565b6001600160a01b038916600090815260026020908152604080832093909355600190522054610fd09086610ba1565b6001600160a01b03808a166000908152600160205260408082209390935590891681522054610fff9085610bb4565b6001600160a01b03881660009081526001602052604090205561102283826113c7565b866001600160a01b0316886001600160a01b03167fddf252ad1be2c89b69c2b068fc378daa952ba7f163c4a11628f55a4df523b3ef8460405161106591906118fa565b60405180910390a35050505050505050565b600080600080600061108886610b55565b6001600160a01b038d16600090815260016020526040902054949950929750909550935091506110b89086610ba1565b6001600160a01b03808a16600090815260016020908152604080832094909455918a168152600290915220546110ee9083610bb4565b6001600160a01b038816600090815260026020908152604080832093909355600190522054610fff9085610bb4565b600080600080600061112e86610b55565b6001600160a01b038d1660009081526001602052604090205494995092975090955093509150610fd09086610ba1565b600080600080600061116f86610b55565b6001600160a01b038d166000908152600260205260409020549499509297509095509350915061119f9087610ba1565b6001600160a01b0389166000908152600260209081526040808320939093556001905220546110b89086610ba1565b60065460009081906d01090ea8dd15c797843740000000825b6005548110156113715782600160006005848154811061121757634e487b7160e01b600052603260045260246000fd5b60009182526020808320909101546001600160a01b031683528201929092526040019020541180611290575081600260006005848154811061126957634e487b7160e01b600052603260045260246000fd5b60009182526020808320909101546001600160a01b03168352820192909252604001902054115b156112b3576006546d01090ea8dd15c797843740000000945094505050506113b7565b61130760016000600584815481106112db57634e487b7160e01b600052603260045260246000fd5b60009182526020808320909101546001600160a01b031683528201929092526040019020548490610ba1565b925061135d600260006005848154811061133157634e487b7160e01b600052603260045260246000fd5b60009182526020808320909101546001600160a01b031683528201929092526040019020548390610ba1565b915080611369816119ba565b9150506111e7565b5060065461138d906d01090ea8dd15c797843740000000610e88565b8210156113b1576006546d01090ea8dd15c7978437400000009350935050506113b7565b90925090505b9091565b6000610bad8284611949565b6006546113d49083610ba1565b6006556007546113e49082610bb4565b6007555050565b80356001600160a01b038116811461055957600080fd5b600060208284031215611413578081fd5b610bad826113eb565b6000806040838503121561142e578081fd5b611437836113eb565b9150611445602084016113eb565b90509250929050565b600080600060608486031215611462578081fd5b61146b846113eb565b9250611479602085016113eb565b9150604084013590509250925092565b6000806040838503121561149b578182fd5b6114a4836113eb565b946020939093013593505050565b6000602082840312156114c3578081fd5b5035919050565b600080604083850312156114dc578182fd5b82359150602083013580151581146114f2578182fd5b809150509250929050565b6001600160a01b0391909116815260200190565b901515815260200190565b6000602080835283518082850152825b818110156115485785810183015185820160400152820161152c565b818111156115595783604083870101525b50601f01601f1916929092016040019392505050565b60208082526023908201527f45524332303a207472616e7366657220746f20746865207a65726f206164647260408201527f6573730000000000000000000000000000000000000000000000000000000000606082015260800190565b6020808252602a908201527f416d6f756e74206d757374206265206c657373207468616e20746f74616c207260408201527f65666c656374696f6e7300000000000000000000000000000000000000000000606082015260800190565b60208082526026908201527f4f776e61626c653a206e6577206f776e657220697320746865207a65726f206160408201527f6464726573730000000000000000000000000000000000000000000000000000606082015260800190565b60208082526022908201527f45524332303a20617070726f766520746f20746865207a65726f20616464726560408201527f7373000000000000000000000000000000000000000000000000000000000000606082015260800190565b6020808252601b908201527f4163636f756e7420697320616c7265616479206578636c756465640000000000604082015260600190565b6020808252601f908201527f416d6f756e74206d757374206265206c657373207468616e20737570706c7900604082015260600190565b6020808252818101527f4f776e61626c653a2063616c6c6572206973206e6f7420746865206f776e6572604082015260600190565b60208082526029908201527f5472616e7366657220616d6f756e74206d75737420626520677265617465722060408201527f7468616e207a65726f0000000000000000000000000000000000000000000000606082015260800190565b60208082526025908201527f45524332303a207472616e736665722066726f6d20746865207a65726f20616460408201527f6472657373000000000000000000000000000000000000000000000000000000606082015260800190565b60208082526024908201527f45524332303a20617070726f76652066726f6d20746865207a65726f2061646460408201527f7265737300000000000000000000000000000000000000000000000000000000606082015260800190565b6020808252602c908201527f4578636c75646564206164647265737365732063616e6e6f742063616c6c207460408201527f6869732066756e6374696f6e0000000000000000000000000000000000000000606082015260800190565b90815260200190565b60ff91909116815260200190565b60008219821115611924576119246119d5565b500190565b60008261194457634e487b7160e01b81526012600452602481fd5b500490565b6000816000190483118215151615611963576119636119d5565b500290565b60008282101561197a5761197a6119d5565b500390565b60028104600182168061199357607f821691505b602082108114156119b457634e487b7160e01b600052602260045260246000fd5b50919050565b60006000198214156119ce576119ce6119d5565b5060010190565b634e487b7160e01b600052601160045260246000fdfe45524332303a207472616e7366657220616d6f756e74206578636565647320616c6c6f77616e636545524332303a2064656372656173656420616c6c6f77616e63652062656c6f77207a65726fa26469706673582212206d7a975b6beaff911562d601ac57baa1cee5dfca3f4b0bc1a0679323f088d1c164736f6c63430008000033",
  "linkReferences": {},
  "deployedLinkReferences": {}
}