{
  "_format": "hh-sol-artifact-1",
  "contractName": "Blueberry",
  "sourceName": "src/contracts/BLueberry.sol",
  "abi": [
    {
      "inputs": [],
      "stateMutability": "nonpayable",
      "type": "constructor"
    },
    {
      "anonymous": false,
      "inputs": [
        {
          "indexed": true,
          "internalType": "address",
          "name": "owner",
          "type": "address"
        },
        {
          "indexed": true,
          "internalType": "address",
          "name": "spender",
          "type": "address"
        },
        {
          "indexed": false,
          "internalType": "uint256",
          "name": "value",
          "type": "uint256"
        }
      ],
      "name": "Approval",
      "type": "event"
    },
    {
      "anonymous": false,
      "inputs": [
        {
          "indexed": true,
          "internalType": "address",
          "name": "previousOwner",
          "type": "address"
        },
        {
          "indexed": true,
          "internalType": "address",
          "name": "newOwner",
          "type": "address"
        }
      ],
      "name": "OwnershipTransferred",
      "type": "event"
    },
    {
      "anonymous": false,
      "inputs": [
        {
          "indexed": true,
          "internalType": "address",
          "name": "from",
          "type": "address"
        },
        {
          "indexed": true,
          "internalType": "address",
          "name": "to",
          "type": "address"
        },
        {
          "indexed": false,
          "internalType": "uint256",
          "name": "value",
          "type": "uint256"
        }
      ],
      "name": "Transfer",
      "type": "event"
    },
    {
      "inputs": [
        {
          "internalType": "address",
          "name": "owner",
          "type": "address"
        },
        {
          "internalType": "address",
          "name": "spender",
          "type": "address"
        }
      ],
      "name": "allowance",
      "outputs": [
        {
          "internalType": "uint256",
          "name": "",
          "type": "uint256"
        }
      ],
      "stateMutability": "view",
      "type": "function"
    },
    {
      "inputs": [
        {
          "internalType": "address",
          "name": "spender",
          "type": "address"
        },
        {
          "internalType": "uint256",
          "name": "amount",
          "type": "uint256"
        }
      ],
      "name": "approve",
      "outputs": [
        {
          "internalType": "bool",
          "name": "",
          "type": "bool"
        }
      ],
      "stateMutability": "nonpayable",
      "type": "function"
    },
    {
      "inputs": [
        {
          "internalType": "address",
          "name": "account",
          "type": "address"
        }
      ],
      "name": "balanceOf",
      "outputs": [
        {
          "internalType": "uint256",
          "name": "",
          "type": "uint256"
        }
      ],
      "stateMutability": "view",
      "type": "function"
    },
    {
      "inputs": [],
      "name": "decimals",
      "outputs": [
        {
          "internalType": "uint8",
          "name": "",
          "type": "uint8"
        }
      ],
      "stateMutability": "view",
      "type": "function"
    },
    {
      "inputs": [
        {
          "internalType": "address",
          "name": "spender",
          "type": "address"
        },
        {
          "internalType": "uint256",
          "name": "subtractedValue",
          "type": "uint256"
        }
      ],
      "name": "decreaseAllowance",
      "outputs": [
        {
          "internalType": "bool",
          "name": "",
          "type": "bool"
        }
      ],
      "stateMutability": "nonpayable",
      "type": "function"
    },
    {
      "inputs": [
        {
          "internalType": "address",
          "name": "account",
          "type": "address"
        }
      ],
      "name": "excludeAccount",
      "outputs": [],
      "stateMutability": "nonpayable",
      "type": "function"
    },
    {
      "inputs": [
        {
          "internalType": "address",
          "name": "account",
          "type": "address"
        }
      ],
      "name": "includeAccount",
      "outputs": [],
      "stateMutability": "nonpayable",
      "type": "function"
    },
    {
      "inputs": [
        {
          "internalType": "address",
          "name": "spender",
          "type": "address"
        },
        {
          "internalType": "uint256",
          "name": "addedValue",
          "type": "uint256"
        }
      ],
      "name": "increaseAllowance",
      "outputs": [
        {
          "internalType": "bool",
          "name": "",
          "type": "bool"
        }
      ],
      "stateMutability": "nonpayable",
      "type": "function"
    },
    {
      "inputs": [
        {
          "internalType": "address",
          "name": "account",
          "type": "address"
        }
      ],
      "name": "isExcluded",
      "outputs": [
        {
          "internalType": "bool",
          "name": "",
          "type": "bool"
        }
      ],
      "stateMutability": "view",
      "type": "function"
    },
    {
      "inputs": [],
      "name": "name",
      "outputs": [
        {
          "internalType": "string",
          "name": "",
          "type": "string"
        }
      ],
      "stateMutability": "view",
      "type": "function"
    },
    {
      "inputs": [],
      "name": "owner",
      "outputs": [
        {
          "internalType": "address",
          "name": "",
          "type": "address"
        }
      ],
      "stateMutability": "view",
      "type": "function"
    },
    {
      "inputs": [
        {
          "internalType": "uint256",
          "name": "tAmount",
          "type": "uint256"
        }
      ],
      "name": "reflect",
      "outputs": [],
      "stateMutability": "nonpayable",
      "type": "function"
    },
    {
      "inputs": [
        {
          "internalType": "uint256",
          "name": "tAmount",
          "type": "uint256"
        },
        {
          "internalType": "bool",
          "name": "deductTransferFee",
          "type": "bool"
        }
      ],
      "name": "reflectionFromToken",
      "outputs": [
        {
          "internalType": "uint256",
          "name": "",
          "type": "uint256"
        }
      ],
      "stateMutability": "view",
      "type": "function"
    },
    {
      "inputs": [],
      "name": "renounceOwnership",
      "outputs": [],
      "stateMutability": "nonpayable",
      "type": "function"
    },
    {
      "inputs": [
        {
          "internalType": "uint256",
          "name": "_taxFee",
          "type": "uint256"
        }
      ],
      "name": "setTaxFeePercent",
      "outputs": [],
      "stateMutability": "nonpayable",
      "type": "function"
    },
    {
      "inputs": [],
      "name": "symbol",
      "outputs": [
        {
          "internalType": "string",
          "name": "",
          "type": "string"
        }
      ],
      "stateMutability": "view",
      "type": "function"
    },
    {
      "inputs": [],
      "name": "taxFee",
      "outputs": [
        {
          "internalType": "uint256",
          "name": "",
          "type": "uint256"
        }
      ],
      "stateMutability": "view",
      "type": "function"
    },
    {
      "inputs": [],
      "name": "taxToSetter",
      "outputs": [
        {
          "internalType": "address",
          "name": "",
          "type": "address"
        }
      ],
      "stateMutability": "view",
      "type": "function"
    },
    {
      "inputs": [
        {
          "internalType": "uint256",
          "name": "rAmount",
          "type": "uint256"
        }
      ],
      "name": "tokenFromReflection",
      "outputs": [
        {
          "internalType": "uint256",
          "name": "",
          "type": "uint256"
        }
      ],
      "stateMutability": "view",
      "type": "function"
    },
    {
      "inputs": [],
      "name": "totalFees",
      "outputs": [
        {
          "internalType": "uint256",
          "name": "",
          "type": "uint256"
        }
      ],
      "stateMutability": "view",
      "type": "function"
    },
    {
      "inputs": [],
      "name": "totalSupply",
      "outputs": [
        {
          "internalType": "uint256",
          "name": "",
          "type": "uint256"
        }
      ],
      "stateMutability": "pure",
      "type": "function"
    },
    {
      "inputs": [
        {
          "internalType": "address",
          "name": "recipient",
          "type": "address"
        },
        {
          "internalType": "uint256",
          "name": "amount",
          "type": "uint256"
        }
      ],
      "name": "transfer",
      "outputs": [
        {
          "internalType": "bool",
          "name": "",
          "type": "bool"
        }
      ],
      "stateMutability": "nonpayable",
      "type": "function"
    },
    {
      "inputs": [
        {
          "internalType": "address",
          "name": "sender",
          "type": "address"
        },
        {
          "internalType": "address",
          "name": "recipient",
          "type": "address"
        },
        {
          "internalType": "uint256",
          "name": "amount",
          "type": "uint256"
        }
      ],
      "name": "transferFrom",
      "outputs": [
        {
          "internalType": "bool",
          "name": "",
          "type": "bool"
        }
      ],
      "stateMutability": "nonpayable",
      "type": "function"
    },
    {
      "inputs": [
        {
          "internalType": "address",
          "name": "newOwner",
          "type": "address"
        }
      ],
      "name": "transferOwnership",
      "outputs": [],
      "stateMutability": "nonpayable",
      "type": "function"
    }
  ],
  "bytecode": "0x6080604052620000206d01090ea8dd15c797843740000000600019620002ed565b6200002e906000196200028c565b600655600a60098181556040805180820190915281815268426c7565626572727960b81b6020909101908152620000669291620001dd565b5060408051808201909152600980825268426c7565626572727960b81b60209092019182526200009991600b91620001dd565b50600c805460ff19166012179055348015620000b457600080fd5b50620000c9620000c362000189565b6200018d565b60065460016000620000da62000189565b6001600160a01b03168152602081019190915260400160002055620000fe62000189565b600880546001600160a01b0319166001600160a01b03929092169190911790556200012862000189565b6001600160a01b031660006001600160a01b03167fddf252ad1be2c89b69c2b068fc378daa952ba7f163c4a11628f55a4df523b3ef6d01090ea8dd15c7978437400000006040516200017b919062000283565b60405180910390a36200030e565b3390565b600080546001600160a01b038381166001600160a01b0319831681178455604051919092169283917f8be0079c531659141344cd1fd0a4f28419497f9722a3daafe3b4186f6b6457e09190a35050565b828054620001eb90620002b0565b90600052602060002090601f0160209004810192826200020f57600085556200025a565b82601f106200022a57805160ff19168380011785556200025a565b828001600101855582156200025a579182015b828111156200025a5782518255916020019190600101906200023d565b50620002689291506200026c565b5090565b5b808211156200026857600081556001016200026d565b90815260200190565b600082821015620002ab57634e487b7160e01b81526011600452602481fd5b500390565b600281046001821680620002c557607f821691505b60208210811415620002e757634e487b7160e01b600052602260045260246000fd5b50919050565b6000826200030957634e487b7160e01b81526012600452602481fd5b500690565b611b48806200031e6000396000f3fe608060405234801561001057600080fd5b50600436106101985760003560e01c8063715018a6116100e3578063cba0e9961161008c578063f2cc0c1811610066578063f2cc0c1814610315578063f2fde38b14610328578063f84354f11461033b57610198565b8063cba0e996146102e7578063cd4f98a6146102fa578063dd62ed3e1461030257610198565b8063a071dcf4116100bd578063a071dcf4146102b9578063a457c2d7146102c1578063a9059cbb146102d457610198565b8063715018a6146102945780638da5cb5b1461029c57806395d89b41146102b157610198565b806323b872dd11610145578063395093511161011f578063395093511461025b5780634549b0391461026e57806370a082311461028157610198565b806323b872dd146102205780632d83811914610233578063313ce5671461024657610198565b8063095ea7b311610176578063095ea7b3146101e357806313114a9d1461020357806318160ddd1461021857610198565b8063053ab1821461019d578063061c82d0146101b257806306fdde03146101c5575b600080fd5b6101b06101ab366004611555565b61034e565b005b6101b06101c0366004611555565b610410565b6101cd61044f565b6040516101da91906115bf565b60405180910390f35b6101f66101f136600461152c565b6104e1565b6040516101da91906115b4565b61020b6104ff565b6040516101da91906119d4565b61020b610505565b6101f661022e3660046114f1565b610517565b61020b610241366004611555565b61059e565b61024e6105e1565b6040516101da91906119dd565b6101f661026936600461152c565b6105ea565b61020b61027c36600461156d565b610638565b61020b61028f3660046114a5565b61069f565b6101b0610701565b6102a461074c565b6040516101da91906115a0565b6101cd61075b565b61020b61076a565b6101f66102cf36600461152c565b610770565b6101f66102e236600461152c565b6107d8565b6101f66102f53660046114a5565b6107ec565b6102a461080a565b61020b6103103660046114bf565b610819565b6101b06103233660046114a5565b610844565b6101b06103363660046114a5565b610989565b6101b06103493660046114a5565b6109fa565b6000610358610be9565b6001600160a01b03811660009081526004602052604090205490915060ff161561039d5760405162461bcd60e51b815260040161039490611977565b60405180910390fd5b60006103a883610bed565b505050506001600160a01b0383166000908152600160205260409020549091506103d29082610c39565b6001600160a01b0383166000908152600160205260409020556006546103f89082610c39565b6006556007546104089084610c4c565b600755505050565b6008546001600160a01b0316610424610be9565b6001600160a01b03161461044a5760405162461bcd60e51b81526004016103949061166f565b600955565b6060600a805461045e90611a59565b80601f016020809104026020016040519081016040528092919081815260200182805461048a90611a59565b80156104d75780601f106104ac576101008083540402835291602001916104d7565b820191906000526020600020905b8154815290600101906020018083116104ba57829003601f168201915b5050505050905090565b60006104f56104ee610be9565b8484610c58565b5060015b92915050565b60075490565b6d01090ea8dd15c79784374000000090565b6000610524848484610d0c565b61059484610530610be9565b61058f85604051806060016040528060288152602001611ac6602891396001600160a01b038a1660009081526003602052604081209061056e610be9565b6001600160a01b031681526020810191909152604001600020549190610ed1565b610c58565b5060019392505050565b60006006548211156105c25760405162461bcd60e51b8152600401610394906116a6565b60006105cc610efd565b90506105d88382610f20565b9150505b919050565b600c5460ff1690565b60006104f56105f7610be9565b8461058f8560036000610608610be9565b6001600160a01b03908116825260208083019390935260409182016000908120918c168152925290205490610c4c565b60006d01090ea8dd15c7978437400000008311156106685760405162461bcd60e51b8152600401610394906117f4565b8161068657600061067884610bed565b509294506104f99350505050565b600061069184610bed565b509194506104f99350505050565b6001600160a01b03811660009081526004602052604081205460ff16156106df57506001600160a01b0381166000908152600260205260409020546105dc565b6001600160a01b0382166000908152600160205260409020546104f99061059e565b610709610be9565b6001600160a01b031661071a61074c565b6001600160a01b0316146107405760405162461bcd60e51b81526004016103949061182b565b61074a6000610f2c565b565b6000546001600160a01b031690565b6060600b805461045e90611a59565b60095481565b60006104f561077d610be9565b8461058f85604051806060016040528060258152602001611aee60259139600360006107a7610be9565b6001600160a01b03908116825260208083019390935260409182016000908120918d16815292529020549190610ed1565b60006104f56107e5610be9565b8484610d0c565b6001600160a01b031660009081526004602052604090205460ff1690565b6008546001600160a01b031681565b6001600160a01b03918216600090815260036020908152604080832093909416825291909152205490565b61084c610be9565b6001600160a01b031661085d61074c565b6001600160a01b0316146108835760405162461bcd60e51b81526004016103949061182b565b6001600160a01b03811660009081526004602052604090205460ff16156108bc5760405162461bcd60e51b8152600401610394906117bd565b6001600160a01b03811660009081526001602052604090205415610916576001600160a01b0381166000908152600160205260409020546108fc9061059e565b6001600160a01b0382166000908152600260205260409020555b6001600160a01b03166000818152600460205260408120805460ff191660019081179091556005805491820181559091527f036b6384b5eca791c62761152d0c79bb0604c104a5fb6f4eb0703f3154bb3db001805473ffffffffffffffffffffffffffffffffffffffff19169091179055565b610991610be9565b6001600160a01b03166109a261074c565b6001600160a01b0316146109c85760405162461bcd60e51b81526004016103949061182b565b6001600160a01b0381166109ee5760405162461bcd60e51b815260040161039490611703565b6109f781610f2c565b50565b610a02610be9565b6001600160a01b0316610a1361074c565b6001600160a01b031614610a395760405162461bcd60e51b81526004016103949061182b565b6001600160a01b03811660009081526004602052604090205460ff16610a715760405162461bcd60e51b8152600401610394906117bd565b60005b600554811015610be557816001600160a01b031660058281548110610aa957634e487b7160e01b600052603260045260246000fd5b6000918252602090912001546001600160a01b03161415610bd35760058054610ad490600190611a42565b81548110610af257634e487b7160e01b600052603260045260246000fd5b600091825260209091200154600580546001600160a01b039092169183908110610b2c57634e487b7160e01b600052603260045260246000fd5b6000918252602080832091909101805473ffffffffffffffffffffffffffffffffffffffff19166001600160a01b039485161790559184168152600282526040808220829055600490925220805460ff191690556005805480610b9f57634e487b7160e01b600052603160045260246000fd5b6000828152602090208101600019908101805473ffffffffffffffffffffffffffffffffffffffff19169055019055610be5565b80610bdd81611a94565b915050610a74565b5050565b3390565b6000806000806000806000610c0188610f89565b915091506000610c0f610efd565b90506000806000610c218c8686610fc7565b919e909d50909b509599509397509395505050505050565b6000610c458284611a42565b9392505050565b6000610c4582846119eb565b6001600160a01b038316610c7e5760405162461bcd60e51b81526004016103949061191a565b6001600160a01b038216610ca45760405162461bcd60e51b815260040161039490611760565b6001600160a01b0380841660008181526003602090815260408083209487168084529490915290819020849055517f8c5be1e5ebec7d5bd14f71427d1e84f3dd0314c0f7b2291e5b200ac8c7c3b92590610cff9085906119d4565b60405180910390a3505050565b6001600160a01b038316610d325760405162461bcd60e51b8152600401610394906118bd565b6001600160a01b038216610d585760405162461bcd60e51b815260040161039490611612565b60008111610d785760405162461bcd60e51b815260040161039490611860565b6001600160a01b03831660009081526004602052604090205460ff168015610db957506001600160a01b03821660009081526004602052604090205460ff16155b15610dce57610dc9838383611003565b610ecc565b6001600160a01b03831660009081526004602052604090205460ff16158015610e0f57506001600160a01b03821660009081526004602052604090205460ff165b15610e1f57610dc983838361111a565b6001600160a01b03831660009081526004602052604090205460ff16158015610e6157506001600160a01b03821660009081526004602052604090205460ff16155b15610e7157610dc98383836111c0565b6001600160a01b03831660009081526004602052604090205460ff168015610eb157506001600160a01b03821660009081526004602052604090205460ff165b15610ec157610dc9838383611201565b610ecc8383836111c0565b505050565b60008184841115610ef55760405162461bcd60e51b815260040161039491906115bf565b505050900390565b6000806000610f0a611271565b9092509050610f198282610f20565b9250505090565b6000610c458284611a03565b600080546001600160a01b0383811673ffffffffffffffffffffffffffffffffffffffff19831681178455604051919092169283917f8be0079c531659141344cd1fd0a4f28419497f9722a3daafe3b4186f6b6457e09190a35050565b6000806000610fae600954610fa8606487610f2090919063ffffffff16565b9061145e565b90506000610fbc8583610c39565b935090915050915091565b6000808080610fd6878661145e565b90506000610fe4878761145e565b90506000610ff28383610c39565b929992985090965090945050505050565b600080600080600061101486610bed565b6001600160a01b038d16600090815260026020526040902054949950929750909550935091506110449087610c39565b6001600160a01b0389166000908152600260209081526040808320939093556001905220546110739086610c39565b6001600160a01b03808a1660009081526001602052604080822093909355908916815220546110a29085610c4c565b6001600160a01b0388166000908152600160205260409020556110c5838261146a565b866001600160a01b0316886001600160a01b03167fddf252ad1be2c89b69c2b068fc378daa952ba7f163c4a11628f55a4df523b3ef8460405161110891906119d4565b60405180910390a35050505050505050565b600080600080600061112b86610bed565b6001600160a01b038d166000908152600160205260409020549499509297509095509350915061115b9086610c39565b6001600160a01b03808a16600090815260016020908152604080832094909455918a168152600290915220546111919083610c4c565b6001600160a01b0388166000908152600260209081526040808320939093556001905220546110a29085610c4c565b60008060008060006111d186610bed565b6001600160a01b038d16600090815260016020526040902054949950929750909550935091506110739086610c39565b600080600080600061121286610bed565b6001600160a01b038d16600090815260026020526040902054949950929750909550935091506112429087610c39565b6001600160a01b03891660009081526002602090815260408083209390935560019052205461115b9086610c39565b60065460009081906d01090ea8dd15c797843740000000825b600554811015611414578260016000600584815481106112ba57634e487b7160e01b600052603260045260246000fd5b60009182526020808320909101546001600160a01b031683528201929092526040019020541180611333575081600260006005848154811061130c57634e487b7160e01b600052603260045260246000fd5b60009182526020808320909101546001600160a01b03168352820192909252604001902054115b15611356576006546d01090ea8dd15c7978437400000009450945050505061145a565b6113aa600160006005848154811061137e57634e487b7160e01b600052603260045260246000fd5b60009182526020808320909101546001600160a01b031683528201929092526040019020548490610c39565b925061140060026000600584815481106113d457634e487b7160e01b600052603260045260246000fd5b60009182526020808320909101546001600160a01b031683528201929092526040019020548390610c39565b91508061140c81611a94565b91505061128a565b50600654611430906d01090ea8dd15c797843740000000610f20565b821015611454576006546d01090ea8dd15c79784374000000093509350505061145a565b90925090505b9091565b6000610c458284611a23565b6006546114779083610c39565b6006556007546114879082610c4c565b6007555050565b80356001600160a01b03811681146105dc57600080fd5b6000602082840312156114b6578081fd5b610c458261148e565b600080604083850312156114d1578081fd5b6114da8361148e565b91506114e86020840161148e565b90509250929050565b600080600060608486031215611505578081fd5b61150e8461148e565b925061151c6020850161148e565b9150604084013590509250925092565b6000806040838503121561153e578182fd5b6115478361148e565b946020939093013593505050565b600060208284031215611566578081fd5b5035919050565b6000806040838503121561157f578182fd5b8235915060208301358015158114611595578182fd5b809150509250929050565b6001600160a01b0391909116815260200190565b901515815260200190565b6000602080835283518082850152825b818110156115eb578581018301518582016040015282016115cf565b818111156115fc5783604083870101525b50601f01601f1916929092016040019392505050565b60208082526023908201527f45524332303a207472616e7366657220746f20746865207a65726f206164647260408201527f6573730000000000000000000000000000000000000000000000000000000000606082015260800190565b60208082526016908201527f746178546f5365747465723a20464f5242494444454e00000000000000000000604082015260600190565b6020808252602a908201527f416d6f756e74206d757374206265206c657373207468616e20746f74616c207260408201527f65666c656374696f6e7300000000000000000000000000000000000000000000606082015260800190565b60208082526026908201527f4f776e61626c653a206e6577206f776e657220697320746865207a65726f206160408201527f6464726573730000000000000000000000000000000000000000000000000000606082015260800190565b60208082526022908201527f45524332303a20617070726f766520746f20746865207a65726f20616464726560408201527f7373000000000000000000000000000000000000000000000000000000000000606082015260800190565b6020808252601b908201527f4163636f756e7420697320616c7265616479206578636c756465640000000000604082015260600190565b6020808252601f908201527f416d6f756e74206d757374206265206c657373207468616e20737570706c7900604082015260600190565b6020808252818101527f4f776e61626c653a2063616c6c6572206973206e6f7420746865206f776e6572604082015260600190565b60208082526029908201527f5472616e7366657220616d6f756e74206d75737420626520677265617465722060408201527f7468616e207a65726f0000000000000000000000000000000000000000000000606082015260800190565b60208082526025908201527f45524332303a207472616e736665722066726f6d20746865207a65726f20616460408201527f6472657373000000000000000000000000000000000000000000000000000000606082015260800190565b60208082526024908201527f45524332303a20617070726f76652066726f6d20746865207a65726f2061646460408201527f7265737300000000000000000000000000000000000000000000000000000000606082015260800190565b6020808252602c908201527f4578636c75646564206164647265737365732063616e6e6f742063616c6c207460408201527f6869732066756e6374696f6e0000000000000000000000000000000000000000606082015260800190565b90815260200190565b60ff91909116815260200190565b600082198211156119fe576119fe611aaf565b500190565b600082611a1e57634e487b7160e01b81526012600452602481fd5b500490565b6000816000190483118215151615611a3d57611a3d611aaf565b500290565b600082821015611a5457611a54611aaf565b500390565b600281046001821680611a6d57607f821691505b60208210811415611a8e57634e487b7160e01b600052602260045260246000fd5b50919050565b6000600019821415611aa857611aa8611aaf565b5060010190565b634e487b7160e01b600052601160045260246000fdfe45524332303a207472616e7366657220616d6f756e74206578636565647320616c6c6f77616e636545524332303a2064656372656173656420616c6c6f77616e63652062656c6f77207a65726fa264697066735822122008bf4ed8d19cbbf509a7d76762cc89c45ed8d97230221532884c4ec08050591364736f6c63430008000033",
  "linkReferences": {},
  "deployedLinkReferences": {}
}