{
  "_format": "hh-sol-artifact-1",
  "contractName": "BlueberryRouter",
  "sourceName": "src/contracts/BlueberryRouter.sol",
  "abi": [
    {
      "inputs": [
        {
          "internalType": "address",
          "name": "_factory",
          "type": "address"
        },
        {
          "internalType": "address",
          "name": "_WETH",
          "type": "address"
        }
      ],
      "stateMutability": "nonpayable",
      "type": "constructor"
    },
    {
      "inputs": [],
      "name": "WETH",
      "outputs": [
        {
          "internalType": "address",
          "name": "",
          "type": "address"
        }
      ],
      "stateMutability": "view",
      "type": "function"
    },
    {
      "inputs": [
        {
          "internalType": "address",
          "name": "tokenA",
          "type": "address"
        },
        {
          "internalType": "address",
          "name": "tokenB",
          "type": "address"
        },
        {
          "internalType": "uint256",
          "name": "amountADesired",
          "type": "uint256"
        },
        {
          "internalType": "uint256",
          "name": "amountBDesired",
          "type": "uint256"
        },
        {
          "internalType": "uint256",
          "name": "amountAMin",
          "type": "uint256"
        },
        {
          "internalType": "uint256",
          "name": "amountBMin",
          "type": "uint256"
        },
        {
          "internalType": "address",
          "name": "to",
          "type": "address"
        },
        {
          "internalType": "uint256",
          "name": "deadline",
          "type": "uint256"
        }
      ],
      "name": "addLiquidity",
      "outputs": [
        {
          "internalType": "uint256",
          "name": "amountA",
          "type": "uint256"
        },
        {
          "internalType": "uint256",
          "name": "amountB",
          "type": "uint256"
        },
        {
          "internalType": "uint256",
          "name": "liquidity",
          "type": "uint256"
        }
      ],
      "stateMutability": "nonpayable",
      "type": "function"
    },
    {
      "inputs": [
        {
          "internalType": "address",
          "name": "token",
          "type": "address"
        },
        {
          "internalType": "uint256",
          "name": "amountTokenDesired",
          "type": "uint256"
        },
        {
          "internalType": "uint256",
          "name": "amountTokenMin",
          "type": "uint256"
        },
        {
          "internalType": "uint256",
          "name": "amountETHMin",
          "type": "uint256"
        },
        {
          "internalType": "address",
          "name": "to",
          "type": "address"
        },
        {
          "internalType": "uint256",
          "name": "deadline",
          "type": "uint256"
        }
      ],
      "name": "addLiquidityETH",
      "outputs": [
        {
          "internalType": "uint256",
          "name": "amountToken",
          "type": "uint256"
        },
        {
          "internalType": "uint256",
          "name": "amountETH",
          "type": "uint256"
        },
        {
          "internalType": "uint256",
          "name": "liquidity",
          "type": "uint256"
        }
      ],
      "stateMutability": "payable",
      "type": "function"
    },
    {
      "inputs": [],
      "name": "factory",
      "outputs": [
        {
          "internalType": "address",
          "name": "",
          "type": "address"
        }
      ],
      "stateMutability": "view",
      "type": "function"
    },
    {
      "inputs": [
        {
          "internalType": "uint256",
          "name": "amountOut",
          "type": "uint256"
        },
        {
          "internalType": "uint256",
          "name": "reserveIn",
          "type": "uint256"
        },
        {
          "internalType": "uint256",
          "name": "reserveOut",
          "type": "uint256"
        }
      ],
      "name": "getAmountIn",
      "outputs": [
        {
          "internalType": "uint256",
          "name": "amountIn",
          "type": "uint256"
        }
      ],
      "stateMutability": "pure",
      "type": "function"
    },
    {
      "inputs": [
        {
          "internalType": "uint256",
          "name": "amountIn",
          "type": "uint256"
        },
        {
          "internalType": "uint256",
          "name": "reserveIn",
          "type": "uint256"
        },
        {
          "internalType": "uint256",
          "name": "reserveOut",
          "type": "uint256"
        }
      ],
      "name": "getAmountOut",
      "outputs": [
        {
          "internalType": "uint256",
          "name": "amountOut",
          "type": "uint256"
        }
      ],
      "stateMutability": "pure",
      "type": "function"
    },
    {
      "inputs": [
        {
          "internalType": "uint256",
          "name": "amountOut",
          "type": "uint256"
        },
        {
          "internalType": "address[]",
          "name": "path",
          "type": "address[]"
        }
      ],
      "name": "getAmountsIn",
      "outputs": [
        {
          "internalType": "uint256[]",
          "name": "amounts",
          "type": "uint256[]"
        }
      ],
      "stateMutability": "view",
      "type": "function"
    },
    {
      "inputs": [
        {
          "internalType": "uint256",
          "name": "amountIn",
          "type": "uint256"
        },
        {
          "internalType": "address[]",
          "name": "path",
          "type": "address[]"
        }
      ],
      "name": "getAmountsOut",
      "outputs": [
        {
          "internalType": "uint256[]",
          "name": "amounts",
          "type": "uint256[]"
        }
      ],
      "stateMutability": "view",
      "type": "function"
    },
    {
      "inputs": [
        {
          "internalType": "uint256",
          "name": "amountA",
          "type": "uint256"
        },
        {
          "internalType": "uint256",
          "name": "reserveA",
          "type": "uint256"
        },
        {
          "internalType": "uint256",
          "name": "reserveB",
          "type": "uint256"
        }
      ],
      "name": "quote",
      "outputs": [
        {
          "internalType": "uint256",
          "name": "amountB",
          "type": "uint256"
        }
      ],
      "stateMutability": "pure",
      "type": "function"
    },
    {
      "inputs": [
        {
          "internalType": "address",
          "name": "tokenA",
          "type": "address"
        },
        {
          "internalType": "address",
          "name": "tokenB",
          "type": "address"
        },
        {
          "internalType": "uint256",
          "name": "liquidity",
          "type": "uint256"
        },
        {
          "internalType": "uint256",
          "name": "amountAMin",
          "type": "uint256"
        },
        {
          "internalType": "uint256",
          "name": "amountBMin",
          "type": "uint256"
        },
        {
          "internalType": "address",
          "name": "to",
          "type": "address"
        },
        {
          "internalType": "uint256",
          "name": "deadline",
          "type": "uint256"
        }
      ],
      "name": "removeLiquidity",
      "outputs": [
        {
          "internalType": "uint256",
          "name": "amountA",
          "type": "uint256"
        },
        {
          "internalType": "uint256",
          "name": "amountB",
          "type": "uint256"
        }
      ],
      "stateMutability": "nonpayable",
      "type": "function"
    },
    {
      "inputs": [
        {
          "internalType": "address",
          "name": "token",
          "type": "address"
        },
        {
          "internalType": "uint256",
          "name": "liquidity",
          "type": "uint256"
        },
        {
          "internalType": "uint256",
          "name": "amountTokenMin",
          "type": "uint256"
        },
        {
          "internalType": "uint256",
          "name": "amountETHMin",
          "type": "uint256"
        },
        {
          "internalType": "address",
          "name": "to",
          "type": "address"
        },
        {
          "internalType": "uint256",
          "name": "deadline",
          "type": "uint256"
        }
      ],
      "name": "removeLiquidityETH",
      "outputs": [
        {
          "internalType": "uint256",
          "name": "amountToken",
          "type": "uint256"
        },
        {
          "internalType": "uint256",
          "name": "amountETH",
          "type": "uint256"
        }
      ],
      "stateMutability": "nonpayable",
      "type": "function"
    },
    {
      "inputs": [
        {
          "internalType": "address",
          "name": "token",
          "type": "address"
        },
        {
          "internalType": "uint256",
          "name": "liquidity",
          "type": "uint256"
        },
        {
          "internalType": "uint256",
          "name": "amountTokenMin",
          "type": "uint256"
        },
        {
          "internalType": "uint256",
          "name": "amountETHMin",
          "type": "uint256"
        },
        {
          "internalType": "address",
          "name": "to",
          "type": "address"
        },
        {
          "internalType": "uint256",
          "name": "deadline",
          "type": "uint256"
        }
      ],
      "name": "removeLiquidityETHSupportingFeeOnTransferTokens",
      "outputs": [
        {
          "internalType": "uint256",
          "name": "amountETH",
          "type": "uint256"
        }
      ],
      "stateMutability": "nonpayable",
      "type": "function"
    },
    {
      "inputs": [
        {
          "internalType": "uint256",
          "name": "amountOutMin",
          "type": "uint256"
        },
        {
          "internalType": "address[]",
          "name": "path",
          "type": "address[]"
        },
        {
          "internalType": "address",
          "name": "to",
          "type": "address"
        },
        {
          "internalType": "uint256",
          "name": "deadline",
          "type": "uint256"
        }
      ],
      "name": "swapExactETHForTokens",
      "outputs": [
        {
          "internalType": "uint256[]",
          "name": "amounts",
          "type": "uint256[]"
        }
      ],
      "stateMutability": "payable",
      "type": "function"
    },
    {
      "inputs": [
        {
          "internalType": "uint256",
          "name": "amountOutMin",
          "type": "uint256"
        },
        {
          "internalType": "address[]",
          "name": "path",
          "type": "address[]"
        },
        {
          "internalType": "address",
          "name": "to",
          "type": "address"
        },
        {
          "internalType": "uint256",
          "name": "deadline",
          "type": "uint256"
        }
      ],
      "name": "swapExactETHForTokensSupportingFeeOnTransferTokens",
      "outputs": [],
      "stateMutability": "payable",
      "type": "function"
    },
    {
      "inputs": [
        {
          "internalType": "uint256",
          "name": "amountIn",
          "type": "uint256"
        },
        {
          "internalType": "uint256",
          "name": "amountOutMin",
          "type": "uint256"
        },
        {
          "internalType": "address[]",
          "name": "path",
          "type": "address[]"
        },
        {
          "internalType": "address",
          "name": "to",
          "type": "address"
        },
        {
          "internalType": "uint256",
          "name": "deadline",
          "type": "uint256"
        }
      ],
      "name": "swapExactTokensForETHSupportingFeeOnTransferTokens",
      "outputs": [],
      "stateMutability": "nonpayable",
      "type": "function"
    },
    {
      "inputs": [
        {
          "internalType": "uint256",
          "name": "amountIn",
          "type": "uint256"
        },
        {
          "internalType": "uint256",
          "name": "amountOutMin",
          "type": "uint256"
        },
        {
          "internalType": "address[]",
          "name": "path",
          "type": "address[]"
        },
        {
          "internalType": "address",
          "name": "to",
          "type": "address"
        },
        {
          "internalType": "uint256",
          "name": "deadline",
          "type": "uint256"
        }
      ],
      "name": "swapExactTokensForTokensSupportingFeeOnTransferTokens",
      "outputs": [],
      "stateMutability": "nonpayable",
      "type": "function"
    },
    {
      "stateMutability": "payable",
      "type": "receive"
    }
  ],
  "bytecode": "0x60c06040523480156200001157600080fd5b5060405162003c0638038062003c06833981016040819052620000349162000070565b6001600160601b0319606092831b8116608052911b1660a052620000a7565b80516001600160a01b03811681146200006b57600080fd5b919050565b6000806040838503121562000083578182fd5b6200008e8362000053565b91506200009e6020840162000053565b90509250929050565b60805160601c60a05160601c613a45620001c1600039600081816101070152818161038c015281816103dc015281816107af015281816108b00152818161096e01528181610a0401528181610b3e01528181610bda01528181610d5601528181610dae01528181610e7b01528181610f1a01528181610fa5015281816110190152818161167e015281816116d40152818161170801526117a70152600081816104750152818161050401528181610a8d01528181610c0c0152818161104b01528181611320015281816114f30152818161151c01528181611582015281816116b201528181611ee4015281816120b9015281816124600152818161249301528181612717015281816127e501526128780152613a456000f3fe6080604052600436106100f75760003560e01c8063ad615dec1161008a578063c45a015511610059578063c45a0155146102e2578063d06ca61f146102f7578063e8e3370014610317578063f305d7191461034657610144565b8063ad615dec1461026f578063af2979eb1461028f578063b6f9de95146102af578063baa2abde146102c257610144565b8063791ac947116100c6578063791ac947146101fa5780637ff36ab51461021a57806385f8c2591461022d578063ad5c46481461024d57610144565b806302751cec14610149578063054d50d4146101805780631f00ca74146101ad5780635c11d795146101da57610144565b3661014457336001600160a01b037f0000000000000000000000000000000000000000000000000000000000000000161461014257634e487b7160e01b600052600160045260246000fd5b005b600080fd5b34801561015557600080fd5b50610169610164366004612c81565b610359565b60405161017792919061388a565b60405180910390f35b34801561018c57600080fd5b506101a061019b366004612f2a565b610459565b6040516101779190613881565b3480156101b957600080fd5b506101cd6101c8366004612dc9565b61046e565b6040516101779190613071565b3480156101e657600080fd5b506101426101f5366004612eb9565b6104a4565b34801561020657600080fd5b50610142610215366004612eb9565b610784565b6101cd610228366004612d64565b6109df565b34801561023957600080fd5b506101a0610248366004612f2a565b610d47565b34801561025957600080fd5b50610262610d54565b6040516101779190613006565b34801561027b57600080fd5b506101a061028a366004612f2a565b610d78565b34801561029b57600080fd5b506101a06102aa366004612c81565b610d85565b6101426102bd366004612d64565b610ef7565b3480156102ce57600080fd5b506101696102dd366004612b95565b6112f5565b3480156102ee57600080fd5b506102626114f1565b34801561030357600080fd5b506101cd610312366004612dc9565b611515565b34801561032357600080fd5b50610337610332366004612c06565b611542565b604051610177939291906138e9565b610337610354366004612c81565b611652565b60008082428110156103865760405162461bcd60e51b815260040161037d906134b8565b60405180910390fd5b6103b5897f00000000000000000000000000000000000000000000000000000000000000008a8a8a308a6112f5565b90935091506103c58986856118f6565b604051632e1a7d4d60e01b81526001600160a01b037f00000000000000000000000000000000000000000000000000000000000000001690632e1a7d4d90610411908590600401613881565b600060405180830381600087803b15801561042b57600080fd5b505af115801561043f573d6000803e3d6000fd5b5050505061044d85836119f8565b50965096945050505050565b6000610466848484611a8a565b949350505050565b606061049b7f00000000000000000000000000000000000000000000000000000000000000008484611b24565b90505b92915050565b80428110156104c55760405162461bcd60e51b815260040161037d906134b8565b61059a858560008181106104e957634e487b7160e01b600052603260045260246000fd5b90506020020160208101906104fe9190612b56565b336105947f00000000000000000000000000000000000000000000000000000000000000008989600081811061054457634e487b7160e01b600052603260045260246000fd5b90506020020160208101906105599190612b56565b8a8a600181811061057a57634e487b7160e01b600052603260045260246000fd5b905060200201602081019061058f9190612b56565b611cde565b8a611d4e565b600085856105a9600182613956565b8181106105c657634e487b7160e01b600052603260045260246000fd5b90506020020160208101906105db9190612b56565b6001600160a01b03166370a08231856040518263ffffffff1660e01b81526004016106069190613006565b60206040518083038186803b15801561061e57600080fd5b505afa158015610632573d6000803e3d6000fd5b505050506040513d601f19601f820116820180604052508101906106569190612d4c565b9050610696868680806020026020016040519081016040528093929190818152602001838360200280828437600092019190915250889250611e53915050565b868187876106a5600182613956565b8181106106c257634e487b7160e01b600052603260045260246000fd5b90506020020160208101906106d79190612b56565b6001600160a01b03166370a08231876040518263ffffffff1660e01b81526004016107029190613006565b60206040518083038186803b15801561071a57600080fd5b505afa15801561072e573d6000803e3d6000fd5b505050506040513d601f19601f820116820180604052508101906107529190612d4c565b61075c9190613956565b101561077a5760405162461bcd60e51b815260040161037d90613534565b5050505050505050565b80428110156107a55760405162461bcd60e51b815260040161037d906134b8565b6001600160a01b037f00000000000000000000000000000000000000000000000000000000000000001685856107dc600182613956565b8181106107f957634e487b7160e01b600052603260045260246000fd5b905060200201602081019061080e9190612b56565b6001600160a01b0316146108345760405162461bcd60e51b815260040161037d90613191565b610858858560008181106104e957634e487b7160e01b600052603260045260246000fd5b610896858580806020026020016040519081016040528093929190818152602001838360200280828437600092019190915250309250611e53915050565b6040516370a0823160e01b81526000906001600160a01b037f000000000000000000000000000000000000000000000000000000000000000016906370a08231906108e5903090600401613006565b60206040518083038186803b1580156108fd57600080fd5b505afa158015610911573d6000803e3d6000fd5b505050506040513d601f19601f820116820180604052508101906109359190612d4c565b9050868110156109575760405162461bcd60e51b815260040161037d90613424565b604051632e1a7d4d60e01b81526001600160a01b037f00000000000000000000000000000000000000000000000000000000000000001690632e1a7d4d906109a3908490600401613881565b600060405180830381600087803b1580156109bd57600080fd5b505af11580156109d1573d6000803e3d6000fd5b5050505061077a84826119f8565b60608142811015610a025760405162461bcd60e51b815260040161037d906134b8565b7f00000000000000000000000000000000000000000000000000000000000000006001600160a01b031686866000818110610a4d57634e487b7160e01b600052603260045260246000fd5b9050602002016020810190610a629190612b56565b6001600160a01b031614610a885760405162461bcd60e51b815260040161037d90613481565b610ae67f0000000000000000000000000000000000000000000000000000000000000000348888808060200260200160405190810160405280939291908181526020018383602002808284376000920191909152506121b992505050565b9150868260018451610af89190613956565b81518110610b1657634e487b7160e01b600052603260045260246000fd5b60200260200101511015610b3c5760405162461bcd60e51b815260040161037d90613706565b7f00000000000000000000000000000000000000000000000000000000000000006001600160a01b031663d0e30db083600081518110610b8c57634e487b7160e01b600052603260045260246000fd5b60200260200101516040518263ffffffff1660e01b81526004016000604051808303818588803b158015610bbf57600080fd5b505af1158015610bd3573d6000803e3d6000fd5b50505050507f00000000000000000000000000000000000000000000000000000000000000006001600160a01b031663a9059cbb610c4c7f00000000000000000000000000000000000000000000000000000000000000008989600081811061054457634e487b7160e01b600052603260045260246000fd5b84600081518110610c6d57634e487b7160e01b600052603260045260246000fd5b60200260200101516040518363ffffffff1660e01b8152600401610c92929190613058565b602060405180830381600087803b158015610cac57600080fd5b505af1158015610cc0573d6000803e3d6000fd5b505050506040513d601f19601f82011682018060405250810190610ce49190612cde565b610cfe57634e487b7160e01b600052600160045260246000fd5b610d3d82878780806020026020016040519081016040528093929190818152602001838360200280828437600092019190915250899250612353915050565b5095945050505050565b6000610466848484612568565b7f000000000000000000000000000000000000000000000000000000000000000081565b60006104668484846125fc565b60008142811015610da85760405162461bcd60e51b815260040161037d906134b8565b610dd7887f000000000000000000000000000000000000000000000000000000000000000089898930896112f5565b6040516370a0823160e01b8152909350610e649150899086906001600160a01b038316906370a0823190610e0f903090600401613006565b60206040518083038186803b158015610e2757600080fd5b505afa158015610e3b573d6000803e3d6000fd5b505050506040513d601f19601f82011682018060405250810190610e5f9190612d4c565b6118f6565b604051632e1a7d4d60e01b81526001600160a01b037f00000000000000000000000000000000000000000000000000000000000000001690632e1a7d4d90610eb0908590600401613881565b600060405180830381600087803b158015610eca57600080fd5b505af1158015610ede573d6000803e3d6000fd5b50505050610eec84836119f8565b509695505050505050565b8042811015610f185760405162461bcd60e51b815260040161037d906134b8565b7f00000000000000000000000000000000000000000000000000000000000000006001600160a01b031685856000818110610f6357634e487b7160e01b600052603260045260246000fd5b9050602002016020810190610f789190612b56565b6001600160a01b031614610f9e5760405162461bcd60e51b815260040161037d9061383e565b60003490507f00000000000000000000000000000000000000000000000000000000000000006001600160a01b031663d0e30db0826040518263ffffffff1660e01b81526004016000604051808303818588803b158015610ffe57600080fd5b505af1158015611012573d6000803e3d6000fd5b50505050507f00000000000000000000000000000000000000000000000000000000000000006001600160a01b031663a9059cbb61108b7f00000000000000000000000000000000000000000000000000000000000000008989600081811061054457634e487b7160e01b600052603260045260246000fd5b836040518363ffffffff1660e01b81526004016110a9929190613058565b602060405180830381600087803b1580156110c357600080fd5b505af11580156110d7573d6000803e3d6000fd5b505050506040513d601f19601f820116820180604052508101906110fb9190612cde565b61111557634e487b7160e01b600052600160045260246000fd5b60008686611124600182613956565b81811061114157634e487b7160e01b600052603260045260246000fd5b90506020020160208101906111569190612b56565b6001600160a01b03166370a08231866040518263ffffffff1660e01b81526004016111819190613006565b60206040518083038186803b15801561119957600080fd5b505afa1580156111ad573d6000803e3d6000fd5b505050506040513d601f19601f820116820180604052508101906111d19190612d4c565b9050611211878780806020026020016040519081016040528093929190818152602001838360200280828437600092019190915250899250611e53915050565b87818888611220600182613956565b81811061123d57634e487b7160e01b600052603260045260246000fd5b90506020020160208101906112529190612b56565b6001600160a01b03166370a08231886040518263ffffffff1660e01b815260040161127d9190613006565b60206040518083038186803b15801561129557600080fd5b505afa1580156112a9573d6000803e3d6000fd5b505050506040513d601f19601f820116820180604052508101906112cd9190612d4c565b6112d79190613956565b101561077a5760405162461bcd60e51b815260040161037d90613390565b60008082428110156113195760405162461bcd60e51b815260040161037d906134b8565b60006113467f00000000000000000000000000000000000000000000000000000000000000008c8c611cde565b6040517f23b872dd0000000000000000000000000000000000000000000000000000000081529091506001600160a01b038216906323b872dd9061139290339085908e90600401613034565b602060405180830381600087803b1580156113ac57600080fd5b505af11580156113c0573d6000803e3d6000fd5b505050506040513d601f19601f820116820180604052508101906113e49190612cde565b50600080826001600160a01b03166389afcb44896040518263ffffffff1660e01b81526004016114149190613006565b6040805180830381600087803b15801561142d57600080fd5b505af1158015611441573d6000803e3d6000fd5b505050506040513d601f19601f820116820180604052508101906114659190612e96565b9150915060006114758e8e61265e565b509050806001600160a01b03168e6001600160a01b03161461149857818361149b565b82825b90975095508a8710156114c05760405162461bcd60e51b815260040161037d90613635565b898610156114e05760405162461bcd60e51b815260040161037d906136c0565b505050505097509795505050505050565b7f000000000000000000000000000000000000000000000000000000000000000081565b606061049b7f000000000000000000000000000000000000000000000000000000000000000084846121b9565b600080600083428110156115685760405162461bcd60e51b815260040161037d906134b8565b6115768c8c8c8c8c8c6126e8565b909450925060006115a87f00000000000000000000000000000000000000000000000000000000000000008e8e611cde565b90506115b68d338388611d4e565b6115c28c338387611d4e565b6040516335313c2160e11b81526001600160a01b03821690636a627842906115ee908a90600401613006565b602060405180830381600087803b15801561160857600080fd5b505af115801561161c573d6000803e3d6000fd5b505050506040513d601f19601f820116820180604052508101906116409190612d4c565b92505050985098509895505050505050565b600080600083428110156116785760405162461bcd60e51b815260040161037d906134b8565b6116a68a7f00000000000000000000000000000000000000000000000000000000000000008b348c8c6126e8565b909450925060006116f87f00000000000000000000000000000000000000000000000000000000000000008c7f0000000000000000000000000000000000000000000000000000000000000000611cde565b90506117068b338388611d4e565b7f00000000000000000000000000000000000000000000000000000000000000006001600160a01b031663d0e30db0856040518263ffffffff1660e01b81526004016000604051808303818588803b15801561176157600080fd5b505af1158015611775573d6000803e3d6000fd5b50506040517fa9059cbb0000000000000000000000000000000000000000000000000000000081526001600160a01b037f000000000000000000000000000000000000000000000000000000000000000016935063a9059cbb92506117e1915084908890600401613058565b602060405180830381600087803b1580156117fb57600080fd5b505af115801561180f573d6000803e3d6000fd5b505050506040513d601f19601f820116820180604052508101906118339190612cde565b61184d57634e487b7160e01b600052600160045260246000fd5b6040516335313c2160e11b81526001600160a01b03821690636a62784290611879908a90600401613006565b602060405180830381600087803b15801561189357600080fd5b505af11580156118a7573d6000803e3d6000fd5b505050506040513d601f19601f820116820180604052508101906118cb9190612d4c565b9250833411156118e8576118e8336118e38634613956565b6119f8565b505096509650969350505050565b600080846001600160a01b031663a9059cbb858560405160240161191b929190613058565b6040516020818303038152906040529060e01b6020820180517bffffffffffffffffffffffffffffffffffffffffffffffffffffffff83818316178352505050506040516119699190612f7c565b6000604051808303816000865af19150503d80600081146119a6576040519150601f19603f3d011682016040523d82523d6000602084013e6119ab565b606091505b50915091508180156119d55750805115806119d55750808060200190518101906119d59190612cde565b6119f15760405162461bcd60e51b815260040161037d9061379a565b5050505050565b604080516000808252602082019092526001600160a01b038416908390604051611a229190612f7c565b60006040518083038185875af1925050503d8060008114611a5f576040519150601f19603f3d011682016040523d82523d6000602084013e611a64565b606091505b5050905080611a855760405162461bcd60e51b815260040161037d906132c5565b505050565b6000808411611aab5760405162461bcd60e51b815260040161037d90613591565b600083118015611abb5750600082115b611ad75760405162461bcd60e51b815260040161037d9061320b565b6000611ae5856103de612963565b90506000611af38285612963565b90506000611b0d83611b07886103e8612963565b906129a3565b9050611b198183613917565b979650505050505050565b6060600282511015611b485760405162461bcd60e51b815260040161037d90613359565b815167ffffffffffffffff811115611b7057634e487b7160e01b600052604160045260246000fd5b604051908082528060200260200182016040528015611b99578160200160208202803683370190505b509050828160018351611bac9190613956565b81518110611bca57634e487b7160e01b600052603260045260246000fd5b602002602001018181525050600060018351611be69190613956565b90505b8015611cd657600080611c558786611c02600187613956565b81518110611c2057634e487b7160e01b600052603260045260246000fd5b6020026020010151878681518110611c4857634e487b7160e01b600052603260045260246000fd5b60200260200101516129d1565b91509150611c8b848481518110611c7c57634e487b7160e01b600052603260045260246000fd5b60200260200101518383612568565b84611c97600186613956565b81518110611cb557634e487b7160e01b600052603260045260246000fd5b60200260200101818152505050508080611cce90613999565b915050611be9565b509392505050565b6000806000611ced858561265e565b91509150858282604051602001611d05929190612f55565b60405160208183030381529060405280519060200120604051602001611d2c929190612f98565b60408051601f1981840301815291905280516020909101209695505050505050565b600080856001600160a01b03166323b872dd868686604051602401611d7593929190613034565b6040516020818303038152906040529060e01b6020820180517bffffffffffffffffffffffffffffffffffffffffffffffffffffffff8381831617835250505050604051611dc39190612f7c565b6000604051808303816000865af19150503d8060008114611e00576040519150601f19603f3d011682016040523d82523d6000602084013e611e05565b606091505b5091509150818015611e2f575080511580611e2f575080806020019051810190611e2f9190612cde565b611e4b5760405162461bcd60e51b815260040161037d90613268565b505050505050565b60005b60018351611e649190613956565b811015611a8557600080848381518110611e8e57634e487b7160e01b600052603260045260246000fd5b602002602001015185846001611ea491906138ff565b81518110611ec257634e487b7160e01b600052603260045260246000fd5b6020026020010151915091506000611eda838361265e565b5090506000611f0a7f00000000000000000000000000000000000000000000000000000000000000008585611cde565b9050600080600080846001600160a01b0316630902f1ac6040518163ffffffff1660e01b815260040160606040518083038186803b158015611f4b57600080fd5b505afa158015611f5f573d6000803e3d6000fd5b505050506040513d601f19601f82011682018060405250810190611f839190612cfe565b506dffffffffffffffffffffffffffff1691506dffffffffffffffffffffffffffff169150600080876001600160a01b03168a6001600160a01b031614611fcb578284611fce565b83835b91509150818a6001600160a01b03166370a08231896040518263ffffffff1660e01b8152600401611fff9190613006565b60206040518083038186803b15801561201757600080fd5b505afa15801561202b573d6000803e3d6000fd5b505050506040513d601f19601f8201168201806040525081019061204f9190612d4c565b6120599190613956565b9550612066868383611a8a565b945050505050600080856001600160a01b0316886001600160a01b03161461209057826000612094565b6000835b91509150600060028c516120a89190613956565b8a106120b4578a612110565b6121107f0000000000000000000000000000000000000000000000000000000000000000898e6120e58e60026138ff565b8151811061210357634e487b7160e01b600052603260045260246000fd5b6020026020010151611cde565b604080516000815260208101918290527f022c0d9f000000000000000000000000000000000000000000000000000000009091529091506001600160a01b0387169063022c0d9f9061216b9086908690869060248101613898565b600060405180830381600087803b15801561218557600080fd5b505af1158015612199573d6000803e3d6000fd5b5050505050505050505050505080806121b1906139b0565b915050611e56565b60606002825110156121dd5760405162461bcd60e51b815260040161037d90613322565b815167ffffffffffffffff81111561220557634e487b7160e01b600052604160045260246000fd5b60405190808252806020026020018201604052801561222e578160200160208202803683370190505b509050828160008151811061225357634e487b7160e01b600052603260045260246000fd5b60200260200101818152505060005b600183516122709190613956565b811015611cd6576000806122d28786858151811061229e57634e487b7160e01b600052603260045260246000fd5b6020026020010151878660016122b491906138ff565b81518110611c4857634e487b7160e01b600052603260045260246000fd5b915091506123088484815181106122f957634e487b7160e01b600052603260045260246000fd5b60200260200101518383611a8a565b846123148560016138ff565b8151811061233257634e487b7160e01b600052603260045260246000fd5b6020026020010181815250505050808061234b906139b0565b915050612262565b60005b600183516123649190613956565b8110156125625760008084838151811061238e57634e487b7160e01b600052603260045260246000fd5b6020026020010151858460016123a491906138ff565b815181106123c257634e487b7160e01b600052603260045260246000fd5b60200260200101519150915060006123da838361265e565b5090506000876123eb8660016138ff565b8151811061240957634e487b7160e01b600052603260045260246000fd5b60200260200101519050600080836001600160a01b0316866001600160a01b0316146124375782600061243b565b6000835b91509150600060028a5161244f9190613956565b881061245b578861248c565b61248c7f0000000000000000000000000000000000000000000000000000000000000000878c6120e58c60026138ff565b90506124b97f00000000000000000000000000000000000000000000000000000000000000008888611cde565b6001600160a01b031663022c0d9f84848460006040519080825280601f01601f1916602001820160405280156124f6576020820181803683370190505b506040518563ffffffff1660e01b81526004016125169493929190613898565b600060405180830381600087803b15801561253057600080fd5b505af1158015612544573d6000803e3d6000fd5b5050505050505050505050808061255a906139b0565b915050612356565b50505050565b60008084116125895760405162461bcd60e51b815260040161037d906137f7565b6000831180156125995750600082115b6125b55760405162461bcd60e51b815260040161037d906135d8565b60006125cd6103e86125c78688612963565b90612963565b905060006125e16103de6125c78689612ab8565b90506125f26001611b078385613917565b9695505050505050565b600080841161261d5760405162461bcd60e51b815260040161037d906130ec565b60008311801561262d5750600082115b6126495760405162461bcd60e51b815260040161037d90613763565b826126548386613937565b6104669190613917565b600080826001600160a01b0316846001600160a01b031614156126935760405162461bcd60e51b815260040161037d9061315a565b826001600160a01b0316846001600160a01b0316106126b35782846126b6565b83835b90925090506001600160a01b0382166126e15760405162461bcd60e51b815260040161037d906133ed565b9250929050565b6040517fe6a43905000000000000000000000000000000000000000000000000000000008152600090819081907f00000000000000000000000000000000000000000000000000000000000000006001600160a01b03169063e6a4390590612756908c908c9060040161301a565b60206040518083038186803b15801561276e57600080fd5b505afa158015612782573d6000803e3d6000fd5b505050506040513d601f19601f820116820180604052508101906127a69190612b79565b6001600160a01b03161415612870576040517fc9c653960000000000000000000000000000000000000000000000000000000081526001600160a01b037f0000000000000000000000000000000000000000000000000000000000000000169063c9c653969061281c908b908b9060040161301a565b602060405180830381600087803b15801561283657600080fd5b505af115801561284a573d6000803e3d6000fd5b505050506040513d601f19601f8201168201806040525081019061286e9190612b79565b505b60008061289e7f00000000000000000000000000000000000000000000000000000000000000008b8b6129d1565b915091508160001480156128b0575080155b156128c057879350869250612956565b60006128cd8984846125fc565b905087811161290157858110156128f65760405162461bcd60e51b815260040161037d906134ef565b889450925082612954565b600061290e8984866125fc565b90508981111561292e57634e487b7160e01b600052600160045260246000fd5b8781101561294e5760405162461bcd60e51b815260040161037d9061367b565b94508793505b505b5050965096945050505050565b6000811580612987575082826129798183613937565b92506129859083613917565b145b61049e5760405162461bcd60e51b815260040161037d90613123565b6000826129b083826138ff565b915081101561049e5760405162461bcd60e51b815260040161037d906131d4565b60008060006129e0858561265e565b5090506000806129f1888888611cde565b6001600160a01b0316630902f1ac6040518163ffffffff1660e01b815260040160606040518083038186803b158015612a2957600080fd5b505afa158015612a3d573d6000803e3d6000fd5b505050506040513d601f19601f82011682018060405250810190612a619190612cfe565b506dffffffffffffffffffffffffffff1691506dffffffffffffffffffffffffffff169150826001600160a01b0316876001600160a01b031614612aa6578082612aa9565b81815b90999098509650505050505050565b600082612ac58382613956565b915081111561049e5760405162461bcd60e51b815260040161037d906130b5565b8035612af1816139f7565b919050565b60008083601f840112612b07578081fd5b50813567ffffffffffffffff811115612b1e578182fd5b60208301915083602080830285010111156126e157600080fd5b80516dffffffffffffffffffffffffffff81168114612af157600080fd5b600060208284031215612b67578081fd5b8135612b72816139f7565b9392505050565b600060208284031215612b8a578081fd5b8151612b72816139f7565b600080600080600080600060e0888a031215612baf578283fd5b8735612bba816139f7565b96506020880135612bca816139f7565b955060408801359450606088013593506080880135925060a0880135612bef816139f7565b8092505060c0880135905092959891949750929550565b600080600080600080600080610100898b031215612c22578081fd5b8835612c2d816139f7565b97506020890135612c3d816139f7565b965060408901359550606089013594506080890135935060a0890135925060c0890135612c69816139f7565b8092505060e089013590509295985092959890939650565b60008060008060008060c08789031215612c99578182fd5b8635612ca4816139f7565b95506020870135945060408701359350606087013592506080870135612cc9816139f7565b8092505060a087013590509295509295509295565b600060208284031215612cef578081fd5b81518015158114612b72578182fd5b600080600060608486031215612d12578283fd5b612d1b84612b38565b9250612d2960208501612b38565b9150604084015163ffffffff81168114612d41578182fd5b809150509250925092565b600060208284031215612d5d578081fd5b5051919050565b600080600080600060808688031215612d7b578081fd5b85359450602086013567ffffffffffffffff811115612d98578182fd5b612da488828901612af6565b9095509350506040860135612db8816139f7565b949793965091946060013592915050565b60008060408385031215612ddb578182fd5b8235915060208084013567ffffffffffffffff80821115612dfa578384fd5b818601915086601f830112612e0d578384fd5b813581811115612e1f57612e1f6139e1565b83810260405185828201018181108582111715612e3e57612e3e6139e1565b604052828152858101935084860182860187018b1015612e5c578788fd5b8795505b83861015612e8557612e7181612ae6565b855260019590950194938601938601612e60565b508096505050505050509250929050565b60008060408385031215612ea8578182fd5b505080516020909101519092909150565b60008060008060008060a08789031215612ed1578384fd5b8635955060208701359450604087013567ffffffffffffffff811115612ef5578485fd5b612f0189828a01612af6565b9095509350506060870135612f15816139f7565b80925050608087013590509295509295509295565b600080600060608486031215612f3e578081fd5b505081359360208301359350604090920135919050565b6bffffffffffffffffffffffff19606093841b811682529190921b16601482015260280190565b60008251612f8e81846020870161396d565b9190910192915050565b7fff00000000000000000000000000000000000000000000000000000000000000815260609290921b6bffffffffffffffffffffffff1916600183015260158201527f903620baf2332667905ccd0903cf4c5499b8a4e286c2a095597422ae99f9b18e603582015260550190565b6001600160a01b0391909116815260200190565b6001600160a01b0392831681529116602082015260400190565b6001600160a01b039384168152919092166020820152604081019190915260600190565b6001600160a01b03929092168252602082015260400190565b6020808252825182820181905260009190848201906040850190845b818110156130a95783518352928401929184019160010161308d565b50909695505050505050565b60208082526015908201527f64732d6d6174682d7375622d756e646572666c6f770000000000000000000000604082015260600190565b6020808252601a908201527f71756f74653a20494e53554646494349454e545f414d4f554e54000000000000604082015260600190565b60208082526014908201527f64732d6d6174682d6d756c2d6f766572666c6f77000000000000000000000000604082015260600190565b6020808252601f908201527f736f7274546f6b656e733a204944454e544943414c5f41444452455353455300604082015260600190565b60208082526023908201527f737761704578616374546f6b656e73466f724554483a20494e56414c49445f50604082015262082a8960eb1b606082015260800190565b60208082526014908201527f64732d6d6174682d6164642d6f766572666c6f77000000000000000000000000604082015260600190565b60208082526024908201527f676574416d6f756e744f75743a20494e53554646494349454e545f4c4951554960408201527f4449545900000000000000000000000000000000000000000000000000000000606082015260800190565b60208082526031908201527f5472616e7366657248656c7065723a3a7472616e7366657246726f6d3a20747260408201527f616e7366657246726f6d206661696c6564000000000000000000000000000000606082015260800190565b60208082526034908201527f5472616e7366657248656c7065723a3a736166655472616e736665724554483a60408201527f20455448207472616e73666572206661696c6564000000000000000000000000606082015260800190565b6020808252601b908201527f676574416d6f756e74734f75743a20494e56414c49445f504154480000000000604082015260600190565b6020808252601a908201527f676574416d6f756e7473496e3a20494e56414c49445f50415448000000000000604082015260600190565b60208082526031908201527f737761704578616374455448466f72546f6b656e733a20494e5355464649434960408201527f454e545f4f55545055545f414d4f554e54000000000000000000000000000000606082015260800190565b60208082526018908201527f736f7274546f6b656e733a205a45524f5f414444524553530000000000000000604082015260600190565b60208082526031908201527f737761704578616374546f6b656e73466f724554483a20494e5355464649434960408201527f454e545f4f55545055545f414d4f554e54000000000000000000000000000000606082015260800190565b6020808252601d908201527f556e69737761705632526f757465723a20494e56414c49445f50415448000000604082015260600190565b60208082526016908201527f526f7574657220656e737572653a204558504952454400000000000000000000604082015260600190565b60208082526025908201527f5f6164644c6971756964697479313a20494e53554646494349454e545f425f416040820152641353d5539560da1b606082015260800190565b6020808252602d908201527f426c756562657272795632526f757465723a20494e53554646494349454e545f60408201527f4f55545055545f414d4f554e5400000000000000000000000000000000000000606082015260800190565b60208082526027908201527f676574416d6f756e744f75743a20494e53554646494349454e545f494e50555460408201526617d05353d5539560ca1b606082015260800190565b60208082526023908201527f676574416d6f756e74496e3a20494e53554646494349454e545f4c495155494460408201527f4954590000000000000000000000000000000000000000000000000000000000606082015260800190565b60208082526026908201527f72656d6f76654c69717569646974793a20494e53554646494349454e545f415f604082015265105353d5539560d21b606082015260800190565b60208082526025908201527f5f6164644c6971756964697479323a20494e53554646494349454e545f415f416040820152641353d5539560da1b606082015260800190565b60208082526026908201527f72656d6f76654c69717569646974793a20494e53554646494349454e545f425f604082015265105353d5539560d21b606082015260800190565b6020808252602b908201527f556e69737761705632526f757465723a20494e53554646494349454e545f4f5560408201527f545055545f414d4f554e54000000000000000000000000000000000000000000606082015260800190565b6020808252601d908201527f71756f74653a20494e53554646494349454e545f4c4951554944495459000000604082015260600190565b6020808252602d908201527f5472616e7366657248656c7065723a3a736166655472616e736665723a20747260408201527f616e73666572206661696c656400000000000000000000000000000000000000606082015260800190565b60208082526027908201527f676574416d6f756e74496e3a20494e53554646494349454e545f4f555450555460408201526617d05353d5539560ca1b606082015260800190565b60208082526023908201527f737761704578616374455448466f72546f6b656e733a20494e56414c49445f50604082015262082a8960eb1b606082015260800190565b90815260200190565b918252602082015260400190565b60008582528460208301526001600160a01b03841660408301526080606083015282518060808401526138d28160a085016020870161396d565b601f01601f19169190910160a00195945050505050565b9283526020830191909152604082015260600190565b60008219821115613912576139126139cb565b500190565b60008261393257634e487b7160e01b81526012600452602481fd5b500490565b6000816000190483118215151615613951576139516139cb565b500290565b600082821015613968576139686139cb565b500390565b60005b83811015613988578181015183820152602001613970565b838111156125625750506000910152565b6000816139a8576139a86139cb565b506000190190565b60006000198214156139c4576139c46139cb565b5060010190565b634e487b7160e01b600052601160045260246000fd5b634e487b7160e01b600052604160045260246000fd5b6001600160a01b0381168114613a0c57600080fd5b5056fea26469706673582212206a2a971596d674801d139b74ecba7475c918b3d59af3ae3aac20a97559ca407064736f6c63430008000033",
  "linkReferences": {},
  "deployedLinkReferences": {}
}