{
  "_format": "hh-sol-artifact-1",
  "contractName": "BlueberryRouter",
  "sourceName": "src/contracts/BlueberryRouter.sol",
  "abi": [
    {
      "inputs": [
        {
          "internalType": "address",
          "name": "_factory",
          "type": "address"
        },
        {
          "internalType": "address",
          "name": "_WETH",
          "type": "address"
        }
      ],
      "stateMutability": "nonpayable",
      "type": "constructor"
    },
    {
      "inputs": [],
      "name": "WETH",
      "outputs": [
        {
          "internalType": "address",
          "name": "",
          "type": "address"
        }
      ],
      "stateMutability": "view",
      "type": "function"
    },
    {
      "inputs": [
        {
          "internalType": "address",
          "name": "tokenA",
          "type": "address"
        },
        {
          "internalType": "address",
          "name": "tokenB",
          "type": "address"
        },
        {
          "internalType": "uint256",
          "name": "amountADesired",
          "type": "uint256"
        },
        {
          "internalType": "uint256",
          "name": "amountBDesired",
          "type": "uint256"
        },
        {
          "internalType": "uint256",
          "name": "amountAMin",
          "type": "uint256"
        },
        {
          "internalType": "uint256",
          "name": "amountBMin",
          "type": "uint256"
        },
        {
          "internalType": "address",
          "name": "to",
          "type": "address"
        },
        {
          "internalType": "uint256",
          "name": "deadline",
          "type": "uint256"
        }
      ],
      "name": "addLiquidity",
      "outputs": [
        {
          "internalType": "uint256",
          "name": "amountA",
          "type": "uint256"
        },
        {
          "internalType": "uint256",
          "name": "amountB",
          "type": "uint256"
        },
        {
          "internalType": "uint256",
          "name": "liquidity",
          "type": "uint256"
        }
      ],
      "stateMutability": "nonpayable",
      "type": "function"
    },
    {
      "inputs": [
        {
          "internalType": "address",
          "name": "token",
          "type": "address"
        },
        {
          "internalType": "uint256",
          "name": "amountTokenDesired",
          "type": "uint256"
        },
        {
          "internalType": "uint256",
          "name": "amountTokenMin",
          "type": "uint256"
        },
        {
          "internalType": "uint256",
          "name": "amountETHMin",
          "type": "uint256"
        },
        {
          "internalType": "address",
          "name": "to",
          "type": "address"
        },
        {
          "internalType": "uint256",
          "name": "deadline",
          "type": "uint256"
        }
      ],
      "name": "addLiquidityETH",
      "outputs": [
        {
          "internalType": "uint256",
          "name": "amountToken",
          "type": "uint256"
        },
        {
          "internalType": "uint256",
          "name": "amountETH",
          "type": "uint256"
        },
        {
          "internalType": "uint256",
          "name": "liquidity",
          "type": "uint256"
        }
      ],
      "stateMutability": "payable",
      "type": "function"
    },
    {
      "inputs": [],
      "name": "factory",
      "outputs": [
        {
          "internalType": "address",
          "name": "",
          "type": "address"
        }
      ],
      "stateMutability": "view",
      "type": "function"
    },
    {
      "inputs": [
        {
          "internalType": "uint256",
          "name": "amountOut",
          "type": "uint256"
        },
        {
          "internalType": "uint256",
          "name": "reserveIn",
          "type": "uint256"
        },
        {
          "internalType": "uint256",
          "name": "reserveOut",
          "type": "uint256"
        }
      ],
      "name": "getAmountIn",
      "outputs": [
        {
          "internalType": "uint256",
          "name": "amountIn",
          "type": "uint256"
        }
      ],
      "stateMutability": "pure",
      "type": "function"
    },
    {
      "inputs": [
        {
          "internalType": "uint256",
          "name": "amountIn",
          "type": "uint256"
        },
        {
          "internalType": "uint256",
          "name": "reserveIn",
          "type": "uint256"
        },
        {
          "internalType": "uint256",
          "name": "reserveOut",
          "type": "uint256"
        }
      ],
      "name": "getAmountOut",
      "outputs": [
        {
          "internalType": "uint256",
          "name": "amountOut",
          "type": "uint256"
        }
      ],
      "stateMutability": "pure",
      "type": "function"
    },
    {
      "inputs": [
        {
          "internalType": "uint256",
          "name": "amountOut",
          "type": "uint256"
        },
        {
          "internalType": "address[]",
          "name": "path",
          "type": "address[]"
        }
      ],
      "name": "getAmountsIn",
      "outputs": [
        {
          "internalType": "uint256[]",
          "name": "amounts",
          "type": "uint256[]"
        }
      ],
      "stateMutability": "view",
      "type": "function"
    },
    {
      "inputs": [
        {
          "internalType": "uint256",
          "name": "amountIn",
          "type": "uint256"
        },
        {
          "internalType": "address[]",
          "name": "path",
          "type": "address[]"
        }
      ],
      "name": "getAmountsOut",
      "outputs": [
        {
          "internalType": "uint256[]",
          "name": "amounts",
          "type": "uint256[]"
        }
      ],
      "stateMutability": "view",
      "type": "function"
    },
    {
      "inputs": [
        {
          "internalType": "uint256",
          "name": "amountA",
          "type": "uint256"
        },
        {
          "internalType": "uint256",
          "name": "reserveA",
          "type": "uint256"
        },
        {
          "internalType": "uint256",
          "name": "reserveB",
          "type": "uint256"
        }
      ],
      "name": "quote",
      "outputs": [
        {
          "internalType": "uint256",
          "name": "amountB",
          "type": "uint256"
        }
      ],
      "stateMutability": "pure",
      "type": "function"
    },
    {
      "inputs": [
        {
          "internalType": "address",
          "name": "tokenA",
          "type": "address"
        },
        {
          "internalType": "address",
          "name": "tokenB",
          "type": "address"
        },
        {
          "internalType": "uint256",
          "name": "liquidity",
          "type": "uint256"
        },
        {
          "internalType": "uint256",
          "name": "amountAMin",
          "type": "uint256"
        },
        {
          "internalType": "uint256",
          "name": "amountBMin",
          "type": "uint256"
        },
        {
          "internalType": "address",
          "name": "to",
          "type": "address"
        },
        {
          "internalType": "uint256",
          "name": "deadline",
          "type": "uint256"
        }
      ],
      "name": "removeLiquidity",
      "outputs": [
        {
          "internalType": "uint256",
          "name": "amountA",
          "type": "uint256"
        },
        {
          "internalType": "uint256",
          "name": "amountB",
          "type": "uint256"
        }
      ],
      "stateMutability": "nonpayable",
      "type": "function"
    },
    {
      "inputs": [
        {
          "internalType": "address",
          "name": "token",
          "type": "address"
        },
        {
          "internalType": "uint256",
          "name": "liquidity",
          "type": "uint256"
        },
        {
          "internalType": "uint256",
          "name": "amountTokenMin",
          "type": "uint256"
        },
        {
          "internalType": "uint256",
          "name": "amountETHMin",
          "type": "uint256"
        },
        {
          "internalType": "address",
          "name": "to",
          "type": "address"
        },
        {
          "internalType": "uint256",
          "name": "deadline",
          "type": "uint256"
        }
      ],
      "name": "removeLiquidityETH",
      "outputs": [
        {
          "internalType": "uint256",
          "name": "amountToken",
          "type": "uint256"
        },
        {
          "internalType": "uint256",
          "name": "amountETH",
          "type": "uint256"
        }
      ],
      "stateMutability": "nonpayable",
      "type": "function"
    },
    {
      "inputs": [
        {
          "internalType": "address",
          "name": "token",
          "type": "address"
        },
        {
          "internalType": "uint256",
          "name": "liquidity",
          "type": "uint256"
        },
        {
          "internalType": "uint256",
          "name": "amountTokenMin",
          "type": "uint256"
        },
        {
          "internalType": "uint256",
          "name": "amountETHMin",
          "type": "uint256"
        },
        {
          "internalType": "address",
          "name": "to",
          "type": "address"
        },
        {
          "internalType": "uint256",
          "name": "deadline",
          "type": "uint256"
        }
      ],
      "name": "removeLiquidityETHSupportingFeeOnTransferTokens",
      "outputs": [
        {
          "internalType": "uint256",
          "name": "amountETH",
          "type": "uint256"
        }
      ],
      "stateMutability": "nonpayable",
      "type": "function"
    },
    {
      "inputs": [
        {
          "internalType": "uint256",
          "name": "amountOutMin",
          "type": "uint256"
        },
        {
          "internalType": "address[]",
          "name": "path",
          "type": "address[]"
        },
        {
          "internalType": "address",
          "name": "to",
          "type": "address"
        },
        {
          "internalType": "uint256",
          "name": "deadline",
          "type": "uint256"
        }
      ],
      "name": "swapExactETHForTokens",
      "outputs": [
        {
          "internalType": "uint256[]",
          "name": "amounts",
          "type": "uint256[]"
        }
      ],
      "stateMutability": "payable",
      "type": "function"
    },
    {
      "inputs": [
        {
          "internalType": "uint256",
          "name": "amountOutMin",
          "type": "uint256"
        },
        {
          "internalType": "address[]",
          "name": "path",
          "type": "address[]"
        },
        {
          "internalType": "address",
          "name": "to",
          "type": "address"
        },
        {
          "internalType": "uint256",
          "name": "deadline",
          "type": "uint256"
        }
      ],
      "name": "swapExactETHForTokensSupportingFeeOnTransferTokens",
      "outputs": [],
      "stateMutability": "payable",
      "type": "function"
    },
    {
      "inputs": [
        {
          "internalType": "uint256",
          "name": "amountIn",
          "type": "uint256"
        },
        {
          "internalType": "uint256",
          "name": "amountOutMin",
          "type": "uint256"
        },
        {
          "internalType": "address[]",
          "name": "path",
          "type": "address[]"
        },
        {
          "internalType": "address",
          "name": "to",
          "type": "address"
        },
        {
          "internalType": "uint256",
          "name": "deadline",
          "type": "uint256"
        }
      ],
      "name": "swapExactTokensForETHSupportingFeeOnTransferTokens",
      "outputs": [],
      "stateMutability": "nonpayable",
      "type": "function"
    },
    {
      "inputs": [
        {
          "internalType": "uint256",
          "name": "amountIn",
          "type": "uint256"
        },
        {
          "internalType": "uint256",
          "name": "amountOutMin",
          "type": "uint256"
        },
        {
          "internalType": "address[]",
          "name": "path",
          "type": "address[]"
        },
        {
          "internalType": "address",
          "name": "to",
          "type": "address"
        },
        {
          "internalType": "uint256",
          "name": "deadline",
          "type": "uint256"
        }
      ],
      "name": "swapExactTokensForTokensSupportingFeeOnTransferTokens",
      "outputs": [],
      "stateMutability": "nonpayable",
      "type": "function"
    },
    {
      "stateMutability": "payable",
      "type": "receive"
    }
  ],
  "bytecode": "0x60c06040523480156200001157600080fd5b5060405162003c6a38038062003c6a833981016040819052620000349162000070565b6001600160601b0319606092831b8116608052911b1660a052620000a7565b80516001600160a01b03811681146200006b57600080fd5b919050565b6000806040838503121562000083578182fd5b6200008e8362000053565b91506200009e6020840162000053565b90509250929050565b60805160601c60a05160601c613aa9620001c1600039600081816101070152818161038c015281816103dc015281816107af015281816108b00152818161096e01528181610a0401528181610b3e01528181610bda01528181610d5601528181610dae01528181610e7b01528181610f1a01528181610fa5015281816110190152818161167e015281816116d40152818161170801526117a70152600081816104750152818161050401528181610a8d01528181610c0c0152818161104b01528181611320015281816114f30152818161151c01528181611582015281816116b201528181611eba0152818161208f0152818161243601528181612469015281816126ed015281816127bb015261284e0152613aa96000f3fe6080604052600436106100f75760003560e01c8063ad615dec1161008a578063c45a015511610059578063c45a0155146102e2578063d06ca61f146102f7578063e8e3370014610317578063f305d7191461034657610144565b8063ad615dec1461026f578063af2979eb1461028f578063b6f9de95146102af578063baa2abde146102c257610144565b8063791ac947116100c6578063791ac947146101fa5780637ff36ab51461021a57806385f8c2591461022d578063ad5c46481461024d57610144565b806302751cec14610149578063054d50d4146101805780631f00ca74146101ad5780635c11d795146101da57610144565b3661014457336001600160a01b037f0000000000000000000000000000000000000000000000000000000000000000161461014257634e487b7160e01b600052600160045260246000fd5b005b600080fd5b34801561015557600080fd5b50610169610164366004612ce5565b610359565b6040516101779291906138ee565b60405180910390f35b34801561018c57600080fd5b506101a061019b366004612f8e565b610459565b60405161017791906138e5565b3480156101b957600080fd5b506101cd6101c8366004612e2d565b61046e565b60405161017791906130d5565b3480156101e657600080fd5b506101426101f5366004612f1d565b6104a4565b34801561020657600080fd5b50610142610215366004612f1d565b610784565b6101cd610228366004612dc8565b6109df565b34801561023957600080fd5b506101a0610248366004612f8e565b610d47565b34801561025957600080fd5b50610262610d54565b604051610177919061306a565b34801561027b57600080fd5b506101a061028a366004612f8e565b610d78565b34801561029b57600080fd5b506101a06102aa366004612ce5565b610d85565b6101426102bd366004612dc8565b610ef7565b3480156102ce57600080fd5b506101696102dd366004612bf9565b6112f5565b3480156102ee57600080fd5b506102626114f1565b34801561030357600080fd5b506101cd610312366004612e2d565b611515565b34801561032357600080fd5b50610337610332366004612c6a565b611542565b6040516101779392919061394d565b610337610354366004612ce5565b611652565b60008082428110156103865760405162461bcd60e51b815260040161037d9061351c565b60405180910390fd5b6103b5897f00000000000000000000000000000000000000000000000000000000000000008a8a8a308a6112f5565b90935091506103c58986856118f6565b604051632e1a7d4d60e01b81526001600160a01b037f00000000000000000000000000000000000000000000000000000000000000001690632e1a7d4d906104119085906004016138e5565b600060405180830381600087803b15801561042b57600080fd5b505af115801561043f573d6000803e3d6000fd5b5050505061044d85836119e3565b50965096945050505050565b6000610466848484611a75565b949350505050565b606061049b7f00000000000000000000000000000000000000000000000000000000000000008484611b0f565b90505b92915050565b80428110156104c55760405162461bcd60e51b815260040161037d9061351c565b61059a858560008181106104e957634e487b7160e01b600052603260045260246000fd5b90506020020160208101906104fe9190612bba565b336105947f00000000000000000000000000000000000000000000000000000000000000008989600081811061054457634e487b7160e01b600052603260045260246000fd5b90506020020160208101906105599190612bba565b8a8a600181811061057a57634e487b7160e01b600052603260045260246000fd5b905060200201602081019061058f9190612bba565b611cc9565b8a611d39565b600085856105a96001826139ba565b8181106105c657634e487b7160e01b600052603260045260246000fd5b90506020020160208101906105db9190612bba565b6001600160a01b03166370a08231856040518263ffffffff1660e01b8152600401610606919061306a565b60206040518083038186803b15801561061e57600080fd5b505afa158015610632573d6000803e3d6000fd5b505050506040513d601f19601f820116820180604052508101906106569190612db0565b9050610696868680806020026020016040519081016040528093929190818152602001838360200280828437600092019190915250889250611e29915050565b868187876106a56001826139ba565b8181106106c257634e487b7160e01b600052603260045260246000fd5b90506020020160208101906106d79190612bba565b6001600160a01b03166370a08231876040518263ffffffff1660e01b8152600401610702919061306a565b60206040518083038186803b15801561071a57600080fd5b505afa15801561072e573d6000803e3d6000fd5b505050506040513d601f19601f820116820180604052508101906107529190612db0565b61075c91906139ba565b101561077a5760405162461bcd60e51b815260040161037d90613598565b5050505050505050565b80428110156107a55760405162461bcd60e51b815260040161037d9061351c565b6001600160a01b037f00000000000000000000000000000000000000000000000000000000000000001685856107dc6001826139ba565b8181106107f957634e487b7160e01b600052603260045260246000fd5b905060200201602081019061080e9190612bba565b6001600160a01b0316146108345760405162461bcd60e51b815260040161037d906131f5565b610858858560008181106104e957634e487b7160e01b600052603260045260246000fd5b610896858580806020026020016040519081016040528093929190818152602001838360200280828437600092019190915250309250611e29915050565b6040516370a0823160e01b81526000906001600160a01b037f000000000000000000000000000000000000000000000000000000000000000016906370a08231906108e590309060040161306a565b60206040518083038186803b1580156108fd57600080fd5b505afa158015610911573d6000803e3d6000fd5b505050506040513d601f19601f820116820180604052508101906109359190612db0565b9050868110156109575760405162461bcd60e51b815260040161037d90613488565b604051632e1a7d4d60e01b81526001600160a01b037f00000000000000000000000000000000000000000000000000000000000000001690632e1a7d4d906109a39084906004016138e5565b600060405180830381600087803b1580156109bd57600080fd5b505af11580156109d1573d6000803e3d6000fd5b5050505061077a84826119e3565b60608142811015610a025760405162461bcd60e51b815260040161037d9061351c565b7f00000000000000000000000000000000000000000000000000000000000000006001600160a01b031686866000818110610a4d57634e487b7160e01b600052603260045260246000fd5b9050602002016020810190610a629190612bba565b6001600160a01b031614610a885760405162461bcd60e51b815260040161037d906134e5565b610ae67f00000000000000000000000000000000000000000000000000000000000000003488888080602002602001604051908101604052809392919081815260200183836020028082843760009201919091525061218f92505050565b9150868260018451610af891906139ba565b81518110610b1657634e487b7160e01b600052603260045260246000fd5b60200260200101511015610b3c5760405162461bcd60e51b815260040161037d9061376a565b7f00000000000000000000000000000000000000000000000000000000000000006001600160a01b031663d0e30db083600081518110610b8c57634e487b7160e01b600052603260045260246000fd5b60200260200101516040518263ffffffff1660e01b81526004016000604051808303818588803b158015610bbf57600080fd5b505af1158015610bd3573d6000803e3d6000fd5b50505050507f00000000000000000000000000000000000000000000000000000000000000006001600160a01b031663a9059cbb610c4c7f00000000000000000000000000000000000000000000000000000000000000008989600081811061054457634e487b7160e01b600052603260045260246000fd5b84600081518110610c6d57634e487b7160e01b600052603260045260246000fd5b60200260200101516040518363ffffffff1660e01b8152600401610c929291906130bc565b602060405180830381600087803b158015610cac57600080fd5b505af1158015610cc0573d6000803e3d6000fd5b505050506040513d601f19601f82011682018060405250810190610ce49190612d42565b610cfe57634e487b7160e01b600052600160045260246000fd5b610d3d82878780806020026020016040519081016040528093929190818152602001838360200280828437600092019190915250899250612329915050565b5095945050505050565b600061046684848461253e565b7f000000000000000000000000000000000000000000000000000000000000000081565b60006104668484846125d2565b60008142811015610da85760405162461bcd60e51b815260040161037d9061351c565b610dd7887f000000000000000000000000000000000000000000000000000000000000000089898930896112f5565b6040516370a0823160e01b8152909350610e649150899086906001600160a01b038316906370a0823190610e0f90309060040161306a565b60206040518083038186803b158015610e2757600080fd5b505afa158015610e3b573d6000803e3d6000fd5b505050506040513d601f19601f82011682018060405250810190610e5f9190612db0565b6118f6565b604051632e1a7d4d60e01b81526001600160a01b037f00000000000000000000000000000000000000000000000000000000000000001690632e1a7d4d90610eb09085906004016138e5565b600060405180830381600087803b158015610eca57600080fd5b505af1158015610ede573d6000803e3d6000fd5b50505050610eec84836119e3565b509695505050505050565b8042811015610f185760405162461bcd60e51b815260040161037d9061351c565b7f00000000000000000000000000000000000000000000000000000000000000006001600160a01b031685856000818110610f6357634e487b7160e01b600052603260045260246000fd5b9050602002016020810190610f789190612bba565b6001600160a01b031614610f9e5760405162461bcd60e51b815260040161037d906138a2565b60003490507f00000000000000000000000000000000000000000000000000000000000000006001600160a01b031663d0e30db0826040518263ffffffff1660e01b81526004016000604051808303818588803b158015610ffe57600080fd5b505af1158015611012573d6000803e3d6000fd5b50505050507f00000000000000000000000000000000000000000000000000000000000000006001600160a01b031663a9059cbb61108b7f00000000000000000000000000000000000000000000000000000000000000008989600081811061054457634e487b7160e01b600052603260045260246000fd5b836040518363ffffffff1660e01b81526004016110a99291906130bc565b602060405180830381600087803b1580156110c357600080fd5b505af11580156110d7573d6000803e3d6000fd5b505050506040513d601f19601f820116820180604052508101906110fb9190612d42565b61111557634e487b7160e01b600052600160045260246000fd5b600086866111246001826139ba565b81811061114157634e487b7160e01b600052603260045260246000fd5b90506020020160208101906111569190612bba565b6001600160a01b03166370a08231866040518263ffffffff1660e01b8152600401611181919061306a565b60206040518083038186803b15801561119957600080fd5b505afa1580156111ad573d6000803e3d6000fd5b505050506040513d601f19601f820116820180604052508101906111d19190612db0565b9050611211878780806020026020016040519081016040528093929190818152602001838360200280828437600092019190915250899250611e29915050565b878188886112206001826139ba565b81811061123d57634e487b7160e01b600052603260045260246000fd5b90506020020160208101906112529190612bba565b6001600160a01b03166370a08231886040518263ffffffff1660e01b815260040161127d919061306a565b60206040518083038186803b15801561129557600080fd5b505afa1580156112a9573d6000803e3d6000fd5b505050506040513d601f19601f820116820180604052508101906112cd9190612db0565b6112d791906139ba565b101561077a5760405162461bcd60e51b815260040161037d906133f4565b60008082428110156113195760405162461bcd60e51b815260040161037d9061351c565b60006113467f00000000000000000000000000000000000000000000000000000000000000008c8c611cc9565b6040517f23b872dd0000000000000000000000000000000000000000000000000000000081529091506001600160a01b038216906323b872dd9061139290339085908e90600401613098565b602060405180830381600087803b1580156113ac57600080fd5b505af11580156113c0573d6000803e3d6000fd5b505050506040513d601f19601f820116820180604052508101906113e49190612d42565b50600080826001600160a01b03166389afcb44896040518263ffffffff1660e01b8152600401611414919061306a565b6040805180830381600087803b15801561142d57600080fd5b505af1158015611441573d6000803e3d6000fd5b505050506040513d601f19601f820116820180604052508101906114659190612efa565b9150915060006114758e8e612634565b509050806001600160a01b03168e6001600160a01b03161461149857818361149b565b82825b90975095508a8710156114c05760405162461bcd60e51b815260040161037d90613699565b898610156114e05760405162461bcd60e51b815260040161037d90613724565b505050505097509795505050505050565b7f000000000000000000000000000000000000000000000000000000000000000081565b606061049b7f0000000000000000000000000000000000000000000000000000000000000000848461218f565b600080600083428110156115685760405162461bcd60e51b815260040161037d9061351c565b6115768c8c8c8c8c8c6126be565b909450925060006115a87f00000000000000000000000000000000000000000000000000000000000000008e8e611cc9565b90506115b68d338388611d39565b6115c28c338387611d39565b6040516335313c2160e11b81526001600160a01b03821690636a627842906115ee908a9060040161306a565b602060405180830381600087803b15801561160857600080fd5b505af115801561161c573d6000803e3d6000fd5b505050506040513d601f19601f820116820180604052508101906116409190612db0565b92505050985098509895505050505050565b600080600083428110156116785760405162461bcd60e51b815260040161037d9061351c565b6116a68a7f00000000000000000000000000000000000000000000000000000000000000008b348c8c6126be565b909450925060006116f87f00000000000000000000000000000000000000000000000000000000000000008c7f0000000000000000000000000000000000000000000000000000000000000000611cc9565b90506117068b338388611d39565b7f00000000000000000000000000000000000000000000000000000000000000006001600160a01b031663d0e30db0856040518263ffffffff1660e01b81526004016000604051808303818588803b15801561176157600080fd5b505af1158015611775573d6000803e3d6000fd5b50506040517fa9059cbb0000000000000000000000000000000000000000000000000000000081526001600160a01b037f000000000000000000000000000000000000000000000000000000000000000016935063a9059cbb92506117e19150849088906004016130bc565b602060405180830381600087803b1580156117fb57600080fd5b505af115801561180f573d6000803e3d6000fd5b505050506040513d601f19601f820116820180604052508101906118339190612d42565b61184d57634e487b7160e01b600052600160045260246000fd5b6040516335313c2160e11b81526001600160a01b03821690636a62784290611879908a9060040161306a565b602060405180830381600087803b15801561189357600080fd5b505af11580156118a7573d6000803e3d6000fd5b505050506040513d601f19601f820116820180604052508101906118cb9190612db0565b9250833411156118e8576118e8336118e386346139ba565b6119e3565b505096509650969350505050565b600080846001600160a01b031663a9059cbb858560405160240161191b9291906130bc565b6040516020818303038152906040529060e01b6020820180516001600160e01b0383818316178352505050506040516119549190612fe0565b6000604051808303816000865af19150503d8060008114611991576040519150601f19603f3d011682016040523d82523d6000602084013e611996565b606091505b50915091508180156119c05750805115806119c05750808060200190518101906119c09190612d42565b6119dc5760405162461bcd60e51b815260040161037d906137fe565b5050505050565b604080516000808252602082019092526001600160a01b038416908390604051611a0d9190612fe0565b60006040518083038185875af1925050503d8060008114611a4a576040519150601f19603f3d011682016040523d82523d6000602084013e611a4f565b606091505b5050905080611a705760405162461bcd60e51b815260040161037d90613329565b505050565b6000808411611a965760405162461bcd60e51b815260040161037d906135f5565b600083118015611aa65750600082115b611ac25760405162461bcd60e51b815260040161037d9061326f565b6000611ad0856103e6612939565b90506000611ade8285612939565b90506000611af883611af2886103e8612939565b90612979565b9050611b04818361397b565b979650505050505050565b6060600282511015611b335760405162461bcd60e51b815260040161037d906133bd565b815167ffffffffffffffff811115611b5b57634e487b7160e01b600052604160045260246000fd5b604051908082528060200260200182016040528015611b84578160200160208202803683370190505b509050828160018351611b9791906139ba565b81518110611bb557634e487b7160e01b600052603260045260246000fd5b602002602001018181525050600060018351611bd191906139ba565b90505b8015611cc157600080611c408786611bed6001876139ba565b81518110611c0b57634e487b7160e01b600052603260045260246000fd5b6020026020010151878681518110611c3357634e487b7160e01b600052603260045260246000fd5b60200260200101516129a7565b91509150611c76848481518110611c6757634e487b7160e01b600052603260045260246000fd5b6020026020010151838361253e565b84611c826001866139ba565b81518110611ca057634e487b7160e01b600052603260045260246000fd5b60200260200101818152505050508080611cb9906139fd565b915050611bd4565b509392505050565b6000806000611cd88585612634565b91509150858282604051602001611cf0929190612fb9565b60405160208183030381529060405280519060200120604051602001611d17929190612ffc565b60408051601f1981840301815291905280516020909101209695505050505050565b600080856001600160a01b03166323b872dd868686604051602401611d6093929190613098565b6040516020818303038152906040529060e01b6020820180516001600160e01b038381831617835250505050604051611d999190612fe0565b6000604051808303816000865af19150503d8060008114611dd6576040519150601f19603f3d011682016040523d82523d6000602084013e611ddb565b606091505b5091509150818015611e05575080511580611e05575080806020019051810190611e059190612d42565b611e215760405162461bcd60e51b815260040161037d906132cc565b505050505050565b60005b60018351611e3a91906139ba565b811015611a7057600080848381518110611e6457634e487b7160e01b600052603260045260246000fd5b602002602001015185846001611e7a9190613963565b81518110611e9857634e487b7160e01b600052603260045260246000fd5b6020026020010151915091506000611eb08383612634565b5090506000611ee07f00000000000000000000000000000000000000000000000000000000000000008585611cc9565b9050600080600080846001600160a01b0316630902f1ac6040518163ffffffff1660e01b815260040160606040518083038186803b158015611f2157600080fd5b505afa158015611f35573d6000803e3d6000fd5b505050506040513d601f19601f82011682018060405250810190611f599190612d62565b506dffffffffffffffffffffffffffff1691506dffffffffffffffffffffffffffff169150600080876001600160a01b03168a6001600160a01b031614611fa1578284611fa4565b83835b91509150818a6001600160a01b03166370a08231896040518263ffffffff1660e01b8152600401611fd5919061306a565b60206040518083038186803b158015611fed57600080fd5b505afa158015612001573d6000803e3d6000fd5b505050506040513d601f19601f820116820180604052508101906120259190612db0565b61202f91906139ba565b955061203c868383611a75565b945050505050600080856001600160a01b0316886001600160a01b0316146120665782600061206a565b6000835b91509150600060028c5161207e91906139ba565b8a1061208a578a6120e6565b6120e67f0000000000000000000000000000000000000000000000000000000000000000898e6120bb8e6002613963565b815181106120d957634e487b7160e01b600052603260045260246000fd5b6020026020010151611cc9565b604080516000815260208101918290527f022c0d9f000000000000000000000000000000000000000000000000000000009091529091506001600160a01b0387169063022c0d9f9061214190869086908690602481016138fc565b600060405180830381600087803b15801561215b57600080fd5b505af115801561216f573d6000803e3d6000fd5b50505050505050505050505050808061218790613a14565b915050611e2c565b60606002825110156121b35760405162461bcd60e51b815260040161037d90613386565b815167ffffffffffffffff8111156121db57634e487b7160e01b600052604160045260246000fd5b604051908082528060200260200182016040528015612204578160200160208202803683370190505b509050828160008151811061222957634e487b7160e01b600052603260045260246000fd5b60200260200101818152505060005b6001835161224691906139ba565b811015611cc1576000806122a88786858151811061227457634e487b7160e01b600052603260045260246000fd5b60200260200101518786600161228a9190613963565b81518110611c3357634e487b7160e01b600052603260045260246000fd5b915091506122de8484815181106122cf57634e487b7160e01b600052603260045260246000fd5b60200260200101518383611a75565b846122ea856001613963565b8151811061230857634e487b7160e01b600052603260045260246000fd5b6020026020010181815250505050808061232190613a14565b915050612238565b60005b6001835161233a91906139ba565b8110156125385760008084838151811061236457634e487b7160e01b600052603260045260246000fd5b60200260200101518584600161237a9190613963565b8151811061239857634e487b7160e01b600052603260045260246000fd5b60200260200101519150915060006123b08383612634565b5090506000876123c1866001613963565b815181106123df57634e487b7160e01b600052603260045260246000fd5b60200260200101519050600080836001600160a01b0316866001600160a01b03161461240d57826000612411565b6000835b91509150600060028a5161242591906139ba565b88106124315788612462565b6124627f0000000000000000000000000000000000000000000000000000000000000000878c6120bb8c6002613963565b905061248f7f00000000000000000000000000000000000000000000000000000000000000008888611cc9565b6001600160a01b031663022c0d9f84848460006040519080825280601f01601f1916602001820160405280156124cc576020820181803683370190505b506040518563ffffffff1660e01b81526004016124ec94939291906138fc565b600060405180830381600087803b15801561250657600080fd5b505af115801561251a573d6000803e3d6000fd5b5050505050505050505050808061253090613a14565b91505061232c565b50505050565b600080841161255f5760405162461bcd60e51b815260040161037d9061385b565b60008311801561256f5750600082115b61258b5760405162461bcd60e51b815260040161037d9061363c565b60006125a36103e861259d8688612939565b90612939565b905060006125b76103e661259d8689612a99565b90506125c86001611af2838561397b565b9695505050505050565b60008084116125f35760405162461bcd60e51b815260040161037d90613150565b6000831180156126035750600082115b61261f5760405162461bcd60e51b815260040161037d906137c7565b8261262a838661399b565b610466919061397b565b600080826001600160a01b0316846001600160a01b031614156126695760405162461bcd60e51b815260040161037d906131be565b826001600160a01b0316846001600160a01b03161061268957828461268c565b83835b90925090506001600160a01b0382166126b75760405162461bcd60e51b815260040161037d90613451565b9250929050565b6040517fe6a43905000000000000000000000000000000000000000000000000000000008152600090819081907f00000000000000000000000000000000000000000000000000000000000000006001600160a01b03169063e6a439059061272c908c908c9060040161307e565b60206040518083038186803b15801561274457600080fd5b505afa158015612758573d6000803e3d6000fd5b505050506040513d601f19601f8201168201806040525081019061277c9190612bdd565b6001600160a01b03161415612846576040517fc9c653960000000000000000000000000000000000000000000000000000000081526001600160a01b037f0000000000000000000000000000000000000000000000000000000000000000169063c9c65396906127f2908b908b9060040161307e565b602060405180830381600087803b15801561280c57600080fd5b505af1158015612820573d6000803e3d6000fd5b505050506040513d601f19601f820116820180604052508101906128449190612bdd565b505b6000806128747f00000000000000000000000000000000000000000000000000000000000000008b8b6129a7565b91509150816000148015612886575080155b156128965787935086925061292c565b60006128a38984846125d2565b90508781116128d757858110156128cc5760405162461bcd60e51b815260040161037d90613553565b88945092508261292a565b60006128e48984866125d2565b90508981111561290457634e487b7160e01b600052600160045260246000fd5b878110156129245760405162461bcd60e51b815260040161037d906136df565b94508793505b505b5050965096945050505050565b600081158061295d5750828261294f818361399b565b925061295b908361397b565b145b61049e5760405162461bcd60e51b815260040161037d90613187565b6000826129868382613963565b915081101561049e5760405162461bcd60e51b815260040161037d90613238565b60008060006129b68585612634565b5090506000806129c7888888611cc9565b6001600160a01b0316630902f1ac6040518163ffffffff1660e01b815260040160606040518083038186803b1580156129ff57600080fd5b505afa158015612a13573d6000803e3d6000fd5b505050506040513d601f19601f82011682018060405250810190612a379190612d62565b506dffffffffffffffffffffffffffff1691506dffffffffffffffffffffffffffff169150826001600160a01b0316876001600160a01b031614612a7c578082612a7f565b81815b9095509350612a8e8585612ac7565b505050935093915050565b600082612aa683826139ba565b915081111561049e5760405162461bcd60e51b815260040161037d90613119565b612b258282604051602401612add9291906138ee565b60408051601f198184030181529190526020810180516001600160e01b03167f6c0f698000000000000000000000000000000000000000000000000000000000179052612b29565b5050565b80516a636f6e736f6c652e6c6f67602083016000808483855afa5050505050565b8035612b5581613a5b565b919050565b60008083601f840112612b6b578081fd5b50813567ffffffffffffffff811115612b82578182fd5b60208301915083602080830285010111156126b757600080fd5b80516dffffffffffffffffffffffffffff81168114612b5557600080fd5b600060208284031215612bcb578081fd5b8135612bd681613a5b565b9392505050565b600060208284031215612bee578081fd5b8151612bd681613a5b565b600080600080600080600060e0888a031215612c13578283fd5b8735612c1e81613a5b565b96506020880135612c2e81613a5b565b955060408801359450606088013593506080880135925060a0880135612c5381613a5b565b8092505060c0880135905092959891949750929550565b600080600080600080600080610100898b031215612c86578081fd5b8835612c9181613a5b565b97506020890135612ca181613a5b565b965060408901359550606089013594506080890135935060a0890135925060c0890135612ccd81613a5b565b8092505060e089013590509295985092959890939650565b60008060008060008060c08789031215612cfd578182fd5b8635612d0881613a5b565b95506020870135945060408701359350606087013592506080870135612d2d81613a5b565b8092505060a087013590509295509295509295565b600060208284031215612d53578081fd5b81518015158114612bd6578182fd5b600080600060608486031215612d76578283fd5b612d7f84612b9c565b9250612d8d60208501612b9c565b9150604084015163ffffffff81168114612da5578182fd5b809150509250925092565b600060208284031215612dc1578081fd5b5051919050565b600080600080600060808688031215612ddf578081fd5b85359450602086013567ffffffffffffffff811115612dfc578182fd5b612e0888828901612b5a565b9095509350506040860135612e1c81613a5b565b949793965091946060013592915050565b60008060408385031215612e3f578182fd5b8235915060208084013567ffffffffffffffff80821115612e5e578384fd5b818601915086601f830112612e71578384fd5b813581811115612e8357612e83613a45565b83810260405185828201018181108582111715612ea257612ea2613a45565b604052828152858101935084860182860187018b1015612ec0578788fd5b8795505b83861015612ee957612ed581612b4a565b855260019590950194938601938601612ec4565b508096505050505050509250929050565b60008060408385031215612f0c578182fd5b505080516020909101519092909150565b60008060008060008060a08789031215612f35578384fd5b8635955060208701359450604087013567ffffffffffffffff811115612f59578485fd5b612f6589828a01612b5a565b9095509350506060870135612f7981613a5b565b80925050608087013590509295509295509295565b600080600060608486031215612fa2578081fd5b505081359360208301359350604090920135919050565b6bffffffffffffffffffffffff19606093841b811682529190921b16601482015260280190565b60008251612ff28184602087016139d1565b9190910192915050565b7fff00000000000000000000000000000000000000000000000000000000000000815260609290921b6bffffffffffffffffffffffff1916600183015260158201527f0456fb707f84d5fbe961588ae3d6950bd14dbbb35e93145edc86183bd92d128c603582015260550190565b6001600160a01b0391909116815260200190565b6001600160a01b0392831681529116602082015260400190565b6001600160a01b039384168152919092166020820152604081019190915260600190565b6001600160a01b03929092168252602082015260400190565b6020808252825182820181905260009190848201906040850190845b8181101561310d578351835292840192918401916001016130f1565b50909695505050505050565b60208082526015908201527f64732d6d6174682d7375622d756e646572666c6f770000000000000000000000604082015260600190565b6020808252601a908201527f71756f74653a20494e53554646494349454e545f414d4f554e54000000000000604082015260600190565b60208082526014908201527f64732d6d6174682d6d756c2d6f766572666c6f77000000000000000000000000604082015260600190565b6020808252601f908201527f736f7274546f6b656e733a204944454e544943414c5f41444452455353455300604082015260600190565b60208082526023908201527f737761704578616374546f6b656e73466f724554483a20494e56414c49445f50604082015262082a8960eb1b606082015260800190565b60208082526014908201527f64732d6d6174682d6164642d6f766572666c6f77000000000000000000000000604082015260600190565b60208082526024908201527f676574416d6f756e744f75743a20494e53554646494349454e545f4c4951554960408201527f4449545900000000000000000000000000000000000000000000000000000000606082015260800190565b60208082526031908201527f5472616e7366657248656c7065723a3a7472616e7366657246726f6d3a20747260408201527f616e7366657246726f6d206661696c6564000000000000000000000000000000606082015260800190565b60208082526034908201527f5472616e7366657248656c7065723a3a736166655472616e736665724554483a60408201527f20455448207472616e73666572206661696c6564000000000000000000000000606082015260800190565b6020808252601b908201527f676574416d6f756e74734f75743a20494e56414c49445f504154480000000000604082015260600190565b6020808252601a908201527f676574416d6f756e7473496e3a20494e56414c49445f50415448000000000000604082015260600190565b60208082526031908201527f737761704578616374455448466f72546f6b656e733a20494e5355464649434960408201527f454e545f4f55545055545f414d4f554e54000000000000000000000000000000606082015260800190565b60208082526018908201527f736f7274546f6b656e733a205a45524f5f414444524553530000000000000000604082015260600190565b60208082526031908201527f737761704578616374546f6b656e73466f724554483a20494e5355464649434960408201527f454e545f4f55545055545f414d4f554e54000000000000000000000000000000606082015260800190565b6020808252601d908201527f556e69737761705632526f757465723a20494e56414c49445f50415448000000604082015260600190565b60208082526016908201527f526f7574657220656e737572653a204558504952454400000000000000000000604082015260600190565b60208082526025908201527f5f6164644c6971756964697479313a20494e53554646494349454e545f425f416040820152641353d5539560da1b606082015260800190565b6020808252602d908201527f426c756562657272795632526f757465723a20494e53554646494349454e545f60408201527f4f55545055545f414d4f554e5400000000000000000000000000000000000000606082015260800190565b60208082526027908201527f676574416d6f756e744f75743a20494e53554646494349454e545f494e50555460408201526617d05353d5539560ca1b606082015260800190565b60208082526023908201527f676574416d6f756e74496e3a20494e53554646494349454e545f4c495155494460408201527f4954590000000000000000000000000000000000000000000000000000000000606082015260800190565b60208082526026908201527f72656d6f76654c69717569646974793a20494e53554646494349454e545f415f604082015265105353d5539560d21b606082015260800190565b60208082526025908201527f5f6164644c6971756964697479323a20494e53554646494349454e545f415f416040820152641353d5539560da1b606082015260800190565b60208082526026908201527f72656d6f76654c69717569646974793a20494e53554646494349454e545f425f604082015265105353d5539560d21b606082015260800190565b6020808252602b908201527f556e69737761705632526f757465723a20494e53554646494349454e545f4f5560408201527f545055545f414d4f554e54000000000000000000000000000000000000000000606082015260800190565b6020808252601d908201527f71756f74653a20494e53554646494349454e545f4c4951554944495459000000604082015260600190565b6020808252602d908201527f5472616e7366657248656c7065723a3a736166655472616e736665723a20747260408201527f616e73666572206661696c656400000000000000000000000000000000000000606082015260800190565b60208082526027908201527f676574416d6f756e74496e3a20494e53554646494349454e545f4f555450555460408201526617d05353d5539560ca1b606082015260800190565b60208082526023908201527f737761704578616374455448466f72546f6b656e733a20494e56414c49445f50604082015262082a8960eb1b606082015260800190565b90815260200190565b918252602082015260400190565b60008582528460208301526001600160a01b03841660408301526080606083015282518060808401526139368160a08501602087016139d1565b601f01601f19169190910160a00195945050505050565b9283526020830191909152604082015260600190565b6000821982111561397657613976613a2f565b500190565b60008261399657634e487b7160e01b81526012600452602481fd5b500490565b60008160001904831182151516156139b5576139b5613a2f565b500290565b6000828210156139cc576139cc613a2f565b500390565b60005b838110156139ec5781810151838201526020016139d4565b838111156125385750506000910152565b600081613a0c57613a0c613a2f565b506000190190565b6000600019821415613a2857613a28613a2f565b5060010190565b634e487b7160e01b600052601160045260246000fd5b634e487b7160e01b600052604160045260246000fd5b6001600160a01b0381168114613a7057600080fd5b5056fea2646970667358221220fae6f320eb6d89826aace200bffce6c0bea974a3850b10b9fcdfd90e0230a84164736f6c63430008000033",
  "linkReferences": {},
  "deployedLinkReferences": {}
}